{"abi":[{"type":"constructor","inputs":[{"name":"_router","type":"address","internalType":"address"},{"name":"_link","type":"address","internalType":"address"},{"name":"_weth","type":"address","internalType":"address"}],"stateMutability":"nonpayable"},{"type":"function","name":"COLL_WETH","inputs":[],"outputs":[{"name":"","type":"address","internalType":"address"}],"stateMutability":"view"},{"type":"function","name":"DEBT_ISSUER_ROLE","inputs":[],"outputs":[{"name":"","type":"bytes32","internalType":"bytes32"}],"stateMutability":"view"},{"type":"function","name":"DEFAULT_ADMIN_ROLE","inputs":[],"outputs":[{"name":"","type":"bytes32","internalType":"bytes32"}],"stateMutability":"view"},{"type":"function","name":"ccipReceive","inputs":[{"name":"message","type":"tuple","internalType":"struct Client.Any2EVMMessage","components":[{"name":"messageId","type":"bytes32","internalType":"bytes32"},{"name":"sourceChainSelector","type":"uint64","internalType":"uint64"},{"name":"sender","type":"bytes","internalType":"bytes"},{"name":"data","type":"bytes","internalType":"bytes"},{"name":"destTokenAmounts","type":"tuple[]","internalType":"struct Client.EVMTokenAmount[]","components":[{"name":"token","type":"address","internalType":"address"},{"name":"amount","type":"uint256","internalType":"uint256"}]}]}],"outputs":[],"stateMutability":"nonpayable"},{"type":"function","name":"commitmentBorrowedTokens","inputs":[{"name":"","type":"bytes32","internalType":"bytes32"},{"name":"","type":"uint256","internalType":"uint256"}],"outputs":[{"name":"","type":"address","internalType":"address"}],"stateMutability":"view"},{"type":"function","name":"depositCollateral","inputs":[{"name":"_collateralToken","type":"address","internalType":"address"},{"name":"_amount","type":"uint256","internalType":"uint256"},{"name":"_recipient","type":"address","internalType":"address"}],"outputs":[],"stateMutability":"nonpayable"},{"type":"function","name":"depositPrivateCollateral","inputs":[{"name":"_collateralToken","type":"address","internalType":"address"},{"name":"_amount","type":"uint256","internalType":"uint256"},{"name":"_commitment","type":"bytes32","internalType":"bytes32"},{"name":"_proof","type":"bytes","internalType":"bytes"}],"outputs":[],"stateMutability":"nonpayable"},{"type":"function","name":"getHealthFactor","inputs":[{"name":"user","type":"address","internalType":"address"}],"outputs":[{"name":"","type":"uint256","internalType":"uint256"}],"stateMutability":"view"},{"type":"function","name":"getPriceFeed","inputs":[{"name":"token","type":"address","internalType":"address"}],"outputs":[{"name":"","type":"address","internalType":"address"}],"stateMutability":"view"},{"type":"function","name":"getRoleAdmin","inputs":[{"name":"role","type":"bytes32","internalType":"bytes32"}],"outputs":[{"name":"","type":"bytes32","internalType":"bytes32"}],"stateMutability":"view"},{"type":"function","name":"getRouter","inputs":[],"outputs":[{"name":"","type":"address","internalType":"address"}],"stateMutability":"view"},{"type":"function","name":"grantRole","inputs":[{"name":"role","type":"bytes32","internalType":"bytes32"},{"name":"account","type":"address","internalType":"address"}],"outputs":[],"stateMutability":"nonpayable"},{"type":"function","name":"hasRole","inputs":[{"name":"role","type":"bytes32","internalType":"bytes32"},{"name":"account","type":"address","internalType":"address"}],"outputs":[{"name":"","type":"bool","internalType":"bool"}],"stateMutability":"view"},{"type":"function","name":"initiatePrivateBorrow","inputs":[{"name":"_commitment","type":"bytes32","internalType":"bytes32"},{"name":"_nullifierHash","type":"bytes32","internalType":"bytes32"},{"name":"_recipient","type":"address","internalType":"address"},{"name":"_borrowAmount","type":"uint256","internalType":"uint256"},{"name":"_borrowToken","type":"address","internalType":"address"},{"name":"_targetChainSelector","type":"uint64","internalType":"uint64"},{"name":"_proof","type":"bytes","internalType":"bytes"}],"outputs":[],"stateMutability":"nonpayable"},{"type":"function","name":"isLiquidatable","inputs":[{"name":"user","type":"address","internalType":"address"}],"outputs":[{"name":"","type":"bool","internalType":"bool"}],"stateMutability":"view"},{"type":"function","name":"issueDebtForTest","inputs":[{"name":"user","type":"address","internalType":"address"},{"name":"debtToken","type":"address","internalType":"address"},{"name":"amount","type":"uint256","internalType":"uint256"}],"outputs":[],"stateMutability":"nonpayable"},{"type":"function","name":"liquidateCollateral","inputs":[{"name":"user","type":"address","internalType":"address"},{"name":"debtToken","type":"address","internalType":"address"},{"name":"repayAmount","type":"uint256","internalType":"uint256"}],"outputs":[],"stateMutability":"nonpayable"},{"type":"function","name":"liquidationBonus","inputs":[],"outputs":[{"name":"","type":"uint256","internalType":"uint256"}],"stateMutability":"view"},{"type":"function","name":"liquidationThreshold","inputs":[],"outputs":[{"name":"","type":"uint256","internalType":"uint256"}],"stateMutability":"view"},{"type":"function","name":"owner","inputs":[],"outputs":[{"name":"","type":"address","internalType":"address"}],"stateMutability":"view"},{"type":"function","name":"priceFeeds","inputs":[{"name":"","type":"address","internalType":"address"}],"outputs":[{"name":"","type":"address","internalType":"address"}],"stateMutability":"view"},{"type":"function","name":"privacyPool","inputs":[],"outputs":[{"name":"","type":"address","internalType":"contract IPrivacyPool"}],"stateMutability":"view"},{"type":"function","name":"privateDebt","inputs":[{"name":"","type":"bytes32","internalType":"bytes32"},{"name":"","type":"address","internalType":"address"}],"outputs":[{"name":"","type":"uint256","internalType":"uint256"}],"stateMutability":"view"},{"type":"function","name":"privateDeposits","inputs":[{"name":"","type":"bytes32","internalType":"bytes32"}],"outputs":[{"name":"collateralToken","type":"address","internalType":"address"},{"name":"amount","type":"uint256","internalType":"uint256"}],"stateMutability":"view"},{"type":"function","name":"renounceOwnership","inputs":[],"outputs":[],"stateMutability":"nonpayable"},{"type":"function","name":"renounceRole","inputs":[{"name":"role","type":"bytes32","internalType":"bytes32"},{"name":"callerConfirmation","type":"address","internalType":"address"}],"outputs":[],"stateMutability":"nonpayable"},{"type":"function","name":"revokeRole","inputs":[{"name":"role","type":"bytes32","internalType":"bytes32"},{"name":"account","type":"address","internalType":"address"}],"outputs":[],"stateMutability":"nonpayable"},{"type":"function","name":"setLiquidationBonus","inputs":[{"name":"bonus","type":"uint256","internalType":"uint256"}],"outputs":[],"stateMutability":"nonpayable"},{"type":"function","name":"setLiquidationThreshold","inputs":[{"name":"threshold","type":"uint256","internalType":"uint256"}],"outputs":[],"stateMutability":"nonpayable"},{"type":"function","name":"setPriceFeed","inputs":[{"name":"_token","type":"address","internalType":"address"},{"name":"_priceFeed","type":"address","internalType":"address"}],"outputs":[],"stateMutability":"nonpayable"},{"type":"function","name":"setPrivacyPool","inputs":[{"name":"_privacyPoolAddress","type":"address","internalType":"address"}],"outputs":[],"stateMutability":"nonpayable"},{"type":"function","name":"setTargetChainParams","inputs":[{"name":"_collateralToken","type":"address","internalType":"address"},{"name":"_chainSelector","type":"uint64","internalType":"uint64"},{"name":"_borrowManagementContract","type":"address","internalType":"address"}],"outputs":[],"stateMutability":"nonpayable"},{"type":"function","name":"supportsInterface","inputs":[{"name":"interfaceId","type":"bytes4","internalType":"bytes4"}],"outputs":[{"name":"","type":"bool","internalType":"bool"}],"stateMutability":"view"},{"type":"function","name":"targetChainParams","inputs":[{"name":"","type":"address","internalType":"address"}],"outputs":[{"name":"chainSelector","type":"uint64","internalType":"uint64"},{"name":"borrowManagementContract","type":"address","internalType":"address"}],"stateMutability":"view"},{"type":"function","name":"transferLinkToken","inputs":[{"name":"to","type":"address","internalType":"address"},{"name":"amount","type":"uint256","internalType":"uint256"}],"outputs":[],"stateMutability":"nonpayable"},{"type":"function","name":"transferOwnership","inputs":[{"name":"newOwner","type":"address","internalType":"address"}],"outputs":[],"stateMutability":"nonpayable"},{"type":"function","name":"userBorrowedTokens","inputs":[{"name":"","type":"address","internalType":"address"},{"name":"","type":"uint256","internalType":"uint256"}],"outputs":[{"name":"","type":"address","internalType":"address"}],"stateMutability":"view"},{"type":"function","name":"userCollateral","inputs":[{"name":"","type":"address","internalType":"address"},{"name":"","type":"address","internalType":"address"}],"outputs":[{"name":"totalDeposited","type":"uint256","internalType":"uint256"},{"name":"totalBorrowed","type":"uint256","internalType":"uint256"}],"stateMutability":"view"},{"type":"function","name":"userCommitments","inputs":[{"name":"","type":"address","internalType":"address"},{"name":"","type":"uint256","internalType":"uint256"}],"outputs":[{"name":"","type":"bytes32","internalType":"bytes32"}],"stateMutability":"view"},{"type":"function","name":"userDebt","inputs":[{"name":"","type":"address","internalType":"address"},{"name":"","type":"address","internalType":"address"}],"outputs":[{"name":"","type":"uint256","internalType":"uint256"}],"stateMutability":"view"},{"type":"function","name":"userDepositedCollaterals","inputs":[{"name":"","type":"address","internalType":"address"},{"name":"","type":"uint256","internalType":"uint256"}],"outputs":[{"name":"","type":"address","internalType":"address"}],"stateMutability":"view"},{"type":"function","name":"withdrawCollateral","inputs":[{"name":"collateralToken","type":"address","internalType":"address"},{"name":"amount","type":"uint256","internalType":"uint256"}],"outputs":[],"stateMutability":"nonpayable"},{"type":"event","name":"BorrowRequestFinalizedPrivate","inputs":[{"name":"commitmentHash","type":"bytes32","indexed":true,"internalType":"bytes32"},{"name":"amount","type":"uint256","indexed":false,"internalType":"uint256"}],"anonymous":false},{"type":"event","name":"BorrowRequestHandledOnSource","inputs":[{"name":"depositor","type":"address","indexed":true,"internalType":"address"},{"name":"collateralToken","type":"address","indexed":true,"internalType":"address"},{"name":"amount","type":"uint256","indexed":false,"internalType":"uint256"}],"anonymous":false},{"type":"event","name":"CollateralDeposited","inputs":[{"name":"user","type":"address","indexed":true,"internalType":"address"},{"name":"collateralToken","type":"address","indexed":true,"internalType":"address"},{"name":"amount","type":"uint256","indexed":false,"internalType":"uint256"}],"anonymous":false},{"type":"event","name":"CollateralWithdrawn","inputs":[{"name":"user","type":"address","indexed":true,"internalType":"address"},{"name":"collateralToken","type":"address","indexed":true,"internalType":"address"},{"name":"amount","type":"uint256","indexed":false,"internalType":"uint256"}],"anonymous":false},{"type":"event","name":"Liquidation","inputs":[{"name":"liquidator","type":"address","indexed":true,"internalType":"address"},{"name":"user","type":"address","indexed":true,"internalType":"address"},{"name":"collateral","type":"address","indexed":false,"internalType":"address"},{"name":"seizedAmount","type":"uint256","indexed":false,"internalType":"uint256"}],"anonymous":false},{"type":"event","name":"OwnershipTransferred","inputs":[{"name":"previousOwner","type":"address","indexed":true,"internalType":"address"},{"name":"newOwner","type":"address","indexed":true,"internalType":"address"}],"anonymous":false},{"type":"event","name":"RepayCompletedOnSource","inputs":[{"name":"depositor","type":"address","indexed":true,"internalType":"address"},{"name":"collateralToken","type":"address","indexed":true,"internalType":"address"},{"name":"amount","type":"uint256","indexed":false,"internalType":"uint256"}],"anonymous":false},{"type":"event","name":"RoleAdminChanged","inputs":[{"name":"role","type":"bytes32","indexed":true,"internalType":"bytes32"},{"name":"previousAdminRole","type":"bytes32","indexed":true,"internalType":"bytes32"},{"name":"newAdminRole","type":"bytes32","indexed":true,"internalType":"bytes32"}],"anonymous":false},{"type":"event","name":"RoleGranted","inputs":[{"name":"role","type":"bytes32","indexed":true,"internalType":"bytes32"},{"name":"account","type":"address","indexed":true,"internalType":"address"},{"name":"sender","type":"address","indexed":true,"internalType":"address"}],"anonymous":false},{"type":"event","name":"RoleRevoked","inputs":[{"name":"role","type":"bytes32","indexed":true,"internalType":"bytes32"},{"name":"account","type":"address","indexed":true,"internalType":"address"},{"name":"sender","type":"address","indexed":true,"internalType":"address"}],"anonymous":false},{"type":"event","name":"ZKBorrowRequestHandledOnSource","inputs":[{"name":"commitmentHash","type":"bytes32","indexed":true,"internalType":"bytes32"},{"name":"recipientAddress","type":"address","indexed":true,"internalType":"address"},{"name":"borrowToken","type":"address","indexed":false,"internalType":"address"},{"name":"amount","type":"uint256","indexed":false,"internalType":"uint256"}],"anonymous":false},{"type":"event","name":"ZKRepayPendingHandledOnSource","inputs":[{"name":"commitmentHash","type":"bytes32","indexed":true,"internalType":"bytes32"},{"name":"repayer","type":"address","indexed":true,"internalType":"address"},{"name":"borrowToken","type":"address","indexed":false,"internalType":"address"},{"name":"amount","type":"uint256","indexed":false,"internalType":"uint256"}],"anonymous":false},{"type":"error","name":"AccessControlBadConfirmation","inputs":[]},{"type":"error","name":"AccessControlUnauthorizedAccount","inputs":[{"name":"account","type":"address","internalType":"address"},{"name":"neededRole","type":"bytes32","internalType":"bytes32"}]},{"type":"error","name":"ActiveDebt","inputs":[]},{"type":"error","name":"AuthorizationFailed","inputs":[{"name":"commitmentHash","type":"bytes32","internalType":"bytes32"}]},{"type":"error","name":"HealthFactorNotBelowThreshold","inputs":[]},{"type":"error","name":"InsufficientCollateral","inputs":[]},{"type":"error","name":"InvalidRouter","inputs":[{"name":"router","type":"address","internalType":"address"}]},{"type":"error","name":"NoCollateralFound","inputs":[]},{"type":"error","name":"NoDebtToRepay","inputs":[]},{"type":"error","name":"NotEnoughLink","inputs":[{"name":"required","type":"uint256","internalType":"uint256"},{"name":"has","type":"uint256","internalType":"uint256"}]},{"type":"error","name":"OwnableInvalidOwner","inputs":[{"name":"owner","type":"address","internalType":"address"}]},{"type":"error","name":"OwnableUnauthorizedAccount","inputs":[{"name":"account","type":"address","internalType":"address"}]},{"type":"error","name":"PriceFeedNotSet","inputs":[{"name":"token","type":"address","internalType":"address"}]},{"type":"error","name":"PrivacyPoolNotSet","inputs":[]},{"type":"error","name":"RepayMoreThanBorrowed","inputs":[{"name":"depositor","type":"address","internalType":"address"},{"name":"collateralToken","type":"address","internalType":"address"},{"name":"repayAmount","type":"uint256","internalType":"uint256"},{"name":"borrowedAmount","type":"uint256","internalType":"uint256"}]},{"type":"error","name":"RepayMoreThanBorrowedZK","inputs":[{"name":"commitmentHash","type":"bytes32","internalType":"bytes32"},{"name":"borrowToken","type":"address","internalType":"address"},{"name":"repayAmount","type":"uint256","internalType":"uint256"},{"name":"borrowedAmount","type":"uint256","internalType":"uint256"}]},{"type":"error","name":"SafeERC20FailedOperation","inputs":[{"name":"token","type":"address","internalType":"address"}]},{"type":"error","name":"TargetChainNotSet","inputs":[]},{"type":"error","name":"UnsupportedCollateralToken","inputs":[{"name":"token","type":"address","internalType":"address"}]},{"type":"error","name":"ZeroAmount","inputs":[]}],"bytecode":{"object":"0x60e03461015857601f613ea938819003918201601f19168301916001600160401b0383118484101761015c578084926060946040528339810103126101585761004781610170565b90610060604061005960208401610170565b9201610170565b916001600160a01b03811615610145576080523315610132575f8054336001600160a01b0319821681178355916001600160a01b03909116907f8be0079c531659141344cd1fd0a4f28419497f9722a3daafe3b4186f6b6457e09080a36096600c556005600d556100d033610184565b5060c05260a052604051613c7b908161020e8239608051818181610a6901528181610c0d01526135f5015260a0518181816104d4015281816108a001528181611a600152818161206001526124e7015260c05181818161062c01526135bf0152f35b631e4fbdf760e01b5f525f60045260245ffd5b6335fdcccd60e21b5f525f60045260245ffd5b5f80fd5b634e487b7160e01b5f52604160045260245ffd5b51906001600160a01b038216820361015857565b6001600160a01b0381165f9081525f516020613e895f395f51905f52602052604090205460ff16610208576001600160a01b03165f8181525f516020613e895f395f51905f5260205260408120805460ff191660011790553391907f2f8788117e7eff1d82e926ec794901d17c78024a50270940304540a733656f0d8180a4600190565b505f9056fe60806040526004361015610011575f80fd5b5f5f3560e01c80629537241461245357806301ffc9a7146123b2578063042e02cf146123855780630710b6da1461234557806314c8ad2c146122f15780631e273bf4146122a25780632242548014612026578063248a9ca314611ffb57806328842d4f14611f735780632b92a07d14611f165780632f2ff15d14611ed85780632f8b34e114611e7b578063350c35e914611cae57806336568abe14611c5157806336e0378914611c0c5780634031234c14611bef57806358f62ba7146119575780635b6cca8014610acd578063715018a6146118e857806376e11286146118755780637b7c1f4c1461185857806385572ffb14610bd25780638da5cb5b14610bad57806391d1485414610b635780639a54684814610b0e5780639dcb511a14610acd578063a217fddf14610ab3578063aa77250e14610a8d578063b0f479a114610a4a578063b1f1da9b14610848578063c3d229521461080d578063c4f16c48146107b3578063d0b0c81614610729578063d1e6c4f8146106d7578063d547741f14610693578063e3ef40c5146105ae578063f2fde38b146104f8578063f53b6709146104b4578063f8e1dbec14610341578063fb4278bb146102e1578063fc42a8cc146102155763fe6bcd7c146101e7575f80fd5b3461021257602060031936011261021257602061020a610205612729565b612bcf565b604051908152f35b80fd5b50346102125760606003193601126102125761022f612729565b6024359067ffffffffffffffff82168092036102dd576001600160a01b03610255612755565b9161025e613981565b6040519361026b856128b2565b8452816020850193168352168352600260205267ffffffffffffffff604084209251167fffffffff000000000000000000000000000000000000000000000000000000007bffffffffffffffffffffffffffffffffffffffff00000000000000008454935160401b1692161717905580f35b8280fd5b5034610212576040600319360112610212576102fb612729565b6001600160a01b03168152600e60205260408120805460243592908310156102125760206001600160a01b0361033185856127a5565b90549060031b1c16604051908152f35b5034610212576103503661276b565b917fe8be722a2929f870d6ad1b8cec2012fad8e6fbd7c25c24c09a844fe021cb73a284526001602052604084206001600160a01b0333165f5260205260ff60405f20541615610464576001600160a01b0316918284526006602052604084206001600160a01b0383165f526020528060405f20558284526009602052604084206001600160a01b0383165f5260205260ff60405f20541615908161045a575b506103f8578280f35b816104549284526009602052604084206001600160a01b0383165f5260205260405f2060017fffffffffffffffffffffffffffffffffffffffffffffffffffffffffffffff008254161790558352600860205260408320612988565b5f808280f35b905015155f6103ef565b6044847fe2517d3f000000000000000000000000000000000000000000000000000000008152336004527fe8be722a2929f870d6ad1b8cec2012fad8e6fbd7c25c24c09a844fe021cb73a2602452fd5b503461021257806003193601126102125760206040516001600160a01b037f0000000000000000000000000000000000000000000000000000000000000000168152f35b5034610212576020600319360112610212576001600160a01b0361051a612729565b610522613981565b168015610582576001600160a01b038254827fffffffffffffffffffffffff00000000000000000000000000000000000000008216178455167f8be0079c531659141344cd1fd0a4f28419497f9722a3daafe3b4186f6b6457e08380a380f35b6024827f1e4fbdf700000000000000000000000000000000000000000000000000000000815280600452fd5b50346102125760406003193601126102125761061f60206105cd612729565b6105d5613981565b6040517fa9059cbb0000000000000000000000000000000000000000000000000000000081526001600160a01b039091166004820152602480359082015291829081906044820190565b0381856001600160a01b037f0000000000000000000000000000000000000000000000000000000000000000165af180156106885761065c575080f35b61067d9060203d602011610681575b61067581836128ce565b81019061290f565b5080f35b503d61066b565b6040513d84823e3d90fd5b50346102125760406003193601126102125761067d6004356106b361273f565b906106d26106cd825f526001602052600160405f20015490565b6139c0565b613ac1565b503461021257602060031936011261021257604080916001600160a01b036106fd612729565b168152600260205220546001600160a01b0382519167ffffffffffffffff81168352831c166020820152f35b503461021257602060031936011261021257600435610746613981565b606481111561075557600c5580f35b60646040517f08c379a000000000000000000000000000000000000000000000000000000000815260206004820152601760248201527f5468726573686f6c64206d757374206265203e203130300000000000000000006044820152fd5b503461021257602060031936011261021257604090600435815260056020522060016001600160a01b038254169101549061080960405192839283602090939291936001600160a01b0360408201951681520152565b0390f35b503461021257806003193601126102125760206040517fe8be722a2929f870d6ad1b8cec2012fad8e6fbd7c25c24c09a844fe021cb73a28152f35b50346109f25760806003193601126109f257610862612729565b6024356044356064359267ffffffffffffffff84116109f2576108916001600160a01b039436906004016127e7565b94909116936001600160a01b037f0000000000000000000000000000000000000000000000000000000000000000168503610a1e576001600160a01b03601154169182156109f657823b156109f25761092a925f92836040518096819582947fe16f5bd10000000000000000000000000000000000000000000000000000000084528a6004850152608060248501526084840191612b2e565b8a604483015289606483015203925af180156109e7576109d2575b50600160405191610955836128b2565b8483526020830190848252865260056020526001600160a01b038060408820945116167fffffffffffffffffffffffff0000000000000000000000000000000000000000845416178355519101556040519081527ff1c0dd7e9b98bbff859029005ef89b127af049cd18df1a8d79f0b7e019911e5660203392a380f35b6109df9194505f906128ce565b5f925f610945565b6040513d5f823e3d90fd5b5f80fd5b7f6ddd3bc8000000000000000000000000000000000000000000000000000000005f5260045ffd5b847f61bb6fa3000000000000000000000000000000000000000000000000000000005f5260045260245ffd5b346109f2575f6003193601126109f25760206040516001600160a01b037f0000000000000000000000000000000000000000000000000000000000000000168152f35b346109f2575f6003193601126109f25760206001600160a01b0360115416604051908152f35b346109f2575f6003193601126109f25760206040515f8152f35b346109f25760206003193601126109f2576001600160a01b03610aee612729565b165f52600360205260206001600160a01b0360405f205416604051908152f35b346109f25760406003193601126109f257610b27612729565b6001600160a01b0360243591165f52601060205260405f2080548210156109f257602091610b54916127a5565b90549060031b1c604051908152f35b346109f25760406003193601126109f257610b7c61273f565b6004355f5260016020526001600160a01b0360405f2091165f52602052602060ff60405f2054166040519015158152f35b346109f2575f6003193601126109f25760206001600160a01b035f5416604051908152f35b346109f25760206003193601126109f25760043567ffffffffffffffff81116109f25760a060031982360301126109f2576001600160a01b037f000000000000000000000000000000000000000000000000000000000000000016330361182c57604051610c3f81612896565b81600401358152602482013567ffffffffffffffff811681036109f2576020820152604482013567ffffffffffffffff81116109f257610c859060043691850101612bb1565b6040820152606482013567ffffffffffffffff81116109f257610cae9060043691850101612bb1565b916060820192835260848101359067ffffffffffffffff82116109f2570190366023830112156109f257600482013567ffffffffffffffff81116117ff5760208160051b0192610d0160405194856128ce565b818452602060048186019360061b83010101903682116109f257602401915b8183106117ba575050506080015251805181019060208201906020818403126109f257602081015167ffffffffffffffff81116109f25701916101a090839003126109f25760405191610d7283612879565b610d7e60208201613b64565b8352610d8c60408201613b64565b9160208401928352610da060608301613b64565b90604085019182526080830151926060860193845260a08101519260078410156109f2576080870193845260c082015160a088015260e08201519460c088019586526101008301519067ffffffffffffffff821682036109f25760e08901918252610120840151906101008a01918252610e1d6101408601613b64565b6101208b01908152610160860151956101408c0196875261018081015167ffffffffffffffff81116109f2576020908201019088601f830112156109f2578151610e66816129c8565b99610e746040519b8c6128ce565b818b52602082850101116109f2576020815f928c83806101a0980191015e8b0101526101608d019889520151976101808c019889528051600781101561178d576002036112c457506001600160a01b0360115416156109f657610ed5613be5565b508251156110cb579489989461106098946001600160a01b0398948467ffffffffffffffff6110659f966110349f9b8d8080939281935188515f52600760205260405f2083808d5116165f52602052610f3360405f20918254612815565b905587515f52600b60205260405f2082808c5116165f5260205260ff60405f20541615611067575b8751828d5116907f358b770707dd3db401c75e09ed63dbdffad92a66c51d1bfb1bf0d1259322ec96848d51168a5190610faf60405192839283602090939291936001600160a01b0360408201951681520152565b0390a351169951169c5116955116915192519551975198519951935116936040519a610fda8c612879565b8b5260208b015260408a01526060890152600360808901524660a089015260c088015260e0870152610100860152610120850152610140840152610160830152610180820152925b51169160405193849160208301612a45565b037fffffffffffffffffffffffffffffffffffffffffffffffffffffffffffffffe081018452836128ce565b6138b0565b005b87515f52600b60205260405f2082808c5116165f5260205260405f2060017fffffffffffffffffffffffffffffffffffffffffffffffffffffffffffffff0082541617905587515f52600a6020526110c660405f20838c511690612988565b610f5b565b9550935050935094936001600160a01b038351165f52600460205260405f206001600160a01b0380875116165f5260205260405f20541561129c576110659661103496611060956001600160a01b038080978751828251165f52600660205260405f208380885116165f5260205261114860405f20918254612815565b9055818151165f52600960205260405f208280875116165f5260205260ff60405f20541615611234575b81815116828c5116907f6a8f7293d42c7555920562b61795bb8331776fbee4b384ce2430e393b3408b1960208b51604051908152a351169351169486808a511693511690519067ffffffffffffffff604051966111d06020896128ce565b5f88525193511693604051976111e589612879565b8852602088015260408701526060860152600360808601524660a086015260c085015260e08401525f6101008401526101208301525f6101408301526101608201525f61018082015292611022565b818151165f52600960205260405f208280875116165f5260205260405f2060017fffffffffffffffffffffffffffffffffffffffffffffffffffffffffffffff00825416179055818151165f52600860205261129760405f208387511690612988565b611172565b7f0daf4b9d000000000000000000000000000000000000000000000000000000005f5260045ffd5b9299975095509893508096929651600781101561178d576004036114965750508551159150611369905057505081515f526005602052600160405f2001541561129c577f445e496415f260df44cab7e7d30727e66281611cfad66170ed4a6d7802d648d09160209184519082515f52600784526001600160a01b038060405f20925116165f52835261135b60405f20918254612815565b9055519251604051908152a2005b919092506001600160a01b038251165f52600460205260405f206001600160a01b0380855116165f5260205260405f20541561129c576001600160a01b03807f6a8f7293d42c7555920562b61795bb8331776fbee4b384ce2430e393b3408b19936020938751838351165f526006865260405f208480845116165f5286526113f660405f20918254612815565b9055828251165f526009855260405f208380835116165f52855260ff60405f2054161561142f575b5051169351169351604051908152a3005b61149090838351165f526009865260405f208480835116165f52865260405f2060017fffffffffffffffffffffffffffffffffffffffffffffffffffffffffffffff00825416179055838351165f52600886528360405f2091511690612988565b8761141e565b979293969795949551600781101561178d576005146114b157005b6114b9613be5565b8851909790156115ed5750505085515f52600760205260405f206001600160a01b0380855116165f5260205260405f2054815180821061159e57505092611060926001600160a01b03927ff3d35987a9aa0941f07b8cd6ce4c979e32ec151deafdea61a47ce10d8defb54d8685806110659b6110349b9a5181515f52600760205260405f2083808a5116165f5260205261155860405f2091825461286c565b90555194511694511690519061158960405192839283602090939291936001600160a01b0360408201951681520152565b0390a351169160405193849160208301612a45565b60849185916001600160a01b038a51935116604051937fd552f8ce0000000000000000000000000000000000000000000000000000000085526004850152602484015260448301526064820152fd5b80929698506001600160a01b039193975094939451165f52600660205260405f206001600160a01b0380855116165f5260205260405f205486519081811061173a57505093611060936001600160a01b0393879385806110659b996110349b51828251165f52600660205260405f208380885116165f5260205261167660405f2091825461286c565b905581815116828c5116907f59ff17a9c08e82939cf36b75c638ba9034c78c0ff0bb6801b8d36f520c3a093760208b51604051908152a351169351169486808a511693511690519067ffffffffffffffff604051966116d66020896128ce565b5f88525193511693604051976116eb89612879565b8852602088015260408701526060860152600660808601524660a086015260c085015260e08401525f6101008401526101208301525f6101408301526101608201525f61018082015292611022565b825185516040517f0c5d7e480000000000000000000000000000000000000000000000000000000081526001600160a01b0392831660048201529116602482015260448101929092526064820152608490fd5b7f4e487b71000000000000000000000000000000000000000000000000000000005f52602160045260245ffd5b6040833603126109f257604051906117d1826128b2565b8335906001600160a01b03821682036109f25782602092604094528286013583820152815201920191610d20565b7f4e487b71000000000000000000000000000000000000000000000000000000005f52604160045260245ffd5b7fd7f73334000000000000000000000000000000000000000000000000000000005f523360045260245ffd5b346109f2575f6003193601126109f2576020600d54604051908152f35b346109f25760406003193601126109f25761188e612729565b6001600160a01b0361189e61273f565b916118a7613981565b165f5260036020526001600160a01b0360405f2091167fffffffffffffffffffffffff00000000000000000000000000000000000000008254161790555f80f35b346109f2575f6003193601126109f257611900613981565b5f6001600160a01b0381547fffffffffffffffffffffffff000000000000000000000000000000000000000081168355167f8be0079c531659141344cd1fd0a4f28419497f9722a3daafe3b4186f6b6457e08280a3005b346109f25760e06003193601126109f257602435600435611976612755565b9060643592608435916001600160a01b0383168093036109f25760a4359167ffffffffffffffff83168093036109f25760c43567ffffffffffffffff81116109f2576119c69036906004016127e7565b9290936001600160a01b0360208160115416986040519283917f759353cd00000000000000000000000000000000000000000000000000000000835286600484015287602484015216998a60448301528b60648301528960848301528460a483015260e060c4830152815f81611a418c8c60e4840191612b2e565b03925af19081156109e7575f91611bd0575b5015611ba45760049596977f00000000000000000000000000000000000000000000000000000000000000009760206001600160a01b0360115416604051998a80927f5ca1e1650000000000000000000000000000000000000000000000000000000082525afa9788156109e7575f98611b58575b6110656110348b611b538e8d611b388e8e8e8e8e8e8e60405199611aeb8b612879565b8a526001600160a01b038c1660208b015260408a01526060890152600260808901524660a08901525f60c089015260e0880152610100870152336101208701526101408601523691612b7b565b61016083015261018082015260405193849160208301612a45565b6134cc565b939995919692989750936020843d602011611b9c575b81611b7b602093836128ce565b810103126109f2579251949896979496919590949293919291611b38611ac8565b3d9150611b6e565b507fa4bc6972000000000000000000000000000000000000000000000000000000005f5260045260245ffd5b611be9915060203d6020116106815761067581836128ce565b89611a53565b346109f2575f6003193601126109f2576020600c54604051908152f35b346109f25760406003193601126109f257611c2561273f565b6004355f5260076020526001600160a01b0360405f2091165f52602052602060405f2054604051908152f35b346109f25760406003193601126109f257611c6a61273f565b336001600160a01b03821603611c865761106590600435613ac1565b7f6697b232000000000000000000000000000000000000000000000000000000005f5260045ffd5b346109f25760406003193601126109f257611cc7612729565b602435335f52600460205260405f206001600160a01b0383165f5260205260405f2090815492818410611e5357335f52600860205260405f2092604051808560208297549384815201905f5260205f20925f5b818110611e31575050611d2f925003856128ce565b5f5b8451811015611d9a57335f52600660205260405f206001600160a01b0380611d598489612b1a565b5116165f5260205260405f2054611d7257600101611d31565b7f4baa02be000000000000000000000000000000000000000000000000000000005f5260045ffd5b50906001600160a01b0391611daf848761286c565b90556040517fa9059cbb0000000000000000000000000000000000000000000000000000000060208201523360248201526044808201859052815291169190611e0390611dfd6064826128ce565b83613b78565b6040519081527f45892a46e6cef329bb642da6d69846d324db43d19008edc141ed82382eda1bee60203392a3005b84546001600160a01b0316835260019485019489945060209093019201611d1a565b7f3a23d825000000000000000000000000000000000000000000000000000000005f5260045ffd5b346109f25760206003193601126109f2576001600160a01b03611e9c612729565b611ea4613981565b1680156109f6577fffffffffffffffffffffffff000000000000000000000000000000000000000060115416176011555f80f35b346109f25760406003193601126109f257611065600435611ef761273f565b90611f116106cd825f526001602052600160405f20015490565b613a1a565b346109f25760406003193601126109f257611f2f612729565b6001600160a01b03611f3f61273f565b91165f5260046020526001600160a01b0360405f2091165f526020526040805f206001815491015482519182526020820152f35b346109f25760206003193601126109f257600435611f8f613981565b6064811015611f9d57600d55005b60646040517f08c379a000000000000000000000000000000000000000000000000000000000815260206004820152601360248201527f426f6e7573206d757374206265203c20313030000000000000000000000000006044820152fd5b346109f25760206003193601126109f257602061020a6004355f526001602052600160405f20015490565b346109f25760606003193601126109f25761203f612729565b60243561204a612755565b916001600160a01b038116916001600160a01b037f000000000000000000000000000000000000000000000000000000000000000016830361227657801561224e57825f5260026020526001600160a01b0360405f205460401c1615612226576110659361103493826120c2611b5394303385612f51565b335f52600460205260405f20825f5260205260405f206120e3828254612815565b9055335f52600f60205260405f20825f5260205260ff60405f205416156121cd575b816040518281527ff1c0dd7e9b98bbff859029005ef89b127af049cd18df1a8d79f0b7e019911e5660203392a3815f52600260205267ffffffffffffffff60405f20541690604051926121596020856128ce565b5f84526001600160a01b036040519561217187612879565b16855260208501525f60408501526060840152600160808401524660a08401525f60c084015260e08301525f610100830152336101208301525f6101408301526101608201525f61018082015260405193849160208301612a45565b335f52600f60205260405f20825f5260205260405f2060017fffffffffffffffffffffffffffffffffffffffffffffffffffffffffffffff00825416179055335f52600e6020526122218560405f20612988565b612105565b7fd28036b9000000000000000000000000000000000000000000000000000000005f5260045ffd5b7f1f2a2005000000000000000000000000000000000000000000000000000000005f5260045ffd5b827f61bb6fa3000000000000000000000000000000000000000000000000000000005f5260045260245ffd5b346109f25760406003193601126109f2576122bb612729565b6001600160a01b0360243591165f52600860205260405f209081548110156109f2576103316001600160a01b03916020936127a5565b346109f25760406003193601126109f25761230a612729565b6001600160a01b0361231a61273f565b91165f5260066020526001600160a01b0360405f2091165f52602052602060405f2054604051908152f35b346109f25760406003193601126109f2576024356004355f52600a60205260405f209081548110156109f2576103316001600160a01b03916020936127a5565b346109f25760206003193601126109f25760206123a86123a3612729565b612927565b6040519015158152f35b346109f25760206003193601126109f2576004357fffffffff0000000000000000000000000000000000000000000000000000000081168091036109f257807f7965db0b0000000000000000000000000000000000000000000000000000000060209214908115612429575b506040519015158152f35b7f01ffc9a7000000000000000000000000000000000000000000000000000000009150148261241e565b346109f2576124613661276b565b9061246b83612927565b15612701576001600160a01b03831692835f52600660205260405f206001600160a01b0383165f5260205260405f205480156126d9578084116126895750506124bf8230336001600160a01b038516612f51565b6124c982826131d9565b600d54606401908160641161265c576064916124e491612822565b047f000000000000000000000000000000000000000000000000000000000000000092845f52600460205260405f206001600160a01b0385165f5260205260405f209161253085612fe2565b670de0b6b3a7640000820291808304670de0b6b3a7640000149015171561265c5761255a91612835565b9283835410611e5357855f5260066020526001600160a01b0360405f2091165f5260205261258d60405f2091825461286c565b905561259a82825461286c565b90556040517fa9059cbb00000000000000000000000000000000000000000000000000000000815233600482015260248101829052906020826044815f6001600160a01b0388165af19081156109e7577f76f1c54646947e8e8df3eab8141bb3d115d07da2520f8e41b208a17d138a89599261263a9261263f575b50604051918291339583602090939291936001600160a01b0360408201951681520152565b0390a3005b6126579060203d6020116106815761067581836128ce565b612615565b7f4e487b71000000000000000000000000000000000000000000000000000000005f52601160045260245ffd5b6040517f0c5d7e480000000000000000000000000000000000000000000000000000000081526001600160a01b039283166004820152929091166024830152604482018390526064820152608490fd5b7f54641f00000000000000000000000000000000000000000000000000000000005f5260045ffd5b7f930bb771000000000000000000000000000000000000000000000000000000005f5260045ffd5b600435906001600160a01b03821682036109f257565b602435906001600160a01b03821682036109f257565b604435906001600160a01b03821682036109f257565b60031960609101126109f2576004356001600160a01b03811681036109f257906024356001600160a01b03811681036109f2579060443590565b80548210156127ba575f5260205f2001905f90565b7f4e487b71000000000000000000000000000000000000000000000000000000005f52603260045260245ffd5b9181601f840112156109f25782359167ffffffffffffffff83116109f257602083818601950101116109f257565b9190820180921161265c57565b8181029291811591840414171561265c57565b811561283f570490565b7f4e487b71000000000000000000000000000000000000000000000000000000005f52601260045260245ffd5b9190820391821161265c57565b6101a0810190811067ffffffffffffffff8211176117ff57604052565b60a0810190811067ffffffffffffffff8211176117ff57604052565b6040810190811067ffffffffffffffff8211176117ff57604052565b90601f7fffffffffffffffffffffffffffffffffffffffffffffffffffffffffffffffe0910116810190811067ffffffffffffffff8211176117ff57604052565b908160209103126109f2575180151581036109f25790565b61293090612bcf565b7fffffffffffffffffffffffffffffffffffffffffffffffffffffffffffffffff811461298357600c54670de0b6b3a7640000810290808204670de0b6b3a7640000149015171561265c57606490041190565b505f90565b8054680100000000000000008110156117ff576129aa916001820181556127a5565b6001600160a01b0380839493549260031b9316831b921b1916179055565b67ffffffffffffffff81116117ff57601f017fffffffffffffffffffffffffffffffffffffffffffffffffffffffffffffffe01660200190565b907fffffffffffffffffffffffffffffffffffffffffffffffffffffffffffffffe0601f602080948051918291828752018686015e5f8582860101520116010190565b602081526001600160a01b0382511660208201526001600160a01b0360208301511660408201526001600160a01b036040830151166060820152606082015160808201526080820151600781101561178d5760a082015260a082015160c082015260c082015160e082015267ffffffffffffffff60e0830151166101008201526101008201516101208201526001600160a01b03610120830151166101408201526101408201516101608201526101a0610180612b1161016085015183838601526101c0850190612a02565b93015191015290565b80518210156127ba5760209160051b010190565b601f82602094937fffffffffffffffffffffffffffffffffffffffffffffffffffffffffffffffe093818652868601375f8582860101520116010190565b908160209103126109f2575190565b929192612b87826129c8565b91612b9560405193846128ce565b8294818452818301116109f2578281602093845f960137010152565b9080601f830112156109f257816020612bcc93359101612b7b565b90565b905f6001600160a01b035f931690815f52600e60205260405f2093604051808660208298549384815201905f5260205f20925f5b818110612f2f575050612c18925003866128ce565b5f5b8551811015612c87576001600160a01b03612c358288612b1a565b5116845f52600460205260405f206001600160a01b0382165f5260205260405f20549081612c68575b5050600101612c1a565b93612c79612c7f92600194966131d9565b90612815565b92905f612c5e565b50935091815f52600860205260405f2090604051808360208295549384815201905f5260205f20925f5b818110612f0d575050612cc6925003836128ce565b5f5b8251811015612d2f576001600160a01b03612ce38285612b1a565b5116845f52600660205260405f206001600160a01b0382165f5260205260405f20549081612d16575b5050600101612cc8565b96612c79612d2792600194996131d9565b95905f612d0c565b50929190505f52601060205260405f2092604051808560208297549384815201905f5260205f20925f5b818110612ef4575050612d6e925003856128ce565b5f925b8451841015612e9957612d848486612b1a565b5192835f52600560205260405f2060018101549081612e7a575b5050835f52600a60205260405f2091604051808460208296549384815201905f5260205f20925f905b808210612e55575050612ddc925003846128ce565b5f5b8351811015612e45576001600160a01b03612df98286612b1a565b5116865f52600760205260405f206001600160a01b0382165f5260205260405f20549081612e2c575b5050600101612dde565b95612c79612e3d92600194986131d9565b94905f612e22565b5094909350600191500192612d71565b916001919350602082916001600160a01b038754168152019401920186929391612dc7565b612e9292916001600160a01b03612c799254166131d9565b5f80612d9e565b93509091508015612ece57670de0b6b3a7640000820291808304670de0b6b3a7640000149015171561265c57612bcc91612835565b50507fffffffffffffffffffffffffffffffffffffffffffffffffffffffffffffffff90565b8454835260019485019489945060209093019201612d59565b84546001600160a01b0316835260019485019487945060209093019201612cb1565b84546001600160a01b031683526001948501948a945060209093019201612c03565b9091926001600160a01b03612fb09481604051957f23b872dd000000000000000000000000000000000000000000000000000000006020880152166024860152166044840152606483015260648252612fab6084836128ce565b613b78565b565b519069ffffffffffffffffffff821682036109f257565b908160209103126109f2575160ff811681036109f25790565b6001600160a01b0316805f5260036020526001600160a01b0360405f20541680156131d3576040517ffeaf968c00000000000000000000000000000000000000000000000000000000815260a081600481855afa5f9181613184575b5061304a575050505f90565b602060049192604051928380927f313ce5670000000000000000000000000000000000000000000000000000000082525afa5f9181613163575b50613090575050505f90565b5f82131561315c576020600493604051948580927f313ce5670000000000000000000000000000000000000000000000000000000082525afa9283156109e7575f9361312b575b50670de0b6b3a7640000828102929083040361265c5760ff166012036012811161265c57604d811161265c5760ff9161311391600a0a90612822565b911690604d821161265c57612bcc91600a0a90612835565b61314e91935060203d602011613155575b61314681836128ce565b810190612fc9565b915f6130d7565b503d61313c565b5050505f90565b61317d91925060203d6020116131555761314681836128ce565b905f613084565b90915060a0813d60a0116131cb575b816131a060a093836128ce565b810103126109f2576131b181612fb2565b506131c3608060208301519201612fb2565b50905f61303e565b3d9150613193565b50505f90565b6001600160a01b031690815f5260036020526001600160a01b0360405f205416801561315c576040517ffeaf968c00000000000000000000000000000000000000000000000000000000815260a081600481855afa5f9181613357575b5061324357505050505f90565b602060049192604051928380927f313ce5670000000000000000000000000000000000000000000000000000000082525afa5f9181613336575b5061328a57505050505f90565b915f82131561332e576020600494604051958680927f313ce5670000000000000000000000000000000000000000000000000000000082525afa9384156109e7575f94613304575b5060ff916132df91612822565b91166012036012811161265c57604d811161265c5760ff9161311391600a0a90612822565b6132df9194509161332560ff9360203d6020116131555761314681836128ce565b949150916132d2565b505050505f90565b61335091925060203d6020116131555761314681836128ce565b905f61327d565b90915060a0813d60a01161339e575b8161337360a093836128ce565b810103126109f25761338481612fb2565b50613396608060208301519201612fb2565b50905f613236565b3d9150613366565b9067ffffffffffffffff909392931681526040602082015261340b6133d7845160a0604085015260e0840190612a02565b60208501517fffffffffffffffffffffffffffffffffffffffffffffffffffffffffffffffc0848303016060850152612a02565b906040840151917fffffffffffffffffffffffffffffffffffffffffffffffffffffffffffffffc0828203016080830152602080845192838152019301905f5b8181106134a1575050506080846001600160a01b036060612bcc969701511660a084015201519060c07fffffffffffffffffffffffffffffffffffffffffffffffffffffffffffffffc082850301910152612a02565b825180516001600160a01b03168652602090810151818701526040909501949092019160010161344b565b6001600160a01b0390929192165f52600260205260405f206001600160a01b03604051916134f9836128b2565b5467ffffffffffffffff8116835260401c16908160208201526040519160208301526020825261352a6040836128ce565b60209160405161353a84826128ce565b5f81526040519561354a876128b2565b62030d40875284870160018152604051977f181dcf1000000000000000000000000000000000000000000000000000000000878a015251602489015251151560448801526044875261359d6064886128ce565b604051926135aa84612896565b83528483015260408201526001600160a01b037f0000000000000000000000000000000000000000000000000000000000000000169485606083015260808201526001600160a01b037f00000000000000000000000000000000000000000000000000000000000000001661365a848367ffffffffffffffff86511660405193849283927f20487ded000000000000000000000000000000000000000000000000000000008452600484016133a6565b0381855afa9081156109e7575f91613883575b506040517f70a0823100000000000000000000000000000000000000000000000000000000815230600482015285816024818b5afa9081156109e7575f91613856575b5081116137b1576040517f095ea7b30000000000000000000000000000000000000000000000000000000081526001600160a01b038316600482015260248101919091529495939492938590849060449082905f905af180156109e75761375b94869467ffffffffffffffff92613796575b5051165f6040518096819582947f96f4e9f9000000000000000000000000000000000000000000000000000000008452600484016133a6565b03925af180156109e75761376d575050565b8161378c92903d1061378f575b61378481836128ce565b810190612b6c565b50565b503d61377a565b6137ac90863d88116106815761067581836128ce565b613722565b6040517f70a0823100000000000000000000000000000000000000000000000000000000815230600482015285919082816024818c5afa9283156109e7575f93613826575b50507f449a2987000000000000000000000000000000000000000000000000000000005f5260045260245260445ffd5b9080929350813d831161384f575b61383e81836128ce565b810103126109f257519082806137f6565b503d613834565b90508581813d831161387c575b61386d81836128ce565b810103126109f257515f6136b0565b503d613863565b90508481813d83116138a9575b61389a81836128ce565b810103126109f257515f61366d565b503d613890565b6001600160a01b0390929192165f52600260205260405f206001600160a01b03604051916138dd836128b2565b5467ffffffffffffffff8116835260401c16908160208201526040519160208301526020825261390e6040836128ce565b60209160405161391e84826128ce565b5f81526040519561392e876128b2565b620186a0875284870160018152604051977f181dcf1000000000000000000000000000000000000000000000000000000000878a015251602489015251151560448801526044875261359d6064886128ce565b6001600160a01b035f5416330361399457565b7f118cdaa7000000000000000000000000000000000000000000000000000000005f523360045260245ffd5b805f52600160205260405f206001600160a01b0333165f5260205260ff60405f205416156139eb5750565b7fe2517d3f000000000000000000000000000000000000000000000000000000005f523360045260245260445ffd5b805f52600160205260405f206001600160a01b0383165f5260205260ff60405f205416155f146131d357805f52600160205260405f206001600160a01b0383165f5260205260405f2060017fffffffffffffffffffffffffffffffffffffffffffffffffffffffffffffff008254161790556001600160a01b03339216907f2f8788117e7eff1d82e926ec794901d17c78024a50270940304540a733656f0d5f80a4600190565b805f52600160205260405f206001600160a01b0383165f5260205260ff60405f2054165f146131d357805f52600160205260405f206001600160a01b0383165f5260205260405f207fffffffffffffffffffffffffffffffffffffffffffffffffffffffffffffff0081541690556001600160a01b03339216907ff6391f5c32d9c69d2a47ea670b442974b53935d1edc7fd64eb21e047a839171b5f80a4600190565b51906001600160a01b03821682036109f257565b905f602091828151910182855af1156109e7575f513d613bdc57506001600160a01b0381163b155b613ba75750565b6001600160a01b03907f5274afe7000000000000000000000000000000000000000000000000000000005f521660045260245ffd5b60011415613ba0565b60405190613bf282612879565b5f610180838281528260208201528260408201528260608201528260808201528260a08201528260c08201528260e08201528261010082015282610120820152826101408201526060610160820152015256fea2646970667358221220da4a1905b4f90c569539497c52498ed76b3094ebd881feeaa7298884fa00429364736f6c634300081e0033a6eef7e35abe7026729641147f7915573c7e97b47efa546f5f6e3230263bcb49","linkReferences":{}},"methodIdentifiers":{"COLL_WETH()":"f53b6709","DEBT_ISSUER_ROLE()":"c3d22952","DEFAULT_ADMIN_ROLE()":"a217fddf","ccipReceive((bytes32,uint64,bytes,bytes,(address,uint256)[]))":"85572ffb","commitmentBorrowedTokens(bytes32,uint256)":"0710b6da","depositCollateral(address,uint256,address)":"22425480","depositPrivateCollateral(address,uint256,bytes32,bytes)":"b1f1da9b","getHealthFactor(address)":"fe6bcd7c","getPriceFeed(address)":"5b6cca80","getRoleAdmin(bytes32)":"248a9ca3","getRouter()":"b0f479a1","grantRole(bytes32,address)":"2f2ff15d","hasRole(bytes32,address)":"91d14854","initiatePrivateBorrow(bytes32,bytes32,address,uint256,address,uint64,bytes)":"58f62ba7","isLiquidatable(address)":"042e02cf","issueDebtForTest(address,address,uint256)":"f8e1dbec","liquidateCollateral(address,address,uint256)":"00953724","liquidationBonus()":"7b7c1f4c","liquidationThreshold()":"4031234c","owner()":"8da5cb5b","priceFeeds(address)":"9dcb511a","privacyPool()":"aa77250e","privateDebt(bytes32,address)":"36e03789","privateDeposits(bytes32)":"c4f16c48","renounceOwnership()":"715018a6","renounceRole(bytes32,address)":"36568abe","revokeRole(bytes32,address)":"d547741f","setLiquidationBonus(uint256)":"28842d4f","setLiquidationThreshold(uint256)":"d0b0c816","setPriceFeed(address,address)":"76e11286","setPrivacyPool(address)":"2f8b34e1","setTargetChainParams(address,uint64,address)":"fc42a8cc","supportsInterface(bytes4)":"01ffc9a7","targetChainParams(address)":"d1e6c4f8","transferLinkToken(address,uint256)":"e3ef40c5","transferOwnership(address)":"f2fde38b","userBorrowedTokens(address,uint256)":"1e273bf4","userCollateral(address,address)":"2b92a07d","userCommitments(address,uint256)":"9a546848","userDebt(address,address)":"14c8ad2c","userDepositedCollaterals(address,uint256)":"fb4278bb","withdrawCollateral(address,uint256)":"350c35e9"},"id":60}