{"contracts/FunctionsTrigger.sol":{"FunctionsTrigger":{"abi":[{"inputs":[{"internalType":"address","name":"_router","type":"address"},{"internalType":"bytes32","name":"_donId","type":"bytes32"},{"internalType":"uint64","name":"_subscriptionId","type":"uint64"},{"internalType":"uint32","name":"_gasLimit","type":"uint32"}],"stateMutability":"nonpayable","type":"constructor"},{"inputs":[],"name":"EmptyArgs","type":"error"},{"inputs":[],"name":"EmptySource","type":"error"},{"inputs":[],"name":"NoInlineSecrets","type":"error"},{"inputs":[],"name":"OnlyRouterCanFulfill","type":"error"},{"anonymous":false,"inputs":[{"indexed":true,"internalType":"address","name":"user","type":"address"}],"name":"LiquidationCandidateFound","type":"event"},{"anonymous":false,"inputs":[{"indexed":true,"internalType":"address","name":"from","type":"address"},{"indexed":true,"internalType":"address","name":"to","type":"address"}],"name":"OwnershipTransferRequested","type":"event"},{"anonymous":false,"inputs":[{"indexed":true,"internalType":"address","name":"from","type":"address"},{"indexed":true,"internalType":"address","name":"to","type":"address"}],"name":"OwnershipTransferred","type":"event"},{"anonymous":false,"inputs":[{"indexed":true,"internalType":"bytes32","name":"id","type":"bytes32"}],"name":"RequestFulfilled","type":"event"},{"anonymous":false,"inputs":[{"indexed":true,"internalType":"bytes32","name":"id","type":"bytes32"}],"name":"RequestSent","type":"event"},{"anonymous":false,"inputs":[{"indexed":true,"internalType":"bytes32","name":"requestId","type":"bytes32"}],"name":"RequestTriggered","type":"event"},{"anonymous":false,"inputs":[],"name":"UpkeepCheckStarted","type":"event"},{"inputs":[],"name":"acceptOwnership","outputs":[],"stateMutability":"nonpayable","type":"function"},{"inputs":[{"internalType":"bytes","name":"","type":"bytes"}],"name":"checkUpkeep","outputs":[{"internalType":"bool","name":"upkeepNeeded","type":"bool"},{"internalType":"bytes","name":"performData","type":"bytes"}],"stateMutability":"view","type":"function"},{"inputs":[{"internalType":"bytes32","name":"requestId","type":"bytes32"},{"internalType":"bytes","name":"response","type":"bytes"},{"internalType":"bytes","name":"err","type":"bytes"}],"name":"handleOracleFulfillment","outputs":[],"stateMutability":"nonpayable","type":"function"},{"inputs":[],"name":"owner","outputs":[{"internalType":"address","name":"","type":"address"}],"stateMutability":"view","type":"function"},{"inputs":[{"internalType":"bytes","name":"","type":"bytes"}],"name":"performUpkeep","outputs":[],"stateMutability":"nonpayable","type":"function"},{"inputs":[],"name":"s_borrowers","outputs":[{"internalType":"string","name":"","type":"string"}],"stateMutability":"view","type":"function"},{"inputs":[],"name":"s_contractAddress","outputs":[{"internalType":"string","name":"","type":"string"}],"stateMutability":"view","type":"function"},{"inputs":[],"name":"s_lastError","outputs":[{"internalType":"bytes","name":"","type":"bytes"}],"stateMutability":"view","type":"function"},{"inputs":[],"name":"s_lastRequestId","outputs":[{"internalType":"bytes32","name":"","type":"bytes32"}],"stateMutability":"view","type":"function"},{"inputs":[],"name":"s_lastResponse","outputs":[{"internalType":"bytes","name":"","type":"bytes"}],"stateMutability":"view","type":"function"},{"inputs":[],"name":"s_rpcUrl","outputs":[{"internalType":"string","name":"","type":"string"}],"stateMutability":"view","type":"function"},{"inputs":[{"internalType":"string","name":"rpcUrl","type":"string"},{"internalType":"string","name":"contractAddress","type":"string"},{"internalType":"string","name":"borrowers","type":"string"}],"name":"setConfig","outputs":[],"stateMutability":"nonpayable","type":"function"},{"inputs":[{"internalType":"address","name":"to","type":"address"}],"name":"transferOwnership","outputs":[],"stateMutability":"nonpayable","type":"function"},{"inputs":[{"internalType":"string","name":"source","type":"string"},{"internalType":"string[]","name":"args","type":"string[]"}],"name":"triggerCheck","outputs":[{"internalType":"bytes32","name":"requestId","type":"bytes32"}],"stateMutability":"nonpayable","type":"function"}],"evm":{"bytecode":{"linkReferences":{},"object":"60a06040523480156200001157600080fd5b5060405162003c0838038062003c08833981810160405281019062000037919062000422565b33806000868073ffffffffffffffffffffffffffffffffffffffff1660808173ffffffffffffffffffffffffffffffffffffffff168152505050600073ffffffffffffffffffffffffffffffffffffffff168273ffffffffffffffffffffffffffffffffffffffff1603620000e3576040517f08c379a0000000000000000000000000000000000000000000000000000000008152600401620000da90620004f5565b60405180910390fd5b816000806101000a81548173ffffffffffffffffffffffffffffffffffffffff021916908373ffffffffffffffffffffffffffffffffffffffff160217905550600073ffffffffffffffffffffffffffffffffffffffff168173ffffffffffffffffffffffffffffffffffffffff16146200016a576200016981620001c860201b60201c565b5b5050508260088190555081600960006101000a81548167ffffffffffffffff021916908367ffffffffffffffff16021790555080600960086101000a81548163ffffffff021916908363ffffffff1602179055505050505062000589565b3373ffffffffffffffffffffffffffffffffffffffff168173ffffffffffffffffffffffffffffffffffffffff160362000239576040517f08c379a0000000000000000000000000000000000000000000000000000000008152600401620002309062000567565b60405180910390fd5b80600160006101000a81548173ffffffffffffffffffffffffffffffffffffffff021916908373ffffffffffffffffffffffffffffffffffffffff1602179055508073ffffffffffffffffffffffffffffffffffffffff1660008054906101000a900473ffffffffffffffffffffffffffffffffffffffff1673ffffffffffffffffffffffffffffffffffffffff167fed8889f560326eb138920d842192f0eb3dd22b4f139c87a2c57538e05bae127860405160405180910390a350565b600080fd5b600073ffffffffffffffffffffffffffffffffffffffff82169050919050565b60006200032982620002fc565b9050919050565b6200033b816200031c565b81146200034757600080fd5b50565b6000815190506200035b8162000330565b92915050565b6000819050919050565b620003768162000361565b81146200038257600080fd5b50565b60008151905062000396816200036b565b92915050565b600067ffffffffffffffff82169050919050565b620003bb816200039c565b8114620003c757600080fd5b50565b600081519050620003db81620003b0565b92915050565b600063ffffffff82169050919050565b620003fc81620003e1565b81146200040857600080fd5b50565b6000815190506200041c81620003f1565b92915050565b600080600080608085870312156200043f576200043e620002f7565b5b60006200044f878288016200034a565b9450506020620004628782880162000385565b93505060406200047587828801620003ca565b925050606062000488878288016200040b565b91505092959194509250565b600082825260208201905092915050565b7f43616e6e6f7420736574206f776e657220746f207a65726f0000000000000000600082015250565b6000620004dd60188362000494565b9150620004ea82620004a5565b602082019050919050565b600060208201905081810360008301526200051081620004ce565b9050919050565b7f43616e6e6f74207472616e7366657220746f2073656c66000000000000000000600082015250565b60006200054f60178362000494565b91506200055c8262000517565b602082019050919050565b60006020820190508181036000830152620005828162000540565b9050919050565b60805161365c620005ac6000396000818161029e0152611273015261365c6000f3fe608060405234801561001057600080fd5b50600436106100ea5760003560e01c806377dc35131161008c5780639dada6e2116100665780639dada6e214610226578063b1e2174914610244578063dd3bd96014610262578063f2fde38b14610280576100ea565b806377dc3513146101e057806379ba5097146101fe5780638da5cb5b14610208576100ea565b80634b0795a8116100c85780634b0795a81461014557806355bb3c49146101635780636420bb091461017f5780636e04ff0d146101af576100ea565b80630ca76175146100ef5780633944ea3a1461010b5780634585e33b14610129575b600080fd5b61010960048036038101906101049190611cde565b61029c565b005b61011361035e565b6040516101209190611de8565b60405180910390f35b610143600480360381019061013e9190611e6a565b6103ec565b005b61014d6106eb565b60405161015a9190611de8565b60405180910390f35b61017d60048036038101906101789190611f58565b610779565b005b610199600480360381019061019491906120ab565b6107b6565b6040516101a6919061213b565b60405180910390f35b6101c960048036038101906101c49190611e6a565b610905565b6040516101d7929190612171565b60405180910390f35b6101e8610934565b6040516101f591906121f6565b60405180910390f35b6102066109c2565b005b610210610b57565b60405161021d9190612259565b60405180910390f35b61022e610b80565b60405161023b91906121f6565b60405180910390f35b61024c610c0e565b604051610259919061213b565b60405180910390f35b61026a610c14565b60405161027791906121f6565b60405180910390f35b61029a600480360381019061029591906122a0565b610ca2565b005b7f000000000000000000000000000000000000000000000000000000000000000073ffffffffffffffffffffffffffffffffffffffff163373ffffffffffffffffffffffffffffffffffffffff1614610321576040517fc6829f8300000000000000000000000000000000000000000000000000000000815260040160405180910390fd5b61032c838383610cb6565b827f85e1543bf2f84fe80c6badbce3648c8539ad1df4d2b3d822938ca0538be727e660405160405180910390a2505050565b6003805461036b906122fc565b80601f0160208091040260200160405190810160405280929190818152602001828054610397906122fc565b80156103e45780601f106103b9576101008083540402835291602001916103e4565b820191906000526020600020905b8154815290600101906020018083116103c757829003601f168201915b505050505081565b7fb287b1268869b370ef6e3757da08791329a45a552e3d361855ea662adc6fd9a360405160405180910390a16000600367ffffffffffffffff81111561043557610434611bb3565b5b60405190808252806020026020018201604052801561046857816020015b60608152602001906001900390816104535790505b50905060058054610478906122fc565b80601f01602080910402602001604051908101604052809291908181526020018280546104a4906122fc565b80156104f15780601f106104c6576101008083540402835291602001916104f1565b820191906000526020600020905b8154815290600101906020018083116104d457829003601f168201915b50505050508160008151811061050a5761050961232d565b5b602002602001018190525060068054610522906122fc565b80601f016020809104026020016040519081016040528092919081815260200182805461054e906122fc565b801561059b5780601f106105705761010080835404028352916020019161059b565b820191906000526020600020905b81548152906001019060200180831161057e57829003601f168201915b5050505050816001815181106105b4576105b361232d565b5b6020026020010181905250600780546105cc906122fc565b80601f01602080910402602001604051908101604052809291908181526020018280546105f8906122fc565b80156106455780601f1061061a57610100808354040283529160200191610645565b820191906000526020600020905b81548152906001019060200180831161062857829003601f168201915b50505050508160028151811061065e5761065d61232d565b5b60200260200101819052503073ffffffffffffffffffffffffffffffffffffffff16636420bb09826040518263ffffffff1660e01b81526004016106a29190612a52565b6020604051808303816000875af11580156106c1573d6000803e3d6000fd5b505050506040513d601f19601f820116820180604052508101906106e59190612a9c565b50505050565b600480546106f8906122fc565b80601f0160208091040260200160405190810160405280929190818152602001828054610724906122fc565b80156107715780601f1061074657610100808354040283529160200191610771565b820191906000526020600020905b81548152906001019060200180831161075457829003601f168201915b505050505081565b610781610d75565b82600590816107909190612c7f565b5081600690816107a09190612c7f565b5080600790816107b09190612c7f565b50505050565b60006107c0611aa2565b61081786868080601f016020809104026020016040519081016040528093929190818152602001838380828437600081840152601f19601f8201169050808301925050505050505082610e0590919063ffffffff16565b6000848490501115610843576108428484906108339190612e04565b82610e1690919063ffffffff16565b5b61088161084f82610e5e565b600960009054906101000a900467ffffffffffffffff16600960089054906101000a900463ffffffff1660085461126e565b91506000801b82036108c8576040517f08c379a00000000000000000000000000000000000000000000000000000000081526004016108bf90612e65565b60405180910390fd5b81600281905550817f25386196a3094bae1a8dba37528c5fc98adc5ef2b6f1b147e597c9bff5ee265c60405160405180910390a250949350505050565b600060606001915060405160200161091c90612eab565b60405160208183030381529060405290509250929050565b60058054610941906122fc565b80601f016020809104026020016040519081016040528092919081815260200182805461096d906122fc565b80156109ba5780601f1061098f576101008083540402835291602001916109ba565b820191906000526020600020905b81548152906001019060200180831161099d57829003601f168201915b505050505081565b600160009054906101000a900473ffffffffffffffffffffffffffffffffffffffff1673ffffffffffffffffffffffffffffffffffffffff163373ffffffffffffffffffffffffffffffffffffffff1614610a52576040517f08c379a0000000000000000000000000000000000000000000000000000000008152600401610a4990612f17565b60405180910390fd5b60008060009054906101000a900473ffffffffffffffffffffffffffffffffffffffff169050336000806101000a81548173ffffffffffffffffffffffffffffffffffffffff021916908373ffffffffffffffffffffffffffffffffffffffff1602179055506000600160006101000a81548173ffffffffffffffffffffffffffffffffffffffff021916908373ffffffffffffffffffffffffffffffffffffffff1602179055503373ffffffffffffffffffffffffffffffffffffffff168173ffffffffffffffffffffffffffffffffffffffff167f8be0079c531659141344cd1fd0a4f28419497f9722a3daafe3b4186f6b6457e060405160405180910390a350565b60008060009054906101000a900473ffffffffffffffffffffffffffffffffffffffff16905090565b60068054610b8d906122fc565b80601f0160208091040260200160405190810160405280929190818152602001828054610bb9906122fc565b8015610c065780601f10610bdb57610100808354040283529160200191610c06565b820191906000526020600020905b815481529060010190602001808311610be957829003601f168201915b505050505081565b60025481565b60078054610c21906122fc565b80601f0160208091040260200160405190810160405280929190818152602001828054610c4d906122fc565b8015610c9a5780601f10610c6f57610100808354040283529160200191610c9a565b820191906000526020600020905b815481529060010190602001808311610c7d57829003601f168201915b505050505081565b610caa610d75565b610cb381611351565b50565b8160039081610cc59190612f92565b508060049081610cd59190612f92565b506000815111610d7057600082806020019051810190610cf5919061313c565b905060005b8151811015610d6d57818181518110610d1657610d1561232d565b5b602002602001015173ffffffffffffffffffffffffffffffffffffffff167faccb72e702c6c84fd241e089001156746b87dc57634bf6894df3f839efd3ebbb60405160405180910390a28080600101915050610cfa565b50505b505050565b60008054906101000a900473ffffffffffffffffffffffffffffffffffffffff1673ffffffffffffffffffffffffffffffffffffffff163373ffffffffffffffffffffffffffffffffffffffff1614610e03576040517f08c379a0000000000000000000000000000000000000000000000000000000008152600401610dfa906131d1565b60405180910390fd5b565b610e12826000808461147d565b5050565b6000815103610e51576040517ffe936cb700000000000000000000000000000000000000000000000000000000815260040160405180910390fd5b808260a001819052505050565b60606000610e6d610100611527565b9050610eb76040518060400160405280600c81526020017f636f64654c6f636174696f6e00000000000000000000000000000000000000008152508261154e90919063ffffffff16565b610ee083600001516002811115610ed157610ed06131f1565b5b8261157790919063ffffffff16565b610f286040518060400160405280600881526020017f6c616e67756167650000000000000000000000000000000000000000000000008152508261154e90919063ffffffff16565b610f5183604001516000811115610f4257610f416131f1565b5b8261157790919063ffffffff16565b610f996040518060400160405280600681526020017f736f7572636500000000000000000000000000000000000000000000000000008152508261154e90919063ffffffff16565b610fb083606001518261154e90919063ffffffff16565b60008360a00151511115611066576110066040518060400160405280600481526020017f61726773000000000000000000000000000000000000000000000000000000008152508261154e90919063ffffffff16565b61100f816115c7565b60005b8360a001515181101561105b576110508460a0015182815181106110395761103861232d565b5b60200260200101518361154e90919063ffffffff16565b806001019050611012565b50611065816115ef565b5b600083608001515111156111a75760006002811115611088576110876131f1565b5b8360200151600281111561109f5761109e6131f1565b5b036110d6576040517fa80d31f700000000000000000000000000000000000000000000000000000000815260040160405180910390fd5b61111e6040518060400160405280600f81526020017f736563726574734c6f636174696f6e00000000000000000000000000000000008152508261154e90919063ffffffff16565b61114783602001516002811115611138576111376131f1565b5b8261157790919063ffffffff16565b61118f6040518060400160405280600781526020017f73656372657473000000000000000000000000000000000000000000000000008152508261154e90919063ffffffff16565b6111a683608001518261161790919063ffffffff16565b5b60008360c0015151111561125d576111fd6040518060400160405280600981526020017f62797465734172677300000000000000000000000000000000000000000000008152508261154e90919063ffffffff16565b611206816115c7565b60005b8360c0015151811015611252576112478460c0015182815181106112305761122f61232d565b5b60200260200101518361161790919063ffffffff16565b806001019050611209565b5061125c816115ef565b5b806000015160000151915050919050565b6000807f000000000000000000000000000000000000000000000000000000000000000073ffffffffffffffffffffffffffffffffffffffff1663461d27628688600188886040518663ffffffff1660e01b81526004016112d395949392919061327f565b6020604051808303816000875af11580156112f2573d6000803e3d6000fd5b505050506040513d601f19601f820116820180604052508101906113169190612a9c565b9050807f1131472297a800fee664d1d89cfa8f7676ff07189ecc53f80bbb5f4969099db860405160405180910390a280915050949350505050565b3373ffffffffffffffffffffffffffffffffffffffff168173ffffffffffffffffffffffffffffffffffffffff16036113bf576040517f08c379a00000000000000000000000000000000000000000000000000000000081526004016113b690613325565b60405180910390fd5b80600160006101000a81548173ffffffffffffffffffffffffffffffffffffffff021916908373ffffffffffffffffffffffffffffffffffffffff1602179055508073ffffffffffffffffffffffffffffffffffffffff1660008054906101000a900473ffffffffffffffffffffffffffffffffffffffff1673ffffffffffffffffffffffffffffffffffffffff167fed8889f560326eb138920d842192f0eb3dd22b4f139c87a2c57538e05bae127860405160405180910390a350565b60008151036114b8576040517f22ce3edd00000000000000000000000000000000000000000000000000000000815260040160405180910390fd5b82846000019060028111156114d0576114cf6131f1565b5b908160028111156114e4576114e36131f1565b5b815250508184604001906000811115611500576114ff6131f1565b5b90816000811115611514576115136131f1565b5b8152505080846060018190525050505050565b61152f611b14565b61153d816000015183611640565b506000816020018181525050919050565b61155b82600383516116b9565b61157281836000015161186290919063ffffffff16565b505050565b61159960026005600660ff16901b17836000015161187e90919063ffffffff16565b506115c382826040516020016115af9190613354565b604051602081830303815290604052611617565b5050565b6115d28160046118e8565b6001816020018181516115e5919061339e565b9150818152505050565b6115fa8160076118e8565b60018160200181815161160d91906133d2565b9150818152505050565b61162482600283516116b9565b61163b81836000015161186290919063ffffffff16565b505050565b611648611b34565b60006020836116579190613435565b14611683576020826116699190613435565b602061167591906133d2565b82611680919061339e565b91505b8183602001818152505060405180845260008152828101602001818110156116aa57600080fd5b80604052505082905092915050565b60178167ffffffffffffffff16116116f4576116ee8160058460ff16901b60ff1617846000015161187e90919063ffffffff16565b5061185d565b60ff8167ffffffffffffffff161161175257611727601860058460ff16901b17846000015161187e90919063ffffffff16565b5061174c8167ffffffffffffffff166001856000015161190e9092919063ffffffff16565b5061185c565b61ffff8167ffffffffffffffff16116117b157611786601960058460ff16901b17846000015161187e90919063ffffffff16565b506117ab8167ffffffffffffffff166002856000015161190e9092919063ffffffff16565b5061185b565b63ffffffff8167ffffffffffffffff1611611812576117e7601a60058460ff16901b17846000015161187e90919063ffffffff16565b5061180c8167ffffffffffffffff166004856000015161190e9092919063ffffffff16565b5061185a565b611833601b60058460ff16901b17846000015161187e90919063ffffffff16565b506118588167ffffffffffffffff166008856000015161190e9092919063ffffffff16565b505b5b5b5b505050565b61186a611b34565b6118768383845161199b565b905092915050565b611886611b34565b60008360000151519050600060018261189f919061339e565b9050846020015182106118c3576118c2856002836118bd9190613466565b611a7e565b5b845160208382010185815381518311156118db578282525b5050849250505092915050565b611909601f60058360ff16901b17836000015161187e90919063ffffffff16565b505050565b611916611b34565b600084600001515190506000818461192e919061339e565b90508560200151811115611953576119528660028361194d9190613466565b611a7e565b5b600060018561010061196591906135db565b61196f91906133d2565b90508651828101878319825116178152815184111561198c578382525b50508693505050509392505050565b6119a3611b34565b82518211156119b157600080fd5b60008460000151519050600083826119c9919061339e565b905085602001518111156119ee576119ed866002836119e89190613466565b611a7e565b5b60008087518051856020830101935080851115611a09578482525b60208901925050505b60208610611a505780518252602082611a2b919061339e565b9150602081611a3a919061339e565b9050602086611a4991906133d2565b9550611a12565b60006001876020036101000a0390508019825116818451168181178552505050879450505050509392505050565b600082600001519050611a918383611640565b50611a9c8382611862565b50505050565b6040518060e0016040528060006002811115611ac157611ac06131f1565b5b815260200160006002811115611ada57611ad96131f1565b5b8152602001600080811115611af257611af16131f1565b5b8152602001606081526020016060815260200160608152602001606081525090565b6040518060400160405280611b27611b34565b8152602001600081525090565b604051806040016040528060608152602001600081525090565b6000604051905090565b600080fd5b600080fd5b6000819050919050565b611b7581611b62565b8114611b8057600080fd5b50565b600081359050611b9281611b6c565b92915050565b600080fd5b600080fd5b6000601f19601f8301169050919050565b7f4e487b7100000000000000000000000000000000000000000000000000000000600052604160045260246000fd5b611beb82611ba2565b810181811067ffffffffffffffff82111715611c0a57611c09611bb3565b5b80604052505050565b6000611c1d611b4e565b9050611c298282611be2565b919050565b600067ffffffffffffffff821115611c4957611c48611bb3565b5b611c5282611ba2565b9050602081019050919050565b82818337600083830152505050565b6000611c81611c7c84611c2e565b611c13565b905082815260208101848484011115611c9d57611c9c611b9d565b5b611ca8848285611c5f565b509392505050565b600082601f830112611cc557611cc4611b98565b5b8135611cd5848260208601611c6e565b91505092915050565b600080600060608486031215611cf757611cf6611b58565b5b6000611d0586828701611b83565b935050602084013567ffffffffffffffff811115611d2657611d25611b5d565b5b611d3286828701611cb0565b925050604084013567ffffffffffffffff811115611d5357611d52611b5d565b5b611d5f86828701611cb0565b9150509250925092565b600081519050919050565b600082825260208201905092915050565b60005b83811015611da3578082015181840152602081019050611d88565b60008484015250505050565b6000611dba82611d69565b611dc48185611d74565b9350611dd4818560208601611d85565b611ddd81611ba2565b840191505092915050565b60006020820190508181036000830152611e028184611daf565b905092915050565b600080fd5b600080fd5b60008083601f840112611e2a57611e29611b98565b5b8235905067ffffffffffffffff811115611e4757611e46611e0a565b5b602083019150836001820283011115611e6357611e62611e0f565b5b9250929050565b60008060208385031215611e8157611e80611b58565b5b600083013567ffffffffffffffff811115611e9f57611e9e611b5d565b5b611eab85828601611e14565b92509250509250929050565b600067ffffffffffffffff821115611ed257611ed1611bb3565b5b611edb82611ba2565b9050602081019050919050565b6000611efb611ef684611eb7565b611c13565b905082815260208101848484011115611f1757611f16611b9d565b5b611f22848285611c5f565b509392505050565b600082601f830112611f3f57611f3e611b98565b5b8135611f4f848260208601611ee8565b91505092915050565b600080600060608486031215611f7157611f70611b58565b5b600084013567ffffffffffffffff811115611f8f57611f8e611b5d565b5b611f9b86828701611f2a565b935050602084013567ffffffffffffffff811115611fbc57611fbb611b5d565b5b611fc886828701611f2a565b925050604084013567ffffffffffffffff811115611fe957611fe8611b5d565b5b611ff586828701611f2a565b9150509250925092565b60008083601f84011261201557612014611b98565b5b8235905067ffffffffffffffff81111561203257612031611e0a565b5b60208301915083600182028301111561204e5761204d611e0f565b5b9250929050565b60008083601f84011261206b5761206a611b98565b5b8235905067ffffffffffffffff81111561208857612087611e0a565b5b6020830191508360208202830111156120a4576120a3611e0f565b5b9250929050565b600080600080604085870312156120c5576120c4611b58565b5b600085013567ffffffffffffffff8111156120e3576120e2611b5d565b5b6120ef87828801611fff565b9450945050602085013567ffffffffffffffff81111561211257612111611b5d565b5b61211e87828801612055565b925092505092959194509250565b61213581611b62565b82525050565b6000602082019050612150600083018461212c565b92915050565b60008115159050919050565b61216b81612156565b82525050565b60006040820190506121866000830185612162565b81810360208301526121988184611daf565b90509392505050565b600081519050919050565b600082825260208201905092915050565b60006121c8826121a1565b6121d281856121ac565b93506121e2818560208601611d85565b6121eb81611ba2565b840191505092915050565b6000602082019050818103600083015261221081846121bd565b905092915050565b600073ffffffffffffffffffffffffffffffffffffffff82169050919050565b600061224382612218565b9050919050565b61225381612238565b82525050565b600060208201905061226e600083018461224a565b92915050565b61227d81612238565b811461228857600080fd5b50565b60008135905061229a81612274565b92915050565b6000602082840312156122b6576122b5611b58565b5b60006122c48482850161228b565b91505092915050565b7f4e487b7100000000000000000000000000000000000000000000000000000000600052602260045260246000fd5b6000600282049050600182168061231457607f821691505b602082108103612327576123266122cd565b5b50919050565b7f4e487b7100000000000000000000000000000000000000000000000000000000600052603260045260246000fd5b7f286173796e63202829203d3e207b20636f6e7374207b20657468657273207d2060008201527f3d20617761697420696d706f7274282765746865727327293b20636f6e73742060208201527f5b72706355726c2c20636f6e7472616374416464726573732c20626f72726f7760408201527f6572735d203d20617267733b20636f6e737420636f6c6c4d616e6167656d656e60608201527f74416269203d205b2766756e6374696f6e206765744865616c7468466163746f60808201527f7228616464726573732075736572292065787465726e616c207669657720726560a08201527f7475726e73202875696e7432353629275d3b20636f6e73742070726f7669646560c08201527f72203d206e6577206574686572732e4a736f6e52706350726f7669646572287260e08201527f706355726c293b20636f6e737420636f6e7472616374203d206e6577206574686101008201527f6572732e436f6e747261637428636f6e7472616374416464726573732c20636f6101208201527f6c6c4d616e6167656d656e744162692c2070726f7669646572293b20636f6e736101408201527f74206865616c7468466163746f725468726573686f6c64203d206574686572736101608201527f2e706172736545746865722827312e3027293b20636f6e737420626f72726f776101808201527f65724c697374203d20626f72726f776572732e73706c697428272c27293b20636101a08201527f6f6e737420746f4c6971756964617465203d205b5d3b20636f6e736f6c652e6c6101c08201527f6f672860436865636b696e67206865616c746820666f7220247b626f72726f776101e08201527f65724c6973742e6c656e6774687d20626f72726f776572732e2e2e60293b20666102008201527f6f722028636f6e737420626f72726f77657241646472657373206f6620626f726102208201527f726f7765724c69737429207b20747279207b20636f6e7374206865616c7468466102408201527f6163746f72203d20617761697420636f6e74726163742e6765744865616c74686102608201527f466163746f7228626f72726f77657241646472657373293b20636f6e736f6c656102808201527f2e6c6f6728602d20247b626f72726f776572416464726573737d3a20247b65746102a08201527f686572732e666f726d61744574686572286865616c7468466163746f72297d606102c08201527f293b20696620286865616c7468466163746f72203c206865616c7468466163746102e08201527f6f725468726573686f6c6429207b20746f4c69717569646174652e70757368286103008201527f626f72726f77657241646472657373293b207d207d20636174636820286572726103208201527f6f7229207b20636f6e7374206572726f724d657373616765203d206572726f726103408201527f20696e7374616e63656f66204572726f72203f206572726f722e6d65737361676103608201527f65203a20537472696e67286572726f72293b20636f6e736f6c652e6572726f726103808201527f286020203e204572726f7220636865636b696e67206865616c746820666f72206103a08201527f247b626f72726f776572416464726573737d3a602c206572726f724d657373616103c08201527f6765293b207d207d20636f6e736f6c652e6c6f672860466f756e6420247b746f6103e08201527f4c69717569646174652e6c656e6774687d20706f736974696f6e7320746f206c6104008201527f69717569646174652e60293b20636f6e737420656e636f646564203d206574686104208201527f6572732e416269436f6465722e64656661756c74416269436f64657228292e656104408201527f6e636f6465285b27616464726573735b5d275d2c205b746f4c697175696461746104608201527f655d293b2072657475726e204275666665722e66726f6d28656e636f6465642e6104808201527f736c6963652832292c202768657827293b207d2928293b0000000000000000006104a082015250565b600061292f6104b7836121ac565b915061293a8261235c565b6104c082019050919050565b600081519050919050565b600082825260208201905092915050565b6000819050602082019050919050565b600082825260208201905092915050565b600061298e826121a1565b6129988185612972565b93506129a8818560208601611d85565b6129b181611ba2565b840191505092915050565b60006129c88383612983565b905092915050565b6000602082019050919050565b60006129e882612946565b6129f28185612951565b935083602082028501612a0485612962565b8060005b85811015612a405784840389528151612a2185826129bc565b9450612a2c836129d0565b925060208a01995050600181019050612a08565b50829750879550505050505092915050565b60006040820190508181036000830152612a6b81612921565b90508181036020830152612a7f81846129dd565b905092915050565b600081519050612a9681611b6c565b92915050565b600060208284031215612ab257612ab1611b58565b5b6000612ac084828501612a87565b91505092915050565b60008190508160005260206000209050919050565b60006020601f8301049050919050565b600082821b905092915050565b600060088302612b2b7fffffffffffffffffffffffffffffffffffffffffffffffffffffffffffffffff82612aee565b612b358683612aee565b95508019841693508086168417925050509392505050565b6000819050919050565b6000819050919050565b6000612b7c612b77612b7284612b4d565b612b57565b612b4d565b9050919050565b6000819050919050565b612b9683612b61565b612baa612ba282612b83565b848454612afb565b825550505050565b600090565b612bbf612bb2565b612bca818484612b8d565b505050565b5b81811015612bee57612be3600082612bb7565b600181019050612bd0565b5050565b601f821115612c3357612c0481612ac9565b612c0d84612ade565b81016020851015612c1c578190505b612c30612c2885612ade565b830182612bcf565b50505b505050565b600082821c905092915050565b6000612c5660001984600802612c38565b1980831691505092915050565b6000612c6f8383612c45565b9150826002028217905092915050565b612c88826121a1565b67ffffffffffffffff811115612ca157612ca0611bb3565b5b612cab82546122fc565b612cb6828285612bf2565b600060209050601f831160018114612ce95760008415612cd7578287015190505b612ce18582612c63565b865550612d49565b601f198416612cf786612ac9565b60005b82811015612d1f57848901518255600182019150602085019450602081019050612cfa565b86831015612d3c5784890151612d38601f891682612c45565b8355505b6001600288020188555050505b505050505050565b600067ffffffffffffffff821115612d6c57612d6b611bb3565b5b602082029050602081019050919050565b6000612d90612d8b84612d51565b611c13565b90508083825260208201905060208402830185811115612db357612db2611e0f565b5b835b81811015612dfa57803567ffffffffffffffff811115612dd857612dd7611b98565b5b808601612de58982611f2a565b85526020850194505050602081019050612db5565b5050509392505050565b6000612e11368484612d7d565b905092915050565b7f46756e6374696f6e732052657175657374204944206973207a65726f00000000600082015250565b6000612e4f601c836121ac565b9150612e5a82612e19565b602082019050919050565b60006020820190508181036000830152612e7e81612e42565b9050919050565b50565b6000612e956000836121ac565b9150612ea082612e85565b600082019050919050565b60006020820190508181036000830152612ec481612e88565b9050919050565b7f4d7573742062652070726f706f736564206f776e657200000000000000000000600082015250565b6000612f016016836121ac565b9150612f0c82612ecb565b602082019050919050565b60006020820190508181036000830152612f3081612ef4565b9050919050565b60008190508160005260206000209050919050565b601f821115612f8d57612f5e81612f37565b612f6784612ade565b81016020851015612f76578190505b612f8a612f8285612ade565b830182612bcf565b50505b505050565b612f9b82611d69565b67ffffffffffffffff811115612fb457612fb3611bb3565b5b612fbe82546122fc565b612fc9828285612f4c565b600060209050601f831160018114612ffc5760008415612fea578287015190505b612ff48582612c63565b86555061305c565b601f19841661300a86612f37565b60005b828110156130325784890151825560018201915060208501945060208101905061300d565b8683101561304f578489015161304b601f891682612c45565b8355505b6001600288020188555050505b505050505050565b600067ffffffffffffffff82111561307f5761307e611bb3565b5b602082029050602081019050919050565b60008151905061309f81612274565b92915050565b60006130b86130b384613064565b611c13565b905080838252602082019050602084028301858111156130db576130da611e0f565b5b835b8181101561310457806130f08882613090565b8452602084019350506020810190506130dd565b5050509392505050565b600082601f83011261312357613122611b98565b5b81516131338482602086016130a5565b91505092915050565b60006020828403121561315257613151611b58565b5b600082015167ffffffffffffffff8111156131705761316f611b5d565b5b61317c8482850161310e565b91505092915050565b7f4f6e6c792063616c6c61626c65206279206f776e657200000000000000000000600082015250565b60006131bb6016836121ac565b91506131c682613185565b602082019050919050565b600060208201905081810360008301526131ea816131ae565b9050919050565b7f4e487b7100000000000000000000000000000000000000000000000000000000600052602160045260246000fd5b600067ffffffffffffffff82169050919050565b61323d81613220565b82525050565b600061ffff82169050919050565b61325a81613243565b82525050565b600063ffffffff82169050919050565b61327981613260565b82525050565b600060a0820190506132946000830188613234565b81810360208301526132a68187611daf565b90506132b56040830186613251565b6132c26060830185613270565b6132cf608083018461212c565b9695505050505050565b7f43616e6e6f74207472616e7366657220746f2073656c66000000000000000000600082015250565b600061330f6017836121ac565b915061331a826132d9565b602082019050919050565b6000602082019050818103600083015261333e81613302565b9050919050565b61334e81612b4d565b82525050565b60006020820190506133696000830184613345565b92915050565b7f4e487b7100000000000000000000000000000000000000000000000000000000600052601160045260246000fd5b60006133a982612b4d565b91506133b483612b4d565b92508282019050808211156133cc576133cb61336f565b5b92915050565b60006133dd82612b4d565b91506133e883612b4d565b9250828203905081811115613400576133ff61336f565b5b92915050565b7f4e487b7100000000000000000000000000000000000000000000000000000000600052601260045260246000fd5b600061344082612b4d565b915061344b83612b4d565b92508261345b5761345a613406565b5b828206905092915050565b600061347182612b4d565b915061347c83612b4d565b925082820261348a81612b4d565b915082820484148315176134a1576134a061336f565b5b5092915050565b60008160011c9050919050565b6000808291508390505b60018511156134ff578086048111156134db576134da61336f565b5b60018516156134ea5780820291505b80810290506134f8856134a8565b94506134bf565b94509492505050565b60008261351857600190506135d4565b8161352657600090506135d4565b816001811461353c576002811461354657613575565b60019150506135d4565b60ff8411156135585761355761336f565b5b8360020a91508482111561356f5761356e61336f565b5b506135d4565b5060208310610133831016604e8410600b84101617156135aa5782820a9050838111156135a5576135a461336f565b5b6135d4565b6135b784848460016134b5565b925090508184048111156135ce576135cd61336f565b5b81810290505b9392505050565b60006135e682612b4d565b91506135f183612b4d565b925061361e7fffffffffffffffffffffffffffffffffffffffffffffffffffffffffffffffff8484613508565b90509291505056fea2646970667358221220dcc64df73b3eb5279a0911b351ed8cb834cebb4d361d83c04237f952669f209064736f6c63430008180033","opcodes":"PUSH1 0xA0 PUSH1 0x40 MSTORE CALLVALUE DUP1 ISZERO PUSH3 0x11 JUMPI PUSH1 0x0 DUP1 REVERT JUMPDEST POP PUSH1 0x40 MLOAD PUSH3 0x3C08 CODESIZE SUB DUP1 PUSH3 0x3C08 DUP4 CODECOPY DUP2 DUP2 ADD PUSH1 0x40 MSTORE DUP2 ADD SWAP1 PUSH3 0x37 SWAP2 SWAP1 PUSH3 0x422 JUMP JUMPDEST CALLER DUP1 PUSH1 0x0 DUP7 DUP1 PUSH20 0xFFFFFFFFFFFFFFFFFFFFFFFFFFFFFFFFFFFFFFFF AND PUSH1 0x80 DUP2 PUSH20 0xFFFFFFFFFFFFFFFFFFFFFFFFFFFFFFFFFFFFFFFF AND DUP2 MSTORE POP POP POP PUSH1 0x0 PUSH20 0xFFFFFFFFFFFFFFFFFFFFFFFFFFFFFFFFFFFFFFFF AND DUP3 PUSH20 0xFFFFFFFFFFFFFFFFFFFFFFFFFFFFFFFFFFFFFFFF AND SUB PUSH3 0xE3 JUMPI PUSH1 0x40 MLOAD PUSH32 0x8C379A000000000000000000000000000000000000000000000000000000000 DUP2 MSTORE PUSH1 0x4 ADD PUSH3 0xDA SWAP1 PUSH3 0x4F5 JUMP JUMPDEST PUSH1 0x40 MLOAD DUP1 SWAP2 SUB SWAP1 REVERT JUMPDEST DUP2 PUSH1 0x0 DUP1 PUSH2 0x100 EXP DUP2 SLOAD DUP2 PUSH20 0xFFFFFFFFFFFFFFFFFFFFFFFFFFFFFFFFFFFFFFFF MUL NOT AND SWAP1 DUP4 PUSH20 0xFFFFFFFFFFFFFFFFFFFFFFFFFFFFFFFFFFFFFFFF AND MUL OR SWAP1 SSTORE POP PUSH1 0x0 PUSH20 0xFFFFFFFFFFFFFFFFFFFFFFFFFFFFFFFFFFFFFFFF AND DUP2 PUSH20 0xFFFFFFFFFFFFFFFFFFFFFFFFFFFFFFFFFFFFFFFF AND EQ PUSH3 0x16A JUMPI PUSH3 0x169 DUP2 PUSH3 0x1C8 PUSH1 0x20 SHL PUSH1 0x20 SHR JUMP JUMPDEST JUMPDEST POP POP POP DUP3 PUSH1 0x8 DUP2 SWAP1 SSTORE POP DUP2 PUSH1 0x9 PUSH1 0x0 PUSH2 0x100 EXP DUP2 SLOAD DUP2 PUSH8 0xFFFFFFFFFFFFFFFF MUL NOT AND SWAP1 DUP4 PUSH8 0xFFFFFFFFFFFFFFFF AND MUL OR SWAP1 SSTORE POP DUP1 PUSH1 0x9 PUSH1 0x8 PUSH2 0x100 EXP DUP2 SLOAD DUP2 PUSH4 0xFFFFFFFF MUL NOT AND SWAP1 DUP4 PUSH4 0xFFFFFFFF AND MUL OR SWAP1 SSTORE POP POP POP POP POP PUSH3 0x589 JUMP JUMPDEST CALLER PUSH20 0xFFFFFFFFFFFFFFFFFFFFFFFFFFFFFFFFFFFFFFFF AND DUP2 PUSH20 0xFFFFFFFFFFFFFFFFFFFFFFFFFFFFFFFFFFFFFFFF AND SUB PUSH3 0x239 JUMPI PUSH1 0x40 MLOAD PUSH32 0x8C379A000000000000000000000000000000000000000000000000000000000 DUP2 MSTORE PUSH1 0x4 ADD PUSH3 0x230 SWAP1 PUSH3 0x567 JUMP JUMPDEST PUSH1 0x40 MLOAD DUP1 SWAP2 SUB SWAP1 REVERT JUMPDEST DUP1 PUSH1 0x1 PUSH1 0x0 PUSH2 0x100 EXP DUP2 SLOAD DUP2 PUSH20 0xFFFFFFFFFFFFFFFFFFFFFFFFFFFFFFFFFFFFFFFF MUL NOT AND SWAP1 DUP4 PUSH20 0xFFFFFFFFFFFFFFFFFFFFFFFFFFFFFFFFFFFFFFFF AND MUL OR SWAP1 SSTORE POP DUP1 PUSH20 0xFFFFFFFFFFFFFFFFFFFFFFFFFFFFFFFFFFFFFFFF AND PUSH1 0x0 DUP1 SLOAD SWAP1 PUSH2 0x100 EXP SWAP1 DIV PUSH20 0xFFFFFFFFFFFFFFFFFFFFFFFFFFFFFFFFFFFFFFFF AND PUSH20 0xFFFFFFFFFFFFFFFFFFFFFFFFFFFFFFFFFFFFFFFF AND PUSH32 0xED8889F560326EB138920D842192F0EB3DD22B4F139C87A2C57538E05BAE1278 PUSH1 0x40 MLOAD PUSH1 0x40 MLOAD DUP1 SWAP2 SUB SWAP1 LOG3 POP JUMP JUMPDEST PUSH1 0x0 DUP1 REVERT JUMPDEST PUSH1 0x0 PUSH20 0xFFFFFFFFFFFFFFFFFFFFFFFFFFFFFFFFFFFFFFFF DUP3 AND SWAP1 POP SWAP2 SWAP1 POP JUMP JUMPDEST PUSH1 0x0 PUSH3 0x329 DUP3 PUSH3 0x2FC JUMP JUMPDEST SWAP1 POP SWAP2 SWAP1 POP JUMP JUMPDEST PUSH3 0x33B DUP2 PUSH3 0x31C JUMP JUMPDEST DUP2 EQ PUSH3 0x347 JUMPI PUSH1 0x0 DUP1 REVERT JUMPDEST POP JUMP JUMPDEST PUSH1 0x0 DUP2 MLOAD SWAP1 POP PUSH3 0x35B DUP2 PUSH3 0x330 JUMP JUMPDEST SWAP3 SWAP2 POP POP JUMP JUMPDEST PUSH1 0x0 DUP2 SWAP1 POP SWAP2 SWAP1 POP JUMP JUMPDEST PUSH3 0x376 DUP2 PUSH3 0x361 JUMP JUMPDEST DUP2 EQ PUSH3 0x382 JUMPI PUSH1 0x0 DUP1 REVERT JUMPDEST POP JUMP JUMPDEST PUSH1 0x0 DUP2 MLOAD SWAP1 POP PUSH3 0x396 DUP2 PUSH3 0x36B JUMP JUMPDEST SWAP3 SWAP2 POP POP JUMP JUMPDEST PUSH1 0x0 PUSH8 0xFFFFFFFFFFFFFFFF DUP3 AND SWAP1 POP SWAP2 SWAP1 POP JUMP JUMPDEST PUSH3 0x3BB DUP2 PUSH3 0x39C JUMP JUMPDEST DUP2 EQ PUSH3 0x3C7 JUMPI PUSH1 0x0 DUP1 REVERT JUMPDEST POP JUMP JUMPDEST PUSH1 0x0 DUP2 MLOAD SWAP1 POP PUSH3 0x3DB DUP2 PUSH3 0x3B0 JUMP JUMPDEST SWAP3 SWAP2 POP POP JUMP JUMPDEST PUSH1 0x0 PUSH4 0xFFFFFFFF DUP3 AND SWAP1 POP SWAP2 SWAP1 POP JUMP JUMPDEST PUSH3 0x3FC DUP2 PUSH3 0x3E1 JUMP JUMPDEST DUP2 EQ PUSH3 0x408 JUMPI PUSH1 0x0 DUP1 REVERT JUMPDEST POP JUMP JUMPDEST PUSH1 0x0 DUP2 MLOAD SWAP1 POP PUSH3 0x41C DUP2 PUSH3 0x3F1 JUMP JUMPDEST SWAP3 SWAP2 POP POP JUMP JUMPDEST PUSH1 0x0 DUP1 PUSH1 0x0 DUP1 PUSH1 0x80 DUP6 DUP8 SUB SLT ISZERO PUSH3 0x43F JUMPI PUSH3 0x43E PUSH3 0x2F7 JUMP JUMPDEST JUMPDEST PUSH1 0x0 PUSH3 0x44F DUP8 DUP3 DUP9 ADD PUSH3 0x34A JUMP JUMPDEST SWAP5 POP POP PUSH1 0x20 PUSH3 0x462 DUP8 DUP3 DUP9 ADD PUSH3 0x385 JUMP JUMPDEST SWAP4 POP POP PUSH1 0x40 PUSH3 0x475 DUP8 DUP3 DUP9 ADD PUSH3 0x3CA JUMP JUMPDEST SWAP3 POP POP PUSH1 0x60 PUSH3 0x488 DUP8 DUP3 DUP9 ADD PUSH3 0x40B JUMP JUMPDEST SWAP2 POP POP SWAP3 SWAP6 SWAP2 SWAP5 POP SWAP3 POP JUMP JUMPDEST PUSH1 0x0 DUP3 DUP3 MSTORE PUSH1 0x20 DUP3 ADD SWAP1 POP SWAP3 SWAP2 POP POP JUMP JUMPDEST PUSH32 0x43616E6E6F7420736574206F776E657220746F207A65726F0000000000000000 PUSH1 0x0 DUP3 ADD MSTORE POP JUMP JUMPDEST PUSH1 0x0 PUSH3 0x4DD PUSH1 0x18 DUP4 PUSH3 0x494 JUMP JUMPDEST SWAP2 POP PUSH3 0x4EA DUP3 PUSH3 0x4A5 JUMP JUMPDEST PUSH1 0x20 DUP3 ADD SWAP1 POP SWAP2 SWAP1 POP JUMP JUMPDEST PUSH1 0x0 PUSH1 0x20 DUP3 ADD SWAP1 POP DUP2 DUP2 SUB PUSH1 0x0 DUP4 ADD MSTORE PUSH3 0x510 DUP2 PUSH3 0x4CE JUMP JUMPDEST SWAP1 POP SWAP2 SWAP1 POP JUMP JUMPDEST PUSH32 0x43616E6E6F74207472616E7366657220746F2073656C66000000000000000000 PUSH1 0x0 DUP3 ADD MSTORE POP JUMP JUMPDEST PUSH1 0x0 PUSH3 0x54F PUSH1 0x17 DUP4 PUSH3 0x494 JUMP JUMPDEST SWAP2 POP PUSH3 0x55C DUP3 PUSH3 0x517 JUMP JUMPDEST PUSH1 0x20 DUP3 ADD SWAP1 POP SWAP2 SWAP1 POP JUMP JUMPDEST PUSH1 0x0 PUSH1 0x20 DUP3 ADD SWAP1 POP DUP2 DUP2 SUB PUSH1 0x0 DUP4 ADD MSTORE PUSH3 0x582 DUP2 PUSH3 0x540 JUMP JUMPDEST SWAP1 POP SWAP2 SWAP1 POP JUMP JUMPDEST PUSH1 0x80 MLOAD PUSH2 0x365C PUSH3 0x5AC PUSH1 0x0 CODECOPY PUSH1 0x0 DUP2 DUP2 PUSH2 0x29E ADD MSTORE PUSH2 0x1273 ADD MSTORE PUSH2 0x365C PUSH1 0x0 RETURN INVALID PUSH1 0x80 PUSH1 0x40 MSTORE CALLVALUE DUP1 ISZERO PUSH2 0x10 JUMPI PUSH1 0x0 DUP1 REVERT JUMPDEST POP PUSH1 0x4 CALLDATASIZE LT PUSH2 0xEA JUMPI PUSH1 0x0 CALLDATALOAD PUSH1 0xE0 SHR DUP1 PUSH4 0x77DC3513 GT PUSH2 0x8C JUMPI DUP1 PUSH4 0x9DADA6E2 GT PUSH2 0x66 JUMPI DUP1 PUSH4 0x9DADA6E2 EQ PUSH2 0x226 JUMPI DUP1 PUSH4 0xB1E21749 EQ PUSH2 0x244 JUMPI DUP1 PUSH4 0xDD3BD960 EQ PUSH2 0x262 JUMPI DUP1 PUSH4 0xF2FDE38B EQ PUSH2 0x280 JUMPI PUSH2 0xEA JUMP JUMPDEST DUP1 PUSH4 0x77DC3513 EQ PUSH2 0x1E0 JUMPI DUP1 PUSH4 0x79BA5097 EQ PUSH2 0x1FE JUMPI DUP1 PUSH4 0x8DA5CB5B EQ PUSH2 0x208 JUMPI PUSH2 0xEA JUMP JUMPDEST DUP1 PUSH4 0x4B0795A8 GT PUSH2 0xC8 JUMPI DUP1 PUSH4 0x4B0795A8 EQ PUSH2 0x145 JUMPI DUP1 PUSH4 0x55BB3C49 EQ PUSH2 0x163 JUMPI DUP1 PUSH4 0x6420BB09 EQ PUSH2 0x17F JUMPI DUP1 PUSH4 0x6E04FF0D EQ PUSH2 0x1AF JUMPI PUSH2 0xEA JUMP JUMPDEST DUP1 PUSH4 0xCA76175 EQ PUSH2 0xEF JUMPI DUP1 PUSH4 0x3944EA3A EQ PUSH2 0x10B JUMPI DUP1 PUSH4 0x4585E33B EQ PUSH2 0x129 JUMPI JUMPDEST PUSH1 0x0 DUP1 REVERT JUMPDEST PUSH2 0x109 PUSH1 0x4 DUP1 CALLDATASIZE SUB DUP2 ADD SWAP1 PUSH2 0x104 SWAP2 SWAP1 PUSH2 0x1CDE JUMP JUMPDEST PUSH2 0x29C JUMP JUMPDEST STOP JUMPDEST PUSH2 0x113 PUSH2 0x35E JUMP JUMPDEST PUSH1 0x40 MLOAD PUSH2 0x120 SWAP2 SWAP1 PUSH2 0x1DE8 JUMP JUMPDEST PUSH1 0x40 MLOAD DUP1 SWAP2 SUB SWAP1 RETURN JUMPDEST PUSH2 0x143 PUSH1 0x4 DUP1 CALLDATASIZE SUB DUP2 ADD SWAP1 PUSH2 0x13E SWAP2 SWAP1 PUSH2 0x1E6A JUMP JUMPDEST PUSH2 0x3EC JUMP JUMPDEST STOP JUMPDEST PUSH2 0x14D PUSH2 0x6EB JUMP JUMPDEST PUSH1 0x40 MLOAD PUSH2 0x15A SWAP2 SWAP1 PUSH2 0x1DE8 JUMP JUMPDEST PUSH1 0x40 MLOAD DUP1 SWAP2 SUB SWAP1 RETURN JUMPDEST PUSH2 0x17D PUSH1 0x4 DUP1 CALLDATASIZE SUB DUP2 ADD SWAP1 PUSH2 0x178 SWAP2 SWAP1 PUSH2 0x1F58 JUMP JUMPDEST PUSH2 0x779 JUMP JUMPDEST STOP JUMPDEST PUSH2 0x199 PUSH1 0x4 DUP1 CALLDATASIZE SUB DUP2 ADD SWAP1 PUSH2 0x194 SWAP2 SWAP1 PUSH2 0x20AB JUMP JUMPDEST PUSH2 0x7B6 JUMP JUMPDEST PUSH1 0x40 MLOAD PUSH2 0x1A6 SWAP2 SWAP1 PUSH2 0x213B JUMP JUMPDEST PUSH1 0x40 MLOAD DUP1 SWAP2 SUB SWAP1 RETURN JUMPDEST PUSH2 0x1C9 PUSH1 0x4 DUP1 CALLDATASIZE SUB DUP2 ADD SWAP1 PUSH2 0x1C4 SWAP2 SWAP1 PUSH2 0x1E6A JUMP JUMPDEST PUSH2 0x905 JUMP JUMPDEST PUSH1 0x40 MLOAD PUSH2 0x1D7 SWAP3 SWAP2 SWAP1 PUSH2 0x2171 JUMP JUMPDEST PUSH1 0x40 MLOAD DUP1 SWAP2 SUB SWAP1 RETURN JUMPDEST PUSH2 0x1E8 PUSH2 0x934 JUMP JUMPDEST PUSH1 0x40 MLOAD PUSH2 0x1F5 SWAP2 SWAP1 PUSH2 0x21F6 JUMP JUMPDEST PUSH1 0x40 MLOAD DUP1 SWAP2 SUB SWAP1 RETURN JUMPDEST PUSH2 0x206 PUSH2 0x9C2 JUMP JUMPDEST STOP JUMPDEST PUSH2 0x210 PUSH2 0xB57 JUMP JUMPDEST PUSH1 0x40 MLOAD PUSH2 0x21D SWAP2 SWAP1 PUSH2 0x2259 JUMP JUMPDEST PUSH1 0x40 MLOAD DUP1 SWAP2 SUB SWAP1 RETURN JUMPDEST PUSH2 0x22E PUSH2 0xB80 JUMP JUMPDEST PUSH1 0x40 MLOAD PUSH2 0x23B SWAP2 SWAP1 PUSH2 0x21F6 JUMP JUMPDEST PUSH1 0x40 MLOAD DUP1 SWAP2 SUB SWAP1 RETURN JUMPDEST PUSH2 0x24C PUSH2 0xC0E JUMP JUMPDEST PUSH1 0x40 MLOAD PUSH2 0x259 SWAP2 SWAP1 PUSH2 0x213B JUMP JUMPDEST PUSH1 0x40 MLOAD DUP1 SWAP2 SUB SWAP1 RETURN JUMPDEST PUSH2 0x26A PUSH2 0xC14 JUMP JUMPDEST PUSH1 0x40 MLOAD PUSH2 0x277 SWAP2 SWAP1 PUSH2 0x21F6 JUMP JUMPDEST PUSH1 0x40 MLOAD DUP1 SWAP2 SUB SWAP1 RETURN JUMPDEST PUSH2 0x29A PUSH1 0x4 DUP1 CALLDATASIZE SUB DUP2 ADD SWAP1 PUSH2 0x295 SWAP2 SWAP1 PUSH2 0x22A0 JUMP JUMPDEST PUSH2 0xCA2 JUMP JUMPDEST STOP JUMPDEST PUSH32 0x0 PUSH20 0xFFFFFFFFFFFFFFFFFFFFFFFFFFFFFFFFFFFFFFFF AND CALLER PUSH20 0xFFFFFFFFFFFFFFFFFFFFFFFFFFFFFFFFFFFFFFFF AND EQ PUSH2 0x321 JUMPI PUSH1 0x40 MLOAD PUSH32 0xC6829F8300000000000000000000000000000000000000000000000000000000 DUP2 MSTORE PUSH1 0x4 ADD PUSH1 0x40 MLOAD DUP1 SWAP2 SUB SWAP1 REVERT JUMPDEST PUSH2 0x32C DUP4 DUP4 DUP4 PUSH2 0xCB6 JUMP JUMPDEST DUP3 PUSH32 0x85E1543BF2F84FE80C6BADBCE3648C8539AD1DF4D2B3D822938CA0538BE727E6 PUSH1 0x40 MLOAD PUSH1 0x40 MLOAD DUP1 SWAP2 SUB SWAP1 LOG2 POP POP POP JUMP JUMPDEST PUSH1 0x3 DUP1 SLOAD PUSH2 0x36B SWAP1 PUSH2 0x22FC JUMP JUMPDEST DUP1 PUSH1 0x1F ADD PUSH1 0x20 DUP1 SWAP2 DIV MUL PUSH1 0x20 ADD PUSH1 0x40 MLOAD SWAP1 DUP2 ADD PUSH1 0x40 MSTORE DUP1 SWAP3 SWAP2 SWAP1 DUP2 DUP2 MSTORE PUSH1 0x20 ADD DUP3 DUP1 SLOAD PUSH2 0x397 SWAP1 PUSH2 0x22FC JUMP JUMPDEST DUP1 ISZERO PUSH2 0x3E4 JUMPI DUP1 PUSH1 0x1F LT PUSH2 0x3B9 JUMPI PUSH2 0x100 DUP1 DUP4 SLOAD DIV MUL DUP4 MSTORE SWAP2 PUSH1 0x20 ADD SWAP2 PUSH2 0x3E4 JUMP JUMPDEST DUP3 ADD SWAP2 SWAP1 PUSH1 0x0 MSTORE PUSH1 0x20 PUSH1 0x0 KECCAK256 SWAP1 JUMPDEST DUP2 SLOAD DUP2 MSTORE SWAP1 PUSH1 0x1 ADD SWAP1 PUSH1 0x20 ADD DUP1 DUP4 GT PUSH2 0x3C7 JUMPI DUP3 SWAP1 SUB PUSH1 0x1F AND DUP3 ADD SWAP2 JUMPDEST POP POP POP POP POP DUP2 JUMP JUMPDEST PUSH32 0xB287B1268869B370EF6E3757DA08791329A45A552E3D361855EA662ADC6FD9A3 PUSH1 0x40 MLOAD PUSH1 0x40 MLOAD DUP1 SWAP2 SUB SWAP1 LOG1 PUSH1 0x0 PUSH1 0x3 PUSH8 0xFFFFFFFFFFFFFFFF DUP2 GT ISZERO PUSH2 0x435 JUMPI PUSH2 0x434 PUSH2 0x1BB3 JUMP JUMPDEST JUMPDEST PUSH1 0x40 MLOAD SWAP1 DUP1 DUP3 MSTORE DUP1 PUSH1 0x20 MUL PUSH1 0x20 ADD DUP3 ADD PUSH1 0x40 MSTORE DUP1 ISZERO PUSH2 0x468 JUMPI DUP2 PUSH1 0x20 ADD JUMPDEST PUSH1 0x60 DUP2 MSTORE PUSH1 0x20 ADD SWAP1 PUSH1 0x1 SWAP1 SUB SWAP1 DUP2 PUSH2 0x453 JUMPI SWAP1 POP JUMPDEST POP SWAP1 POP PUSH1 0x5 DUP1 SLOAD PUSH2 0x478 SWAP1 PUSH2 0x22FC JUMP JUMPDEST DUP1 PUSH1 0x1F ADD PUSH1 0x20 DUP1 SWAP2 DIV MUL PUSH1 0x20 ADD PUSH1 0x40 MLOAD SWAP1 DUP2 ADD PUSH1 0x40 MSTORE DUP1 SWAP3 SWAP2 SWAP1 DUP2 DUP2 MSTORE PUSH1 0x20 ADD DUP3 DUP1 SLOAD PUSH2 0x4A4 SWAP1 PUSH2 0x22FC JUMP JUMPDEST DUP1 ISZERO PUSH2 0x4F1 JUMPI DUP1 PUSH1 0x1F LT PUSH2 0x4C6 JUMPI PUSH2 0x100 DUP1 DUP4 SLOAD DIV MUL DUP4 MSTORE SWAP2 PUSH1 0x20 ADD SWAP2 PUSH2 0x4F1 JUMP JUMPDEST DUP3 ADD SWAP2 SWAP1 PUSH1 0x0 MSTORE PUSH1 0x20 PUSH1 0x0 KECCAK256 SWAP1 JUMPDEST DUP2 SLOAD DUP2 MSTORE SWAP1 PUSH1 0x1 ADD SWAP1 PUSH1 0x20 ADD DUP1 DUP4 GT PUSH2 0x4D4 JUMPI DUP3 SWAP1 SUB PUSH1 0x1F AND DUP3 ADD SWAP2 JUMPDEST POP POP POP POP POP DUP2 PUSH1 0x0 DUP2 MLOAD DUP2 LT PUSH2 0x50A JUMPI PUSH2 0x509 PUSH2 0x232D JUMP JUMPDEST JUMPDEST PUSH1 0x20 MUL PUSH1 0x20 ADD ADD DUP2 SWAP1 MSTORE POP PUSH1 0x6 DUP1 SLOAD PUSH2 0x522 SWAP1 PUSH2 0x22FC JUMP JUMPDEST DUP1 PUSH1 0x1F ADD PUSH1 0x20 DUP1 SWAP2 DIV MUL PUSH1 0x20 ADD PUSH1 0x40 MLOAD SWAP1 DUP2 ADD PUSH1 0x40 MSTORE DUP1 SWAP3 SWAP2 SWAP1 DUP2 DUP2 MSTORE PUSH1 0x20 ADD DUP3 DUP1 SLOAD PUSH2 0x54E SWAP1 PUSH2 0x22FC JUMP JUMPDEST DUP1 ISZERO PUSH2 0x59B JUMPI DUP1 PUSH1 0x1F LT PUSH2 0x570 JUMPI PUSH2 0x100 DUP1 DUP4 SLOAD DIV MUL DUP4 MSTORE SWAP2 PUSH1 0x20 ADD SWAP2 PUSH2 0x59B JUMP JUMPDEST DUP3 ADD SWAP2 SWAP1 PUSH1 0x0 MSTORE PUSH1 0x20 PUSH1 0x0 KECCAK256 SWAP1 JUMPDEST DUP2 SLOAD DUP2 MSTORE SWAP1 PUSH1 0x1 ADD SWAP1 PUSH1 0x20 ADD DUP1 DUP4 GT PUSH2 0x57E JUMPI DUP3 SWAP1 SUB PUSH1 0x1F AND DUP3 ADD SWAP2 JUMPDEST POP POP POP POP POP DUP2 PUSH1 0x1 DUP2 MLOAD DUP2 LT PUSH2 0x5B4 JUMPI PUSH2 0x5B3 PUSH2 0x232D JUMP JUMPDEST JUMPDEST PUSH1 0x20 MUL PUSH1 0x20 ADD ADD DUP2 SWAP1 MSTORE POP PUSH1 0x7 DUP1 SLOAD PUSH2 0x5CC SWAP1 PUSH2 0x22FC JUMP JUMPDEST DUP1 PUSH1 0x1F ADD PUSH1 0x20 DUP1 SWAP2 DIV MUL PUSH1 0x20 ADD PUSH1 0x40 MLOAD SWAP1 DUP2 ADD PUSH1 0x40 MSTORE DUP1 SWAP3 SWAP2 SWAP1 DUP2 DUP2 MSTORE PUSH1 0x20 ADD DUP3 DUP1 SLOAD PUSH2 0x5F8 SWAP1 PUSH2 0x22FC JUMP JUMPDEST DUP1 ISZERO PUSH2 0x645 JUMPI DUP1 PUSH1 0x1F LT PUSH2 0x61A JUMPI PUSH2 0x100 DUP1 DUP4 SLOAD DIV MUL DUP4 MSTORE SWAP2 PUSH1 0x20 ADD SWAP2 PUSH2 0x645 JUMP JUMPDEST DUP3 ADD SWAP2 SWAP1 PUSH1 0x0 MSTORE PUSH1 0x20 PUSH1 0x0 KECCAK256 SWAP1 JUMPDEST DUP2 SLOAD DUP2 MSTORE SWAP1 PUSH1 0x1 ADD SWAP1 PUSH1 0x20 ADD DUP1 DUP4 GT PUSH2 0x628 JUMPI DUP3 SWAP1 SUB PUSH1 0x1F AND DUP3 ADD SWAP2 JUMPDEST POP POP POP POP POP DUP2 PUSH1 0x2 DUP2 MLOAD DUP2 LT PUSH2 0x65E JUMPI PUSH2 0x65D PUSH2 0x232D JUMP JUMPDEST JUMPDEST PUSH1 0x20 MUL PUSH1 0x20 ADD ADD DUP2 SWAP1 MSTORE POP ADDRESS PUSH20 0xFFFFFFFFFFFFFFFFFFFFFFFFFFFFFFFFFFFFFFFF AND PUSH4 0x6420BB09 DUP3 PUSH1 0x40 MLOAD DUP3 PUSH4 0xFFFFFFFF AND PUSH1 0xE0 SHL DUP2 MSTORE PUSH1 0x4 ADD PUSH2 0x6A2 SWAP2 SWAP1 PUSH2 0x2A52 JUMP JUMPDEST PUSH1 0x20 PUSH1 0x40 MLOAD DUP1 DUP4 SUB DUP2 PUSH1 0x0 DUP8 GAS CALL ISZERO DUP1 ISZERO PUSH2 0x6C1 JUMPI RETURNDATASIZE PUSH1 0x0 DUP1 RETURNDATACOPY RETURNDATASIZE PUSH1 0x0 REVERT JUMPDEST POP POP POP POP PUSH1 0x40 MLOAD RETURNDATASIZE PUSH1 0x1F NOT PUSH1 0x1F DUP3 ADD AND DUP3 ADD DUP1 PUSH1 0x40 MSTORE POP DUP2 ADD SWAP1 PUSH2 0x6E5 SWAP2 SWAP1 PUSH2 0x2A9C JUMP JUMPDEST POP POP POP POP JUMP JUMPDEST PUSH1 0x4 DUP1 SLOAD PUSH2 0x6F8 SWAP1 PUSH2 0x22FC JUMP JUMPDEST DUP1 PUSH1 0x1F ADD PUSH1 0x20 DUP1 SWAP2 DIV MUL PUSH1 0x20 ADD PUSH1 0x40 MLOAD SWAP1 DUP2 ADD PUSH1 0x40 MSTORE DUP1 SWAP3 SWAP2 SWAP1 DUP2 DUP2 MSTORE PUSH1 0x20 ADD DUP3 DUP1 SLOAD PUSH2 0x724 SWAP1 PUSH2 0x22FC JUMP JUMPDEST DUP1 ISZERO PUSH2 0x771 JUMPI DUP1 PUSH1 0x1F LT PUSH2 0x746 JUMPI PUSH2 0x100 DUP1 DUP4 SLOAD DIV MUL DUP4 MSTORE SWAP2 PUSH1 0x20 ADD SWAP2 PUSH2 0x771 JUMP JUMPDEST DUP3 ADD SWAP2 SWAP1 PUSH1 0x0 MSTORE PUSH1 0x20 PUSH1 0x0 KECCAK256 SWAP1 JUMPDEST DUP2 SLOAD DUP2 MSTORE SWAP1 PUSH1 0x1 ADD SWAP1 PUSH1 0x20 ADD DUP1 DUP4 GT PUSH2 0x754 JUMPI DUP3 SWAP1 SUB PUSH1 0x1F AND DUP3 ADD SWAP2 JUMPDEST POP POP POP POP POP DUP2 JUMP JUMPDEST PUSH2 0x781 PUSH2 0xD75 JUMP JUMPDEST DUP3 PUSH1 0x5 SWAP1 DUP2 PUSH2 0x790 SWAP2 SWAP1 PUSH2 0x2C7F JUMP JUMPDEST POP DUP2 PUSH1 0x6 SWAP1 DUP2 PUSH2 0x7A0 SWAP2 SWAP1 PUSH2 0x2C7F JUMP JUMPDEST POP DUP1 PUSH1 0x7 SWAP1 DUP2 PUSH2 0x7B0 SWAP2 SWAP1 PUSH2 0x2C7F JUMP JUMPDEST POP POP POP POP JUMP JUMPDEST PUSH1 0x0 PUSH2 0x7C0 PUSH2 0x1AA2 JUMP JUMPDEST PUSH2 0x817 DUP7 DUP7 DUP1 DUP1 PUSH1 0x1F ADD PUSH1 0x20 DUP1 SWAP2 DIV MUL PUSH1 0x20 ADD PUSH1 0x40 MLOAD SWAP1 DUP2 ADD PUSH1 0x40 MSTORE DUP1 SWAP4 SWAP3 SWAP2 SWAP1 DUP2 DUP2 MSTORE PUSH1 0x20 ADD DUP4 DUP4 DUP1 DUP3 DUP5 CALLDATACOPY PUSH1 0x0 DUP2 DUP5 ADD MSTORE PUSH1 0x1F NOT PUSH1 0x1F DUP3 ADD AND SWAP1 POP DUP1 DUP4 ADD SWAP3 POP POP POP POP POP POP POP DUP3 PUSH2 0xE05 SWAP1 SWAP2 SWAP1 PUSH4 0xFFFFFFFF AND JUMP JUMPDEST PUSH1 0x0 DUP5 DUP5 SWAP1 POP GT ISZERO PUSH2 0x843 JUMPI PUSH2 0x842 DUP5 DUP5 SWAP1 PUSH2 0x833 SWAP2 SWAP1 PUSH2 0x2E04 JUMP JUMPDEST DUP3 PUSH2 0xE16 SWAP1 SWAP2 SWAP1 PUSH4 0xFFFFFFFF AND JUMP JUMPDEST JUMPDEST PUSH2 0x881 PUSH2 0x84F DUP3 PUSH2 0xE5E JUMP JUMPDEST PUSH1 0x9 PUSH1 0x0 SWAP1 SLOAD SWAP1 PUSH2 0x100 EXP SWAP1 DIV PUSH8 0xFFFFFFFFFFFFFFFF AND PUSH1 0x9 PUSH1 0x8 SWAP1 SLOAD SWAP1 PUSH2 0x100 EXP SWAP1 DIV PUSH4 0xFFFFFFFF AND PUSH1 0x8 SLOAD PUSH2 0x126E JUMP JUMPDEST SWAP2 POP PUSH1 0x0 DUP1 SHL DUP3 SUB PUSH2 0x8C8 JUMPI PUSH1 0x40 MLOAD PUSH32 0x8C379A000000000000000000000000000000000000000000000000000000000 DUP2 MSTORE PUSH1 0x4 ADD PUSH2 0x8BF SWAP1 PUSH2 0x2E65 JUMP JUMPDEST PUSH1 0x40 MLOAD DUP1 SWAP2 SUB SWAP1 REVERT JUMPDEST DUP2 PUSH1 0x2 DUP2 SWAP1 SSTORE POP DUP2 PUSH32 0x25386196A3094BAE1A8DBA37528C5FC98ADC5EF2B6F1B147E597C9BFF5EE265C PUSH1 0x40 MLOAD PUSH1 0x40 MLOAD DUP1 SWAP2 SUB SWAP1 LOG2 POP SWAP5 SWAP4 POP POP POP POP JUMP JUMPDEST PUSH1 0x0 PUSH1 0x60 PUSH1 0x1 SWAP2 POP PUSH1 0x40 MLOAD PUSH1 0x20 ADD PUSH2 0x91C SWAP1 PUSH2 0x2EAB JUMP JUMPDEST PUSH1 0x40 MLOAD PUSH1 0x20 DUP2 DUP4 SUB SUB DUP2 MSTORE SWAP1 PUSH1 0x40 MSTORE SWAP1 POP SWAP3 POP SWAP3 SWAP1 POP JUMP JUMPDEST PUSH1 0x5 DUP1 SLOAD PUSH2 0x941 SWAP1 PUSH2 0x22FC JUMP JUMPDEST DUP1 PUSH1 0x1F ADD PUSH1 0x20 DUP1 SWAP2 DIV MUL PUSH1 0x20 ADD PUSH1 0x40 MLOAD SWAP1 DUP2 ADD PUSH1 0x40 MSTORE DUP1 SWAP3 SWAP2 SWAP1 DUP2 DUP2 MSTORE PUSH1 0x20 ADD DUP3 DUP1 SLOAD PUSH2 0x96D SWAP1 PUSH2 0x22FC JUMP JUMPDEST DUP1 ISZERO PUSH2 0x9BA JUMPI DUP1 PUSH1 0x1F LT PUSH2 0x98F JUMPI PUSH2 0x100 DUP1 DUP4 SLOAD DIV MUL DUP4 MSTORE SWAP2 PUSH1 0x20 ADD SWAP2 PUSH2 0x9BA JUMP JUMPDEST DUP3 ADD SWAP2 SWAP1 PUSH1 0x0 MSTORE PUSH1 0x20 PUSH1 0x0 KECCAK256 SWAP1 JUMPDEST DUP2 SLOAD DUP2 MSTORE SWAP1 PUSH1 0x1 ADD SWAP1 PUSH1 0x20 ADD DUP1 DUP4 GT PUSH2 0x99D JUMPI DUP3 SWAP1 SUB PUSH1 0x1F AND DUP3 ADD SWAP2 JUMPDEST POP POP POP POP POP DUP2 JUMP JUMPDEST PUSH1 0x1 PUSH1 0x0 SWAP1 SLOAD SWAP1 PUSH2 0x100 EXP SWAP1 DIV PUSH20 0xFFFFFFFFFFFFFFFFFFFFFFFFFFFFFFFFFFFFFFFF AND PUSH20 0xFFFFFFFFFFFFFFFFFFFFFFFFFFFFFFFFFFFFFFFF AND CALLER PUSH20 0xFFFFFFFFFFFFFFFFFFFFFFFFFFFFFFFFFFFFFFFF AND EQ PUSH2 0xA52 JUMPI PUSH1 0x40 MLOAD PUSH32 0x8C379A000000000000000000000000000000000000000000000000000000000 DUP2 MSTORE PUSH1 0x4 ADD PUSH2 0xA49 SWAP1 PUSH2 0x2F17 JUMP JUMPDEST PUSH1 0x40 MLOAD DUP1 SWAP2 SUB SWAP1 REVERT JUMPDEST PUSH1 0x0 DUP1 PUSH1 0x0 SWAP1 SLOAD SWAP1 PUSH2 0x100 EXP SWAP1 DIV PUSH20 0xFFFFFFFFFFFFFFFFFFFFFFFFFFFFFFFFFFFFFFFF AND SWAP1 POP CALLER PUSH1 0x0 DUP1 PUSH2 0x100 EXP DUP2 SLOAD DUP2 PUSH20 0xFFFFFFFFFFFFFFFFFFFFFFFFFFFFFFFFFFFFFFFF MUL NOT AND SWAP1 DUP4 PUSH20 0xFFFFFFFFFFFFFFFFFFFFFFFFFFFFFFFFFFFFFFFF AND MUL OR SWAP1 SSTORE POP PUSH1 0x0 PUSH1 0x1 PUSH1 0x0 PUSH2 0x100 EXP DUP2 SLOAD DUP2 PUSH20 0xFFFFFFFFFFFFFFFFFFFFFFFFFFFFFFFFFFFFFFFF MUL NOT AND SWAP1 DUP4 PUSH20 0xFFFFFFFFFFFFFFFFFFFFFFFFFFFFFFFFFFFFFFFF AND MUL OR SWAP1 SSTORE POP CALLER PUSH20 0xFFFFFFFFFFFFFFFFFFFFFFFFFFFFFFFFFFFFFFFF AND DUP2 PUSH20 0xFFFFFFFFFFFFFFFFFFFFFFFFFFFFFFFFFFFFFFFF AND PUSH32 0x8BE0079C531659141344CD1FD0A4F28419497F9722A3DAAFE3B4186F6B6457E0 PUSH1 0x40 MLOAD PUSH1 0x40 MLOAD DUP1 SWAP2 SUB SWAP1 LOG3 POP JUMP JUMPDEST PUSH1 0x0 DUP1 PUSH1 0x0 SWAP1 SLOAD SWAP1 PUSH2 0x100 EXP SWAP1 DIV PUSH20 0xFFFFFFFFFFFFFFFFFFFFFFFFFFFFFFFFFFFFFFFF AND SWAP1 POP SWAP1 JUMP JUMPDEST PUSH1 0x6 DUP1 SLOAD PUSH2 0xB8D SWAP1 PUSH2 0x22FC JUMP JUMPDEST DUP1 PUSH1 0x1F ADD PUSH1 0x20 DUP1 SWAP2 DIV MUL PUSH1 0x20 ADD PUSH1 0x40 MLOAD SWAP1 DUP2 ADD PUSH1 0x40 MSTORE DUP1 SWAP3 SWAP2 SWAP1 DUP2 DUP2 MSTORE PUSH1 0x20 ADD DUP3 DUP1 SLOAD PUSH2 0xBB9 SWAP1 PUSH2 0x22FC JUMP JUMPDEST DUP1 ISZERO PUSH2 0xC06 JUMPI DUP1 PUSH1 0x1F LT PUSH2 0xBDB JUMPI PUSH2 0x100 DUP1 DUP4 SLOAD DIV MUL DUP4 MSTORE SWAP2 PUSH1 0x20 ADD SWAP2 PUSH2 0xC06 JUMP JUMPDEST DUP3 ADD SWAP2 SWAP1 PUSH1 0x0 MSTORE PUSH1 0x20 PUSH1 0x0 KECCAK256 SWAP1 JUMPDEST DUP2 SLOAD DUP2 MSTORE SWAP1 PUSH1 0x1 ADD SWAP1 PUSH1 0x20 ADD DUP1 DUP4 GT PUSH2 0xBE9 JUMPI DUP3 SWAP1 SUB PUSH1 0x1F AND DUP3 ADD SWAP2 JUMPDEST POP POP POP POP POP DUP2 JUMP JUMPDEST PUSH1 0x2 SLOAD DUP2 JUMP JUMPDEST PUSH1 0x7 DUP1 SLOAD PUSH2 0xC21 SWAP1 PUSH2 0x22FC JUMP JUMPDEST DUP1 PUSH1 0x1F ADD PUSH1 0x20 DUP1 SWAP2 DIV MUL PUSH1 0x20 ADD PUSH1 0x40 MLOAD SWAP1 DUP2 ADD PUSH1 0x40 MSTORE DUP1 SWAP3 SWAP2 SWAP1 DUP2 DUP2 MSTORE PUSH1 0x20 ADD DUP3 DUP1 SLOAD PUSH2 0xC4D SWAP1 PUSH2 0x22FC JUMP JUMPDEST DUP1 ISZERO PUSH2 0xC9A JUMPI DUP1 PUSH1 0x1F LT PUSH2 0xC6F JUMPI PUSH2 0x100 DUP1 DUP4 SLOAD DIV MUL DUP4 MSTORE SWAP2 PUSH1 0x20 ADD SWAP2 PUSH2 0xC9A JUMP JUMPDEST DUP3 ADD SWAP2 SWAP1 PUSH1 0x0 MSTORE PUSH1 0x20 PUSH1 0x0 KECCAK256 SWAP1 JUMPDEST DUP2 SLOAD DUP2 MSTORE SWAP1 PUSH1 0x1 ADD SWAP1 PUSH1 0x20 ADD DUP1 DUP4 GT PUSH2 0xC7D JUMPI DUP3 SWAP1 SUB PUSH1 0x1F AND DUP3 ADD SWAP2 JUMPDEST POP POP POP POP POP DUP2 JUMP JUMPDEST PUSH2 0xCAA PUSH2 0xD75 JUMP JUMPDEST PUSH2 0xCB3 DUP2 PUSH2 0x1351 JUMP JUMPDEST POP JUMP JUMPDEST DUP2 PUSH1 0x3 SWAP1 DUP2 PUSH2 0xCC5 SWAP2 SWAP1 PUSH2 0x2F92 JUMP JUMPDEST POP DUP1 PUSH1 0x4 SWAP1 DUP2 PUSH2 0xCD5 SWAP2 SWAP1 PUSH2 0x2F92 JUMP JUMPDEST POP PUSH1 0x0 DUP2 MLOAD GT PUSH2 0xD70 JUMPI PUSH1 0x0 DUP3 DUP1 PUSH1 0x20 ADD SWAP1 MLOAD DUP2 ADD SWAP1 PUSH2 0xCF5 SWAP2 SWAP1 PUSH2 0x313C JUMP JUMPDEST SWAP1 POP PUSH1 0x0 JUMPDEST DUP2 MLOAD DUP2 LT ISZERO PUSH2 0xD6D JUMPI DUP2 DUP2 DUP2 MLOAD DUP2 LT PUSH2 0xD16 JUMPI PUSH2 0xD15 PUSH2 0x232D JUMP JUMPDEST JUMPDEST PUSH1 0x20 MUL PUSH1 0x20 ADD ADD MLOAD PUSH20 0xFFFFFFFFFFFFFFFFFFFFFFFFFFFFFFFFFFFFFFFF AND PUSH32 0xACCB72E702C6C84FD241E089001156746B87DC57634BF6894DF3F839EFD3EBBB PUSH1 0x40 MLOAD PUSH1 0x40 MLOAD DUP1 SWAP2 SUB SWAP1 LOG2 DUP1 DUP1 PUSH1 0x1 ADD SWAP2 POP POP PUSH2 0xCFA JUMP JUMPDEST POP POP JUMPDEST POP POP POP JUMP JUMPDEST PUSH1 0x0 DUP1 SLOAD SWAP1 PUSH2 0x100 EXP SWAP1 DIV PUSH20 0xFFFFFFFFFFFFFFFFFFFFFFFFFFFFFFFFFFFFFFFF AND PUSH20 0xFFFFFFFFFFFFFFFFFFFFFFFFFFFFFFFFFFFFFFFF AND CALLER PUSH20 0xFFFFFFFFFFFFFFFFFFFFFFFFFFFFFFFFFFFFFFFF AND EQ PUSH2 0xE03 JUMPI PUSH1 0x40 MLOAD PUSH32 0x8C379A000000000000000000000000000000000000000000000000000000000 DUP2 MSTORE PUSH1 0x4 ADD PUSH2 0xDFA SWAP1 PUSH2 0x31D1 JUMP JUMPDEST PUSH1 0x40 MLOAD DUP1 SWAP2 SUB SWAP1 REVERT JUMPDEST JUMP JUMPDEST PUSH2 0xE12 DUP3 PUSH1 0x0 DUP1 DUP5 PUSH2 0x147D JUMP JUMPDEST POP POP JUMP JUMPDEST PUSH1 0x0 DUP2 MLOAD SUB PUSH2 0xE51 JUMPI PUSH1 0x40 MLOAD PUSH32 0xFE936CB700000000000000000000000000000000000000000000000000000000 DUP2 MSTORE PUSH1 0x4 ADD PUSH1 0x40 MLOAD DUP1 SWAP2 SUB SWAP1 REVERT JUMPDEST DUP1 DUP3 PUSH1 0xA0 ADD DUP2 SWAP1 MSTORE POP POP POP JUMP JUMPDEST PUSH1 0x60 PUSH1 0x0 PUSH2 0xE6D PUSH2 0x100 PUSH2 0x1527 JUMP JUMPDEST SWAP1 POP PUSH2 0xEB7 PUSH1 0x40 MLOAD DUP1 PUSH1 0x40 ADD PUSH1 0x40 MSTORE DUP1 PUSH1 0xC DUP2 MSTORE PUSH1 0x20 ADD PUSH32 0x636F64654C6F636174696F6E0000000000000000000000000000000000000000 DUP2 MSTORE POP DUP3 PUSH2 0x154E SWAP1 SWAP2 SWAP1 PUSH4 0xFFFFFFFF AND JUMP JUMPDEST PUSH2 0xEE0 DUP4 PUSH1 0x0 ADD MLOAD PUSH1 0x2 DUP2 GT ISZERO PUSH2 0xED1 JUMPI PUSH2 0xED0 PUSH2 0x31F1 JUMP JUMPDEST JUMPDEST DUP3 PUSH2 0x1577 SWAP1 SWAP2 SWAP1 PUSH4 0xFFFFFFFF AND JUMP JUMPDEST PUSH2 0xF28 PUSH1 0x40 MLOAD DUP1 PUSH1 0x40 ADD PUSH1 0x40 MSTORE DUP1 PUSH1 0x8 DUP2 MSTORE PUSH1 0x20 ADD PUSH32 0x6C616E6775616765000000000000000000000000000000000000000000000000 DUP2 MSTORE POP DUP3 PUSH2 0x154E SWAP1 SWAP2 SWAP1 PUSH4 0xFFFFFFFF AND JUMP JUMPDEST PUSH2 0xF51 DUP4 PUSH1 0x40 ADD MLOAD PUSH1 0x0 DUP2 GT ISZERO PUSH2 0xF42 JUMPI PUSH2 0xF41 PUSH2 0x31F1 JUMP JUMPDEST JUMPDEST DUP3 PUSH2 0x1577 SWAP1 SWAP2 SWAP1 PUSH4 0xFFFFFFFF AND JUMP JUMPDEST PUSH2 0xF99 PUSH1 0x40 MLOAD DUP1 PUSH1 0x40 ADD PUSH1 0x40 MSTORE DUP1 PUSH1 0x6 DUP2 MSTORE PUSH1 0x20 ADD PUSH32 0x736F757263650000000000000000000000000000000000000000000000000000 DUP2 MSTORE POP DUP3 PUSH2 0x154E SWAP1 SWAP2 SWAP1 PUSH4 0xFFFFFFFF AND JUMP JUMPDEST PUSH2 0xFB0 DUP4 PUSH1 0x60 ADD MLOAD DUP3 PUSH2 0x154E SWAP1 SWAP2 SWAP1 PUSH4 0xFFFFFFFF AND JUMP JUMPDEST PUSH1 0x0 DUP4 PUSH1 0xA0 ADD MLOAD MLOAD GT ISZERO PUSH2 0x1066 JUMPI PUSH2 0x1006 PUSH1 0x40 MLOAD DUP1 PUSH1 0x40 ADD PUSH1 0x40 MSTORE DUP1 PUSH1 0x4 DUP2 MSTORE PUSH1 0x20 ADD PUSH32 0x6172677300000000000000000000000000000000000000000000000000000000 DUP2 MSTORE POP DUP3 PUSH2 0x154E SWAP1 SWAP2 SWAP1 PUSH4 0xFFFFFFFF AND JUMP JUMPDEST PUSH2 0x100F DUP2 PUSH2 0x15C7 JUMP JUMPDEST PUSH1 0x0 JUMPDEST DUP4 PUSH1 0xA0 ADD MLOAD MLOAD DUP2 LT ISZERO PUSH2 0x105B JUMPI PUSH2 0x1050 DUP5 PUSH1 0xA0 ADD MLOAD DUP3 DUP2 MLOAD DUP2 LT PUSH2 0x1039 JUMPI PUSH2 0x1038 PUSH2 0x232D JUMP JUMPDEST JUMPDEST PUSH1 0x20 MUL PUSH1 0x20 ADD ADD MLOAD DUP4 PUSH2 0x154E SWAP1 SWAP2 SWAP1 PUSH4 0xFFFFFFFF AND JUMP JUMPDEST DUP1 PUSH1 0x1 ADD SWAP1 POP PUSH2 0x1012 JUMP JUMPDEST POP PUSH2 0x1065 DUP2 PUSH2 0x15EF JUMP JUMPDEST JUMPDEST PUSH1 0x0 DUP4 PUSH1 0x80 ADD MLOAD MLOAD GT ISZERO PUSH2 0x11A7 JUMPI PUSH1 0x0 PUSH1 0x2 DUP2 GT ISZERO PUSH2 0x1088 JUMPI PUSH2 0x1087 PUSH2 0x31F1 JUMP JUMPDEST JUMPDEST DUP4 PUSH1 0x20 ADD MLOAD PUSH1 0x2 DUP2 GT ISZERO PUSH2 0x109F JUMPI PUSH2 0x109E PUSH2 0x31F1 JUMP JUMPDEST JUMPDEST SUB PUSH2 0x10D6 JUMPI PUSH1 0x40 MLOAD PUSH32 0xA80D31F700000000000000000000000000000000000000000000000000000000 DUP2 MSTORE PUSH1 0x4 ADD PUSH1 0x40 MLOAD DUP1 SWAP2 SUB SWAP1 REVERT JUMPDEST PUSH2 0x111E PUSH1 0x40 MLOAD DUP1 PUSH1 0x40 ADD PUSH1 0x40 MSTORE DUP1 PUSH1 0xF DUP2 MSTORE PUSH1 0x20 ADD PUSH32 0x736563726574734C6F636174696F6E0000000000000000000000000000000000 DUP2 MSTORE POP DUP3 PUSH2 0x154E SWAP1 SWAP2 SWAP1 PUSH4 0xFFFFFFFF AND JUMP JUMPDEST PUSH2 0x1147 DUP4 PUSH1 0x20 ADD MLOAD PUSH1 0x2 DUP2 GT ISZERO PUSH2 0x1138 JUMPI PUSH2 0x1137 PUSH2 0x31F1 JUMP JUMPDEST JUMPDEST DUP3 PUSH2 0x1577 SWAP1 SWAP2 SWAP1 PUSH4 0xFFFFFFFF AND JUMP JUMPDEST PUSH2 0x118F PUSH1 0x40 MLOAD DUP1 PUSH1 0x40 ADD PUSH1 0x40 MSTORE DUP1 PUSH1 0x7 DUP2 MSTORE PUSH1 0x20 ADD PUSH32 0x7365637265747300000000000000000000000000000000000000000000000000 DUP2 MSTORE POP DUP3 PUSH2 0x154E SWAP1 SWAP2 SWAP1 PUSH4 0xFFFFFFFF AND JUMP JUMPDEST PUSH2 0x11A6 DUP4 PUSH1 0x80 ADD MLOAD DUP3 PUSH2 0x1617 SWAP1 SWAP2 SWAP1 PUSH4 0xFFFFFFFF AND JUMP JUMPDEST JUMPDEST PUSH1 0x0 DUP4 PUSH1 0xC0 ADD MLOAD MLOAD GT ISZERO PUSH2 0x125D JUMPI PUSH2 0x11FD PUSH1 0x40 MLOAD DUP1 PUSH1 0x40 ADD PUSH1 0x40 MSTORE DUP1 PUSH1 0x9 DUP2 MSTORE PUSH1 0x20 ADD PUSH32 0x6279746573417267730000000000000000000000000000000000000000000000 DUP2 MSTORE POP DUP3 PUSH2 0x154E SWAP1 SWAP2 SWAP1 PUSH4 0xFFFFFFFF AND JUMP JUMPDEST PUSH2 0x1206 DUP2 PUSH2 0x15C7 JUMP JUMPDEST PUSH1 0x0 JUMPDEST DUP4 PUSH1 0xC0 ADD MLOAD MLOAD DUP2 LT ISZERO PUSH2 0x1252 JUMPI PUSH2 0x1247 DUP5 PUSH1 0xC0 ADD MLOAD DUP3 DUP2 MLOAD DUP2 LT PUSH2 0x1230 JUMPI PUSH2 0x122F PUSH2 0x232D JUMP JUMPDEST JUMPDEST PUSH1 0x20 MUL PUSH1 0x20 ADD ADD MLOAD DUP4 PUSH2 0x1617 SWAP1 SWAP2 SWAP1 PUSH4 0xFFFFFFFF AND JUMP JUMPDEST DUP1 PUSH1 0x1 ADD SWAP1 POP PUSH2 0x1209 JUMP JUMPDEST POP PUSH2 0x125C DUP2 PUSH2 0x15EF JUMP JUMPDEST JUMPDEST DUP1 PUSH1 0x0 ADD MLOAD PUSH1 0x0 ADD MLOAD SWAP2 POP POP SWAP2 SWAP1 POP JUMP JUMPDEST PUSH1 0x0 DUP1 PUSH32 0x0 PUSH20 0xFFFFFFFFFFFFFFFFFFFFFFFFFFFFFFFFFFFFFFFF AND PUSH4 0x461D2762 DUP7 DUP9 PUSH1 0x1 DUP9 DUP9 PUSH1 0x40 MLOAD DUP7 PUSH4 0xFFFFFFFF AND PUSH1 0xE0 SHL DUP2 MSTORE PUSH1 0x4 ADD PUSH2 0x12D3 SWAP6 SWAP5 SWAP4 SWAP3 SWAP2 SWAP1 PUSH2 0x327F JUMP JUMPDEST PUSH1 0x20 PUSH1 0x40 MLOAD DUP1 DUP4 SUB DUP2 PUSH1 0x0 DUP8 GAS CALL ISZERO DUP1 ISZERO PUSH2 0x12F2 JUMPI RETURNDATASIZE PUSH1 0x0 DUP1 RETURNDATACOPY RETURNDATASIZE PUSH1 0x0 REVERT JUMPDEST POP POP POP POP PUSH1 0x40 MLOAD RETURNDATASIZE PUSH1 0x1F NOT PUSH1 0x1F DUP3 ADD AND DUP3 ADD DUP1 PUSH1 0x40 MSTORE POP DUP2 ADD SWAP1 PUSH2 0x1316 SWAP2 SWAP1 PUSH2 0x2A9C JUMP JUMPDEST SWAP1 POP DUP1 PUSH32 0x1131472297A800FEE664D1D89CFA8F7676FF07189ECC53F80BBB5F4969099DB8 PUSH1 0x40 MLOAD PUSH1 0x40 MLOAD DUP1 SWAP2 SUB SWAP1 LOG2 DUP1 SWAP2 POP POP SWAP5 SWAP4 POP POP POP POP JUMP JUMPDEST CALLER PUSH20 0xFFFFFFFFFFFFFFFFFFFFFFFFFFFFFFFFFFFFFFFF AND DUP2 PUSH20 0xFFFFFFFFFFFFFFFFFFFFFFFFFFFFFFFFFFFFFFFF AND SUB PUSH2 0x13BF JUMPI PUSH1 0x40 MLOAD PUSH32 0x8C379A000000000000000000000000000000000000000000000000000000000 DUP2 MSTORE PUSH1 0x4 ADD PUSH2 0x13B6 SWAP1 PUSH2 0x3325 JUMP JUMPDEST PUSH1 0x40 MLOAD DUP1 SWAP2 SUB SWAP1 REVERT JUMPDEST DUP1 PUSH1 0x1 PUSH1 0x0 PUSH2 0x100 EXP DUP2 SLOAD DUP2 PUSH20 0xFFFFFFFFFFFFFFFFFFFFFFFFFFFFFFFFFFFFFFFF MUL NOT AND SWAP1 DUP4 PUSH20 0xFFFFFFFFFFFFFFFFFFFFFFFFFFFFFFFFFFFFFFFF AND MUL OR SWAP1 SSTORE POP DUP1 PUSH20 0xFFFFFFFFFFFFFFFFFFFFFFFFFFFFFFFFFFFFFFFF AND PUSH1 0x0 DUP1 SLOAD SWAP1 PUSH2 0x100 EXP SWAP1 DIV PUSH20 0xFFFFFFFFFFFFFFFFFFFFFFFFFFFFFFFFFFFFFFFF AND PUSH20 0xFFFFFFFFFFFFFFFFFFFFFFFFFFFFFFFFFFFFFFFF AND PUSH32 0xED8889F560326EB138920D842192F0EB3DD22B4F139C87A2C57538E05BAE1278 PUSH1 0x40 MLOAD PUSH1 0x40 MLOAD DUP1 SWAP2 SUB SWAP1 LOG3 POP JUMP JUMPDEST PUSH1 0x0 DUP2 MLOAD SUB PUSH2 0x14B8 JUMPI PUSH1 0x40 MLOAD PUSH32 0x22CE3EDD00000000000000000000000000000000000000000000000000000000 DUP2 MSTORE PUSH1 0x4 ADD PUSH1 0x40 MLOAD DUP1 SWAP2 SUB SWAP1 REVERT JUMPDEST DUP3 DUP5 PUSH1 0x0 ADD SWAP1 PUSH1 0x2 DUP2 GT ISZERO PUSH2 0x14D0 JUMPI PUSH2 0x14CF PUSH2 0x31F1 JUMP JUMPDEST JUMPDEST SWAP1 DUP2 PUSH1 0x2 DUP2 GT ISZERO PUSH2 0x14E4 JUMPI PUSH2 0x14E3 PUSH2 0x31F1 JUMP JUMPDEST JUMPDEST DUP2 MSTORE POP POP DUP2 DUP5 PUSH1 0x40 ADD SWAP1 PUSH1 0x0 DUP2 GT ISZERO PUSH2 0x1500 JUMPI PUSH2 0x14FF PUSH2 0x31F1 JUMP JUMPDEST JUMPDEST SWAP1 DUP2 PUSH1 0x0 DUP2 GT ISZERO PUSH2 0x1514 JUMPI PUSH2 0x1513 PUSH2 0x31F1 JUMP JUMPDEST JUMPDEST DUP2 MSTORE POP POP DUP1 DUP5 PUSH1 0x60 ADD DUP2 SWAP1 MSTORE POP POP POP POP POP JUMP JUMPDEST PUSH2 0x152F PUSH2 0x1B14 JUMP JUMPDEST PUSH2 0x153D DUP2 PUSH1 0x0 ADD MLOAD DUP4 PUSH2 0x1640 JUMP JUMPDEST POP PUSH1 0x0 DUP2 PUSH1 0x20 ADD DUP2 DUP2 MSTORE POP POP SWAP2 SWAP1 POP JUMP JUMPDEST PUSH2 0x155B DUP3 PUSH1 0x3 DUP4 MLOAD PUSH2 0x16B9 JUMP JUMPDEST PUSH2 0x1572 DUP2 DUP4 PUSH1 0x0 ADD MLOAD PUSH2 0x1862 SWAP1 SWAP2 SWAP1 PUSH4 0xFFFFFFFF AND JUMP JUMPDEST POP POP POP JUMP JUMPDEST PUSH2 0x1599 PUSH1 0x2 PUSH1 0x5 PUSH1 0x6 PUSH1 0xFF AND SWAP1 SHL OR DUP4 PUSH1 0x0 ADD MLOAD PUSH2 0x187E SWAP1 SWAP2 SWAP1 PUSH4 0xFFFFFFFF AND JUMP JUMPDEST POP PUSH2 0x15C3 DUP3 DUP3 PUSH1 0x40 MLOAD PUSH1 0x20 ADD PUSH2 0x15AF SWAP2 SWAP1 PUSH2 0x3354 JUMP JUMPDEST PUSH1 0x40 MLOAD PUSH1 0x20 DUP2 DUP4 SUB SUB DUP2 MSTORE SWAP1 PUSH1 0x40 MSTORE PUSH2 0x1617 JUMP JUMPDEST POP POP JUMP JUMPDEST PUSH2 0x15D2 DUP2 PUSH1 0x4 PUSH2 0x18E8 JUMP JUMPDEST PUSH1 0x1 DUP2 PUSH1 0x20 ADD DUP2 DUP2 MLOAD PUSH2 0x15E5 SWAP2 SWAP1 PUSH2 0x339E JUMP JUMPDEST SWAP2 POP DUP2 DUP2 MSTORE POP POP POP JUMP JUMPDEST PUSH2 0x15FA DUP2 PUSH1 0x7 PUSH2 0x18E8 JUMP JUMPDEST PUSH1 0x1 DUP2 PUSH1 0x20 ADD DUP2 DUP2 MLOAD PUSH2 0x160D SWAP2 SWAP1 PUSH2 0x33D2 JUMP JUMPDEST SWAP2 POP DUP2 DUP2 MSTORE POP POP POP JUMP JUMPDEST PUSH2 0x1624 DUP3 PUSH1 0x2 DUP4 MLOAD PUSH2 0x16B9 JUMP JUMPDEST PUSH2 0x163B DUP2 DUP4 PUSH1 0x0 ADD MLOAD PUSH2 0x1862 SWAP1 SWAP2 SWAP1 PUSH4 0xFFFFFFFF AND JUMP JUMPDEST POP POP POP JUMP JUMPDEST PUSH2 0x1648 PUSH2 0x1B34 JUMP JUMPDEST PUSH1 0x0 PUSH1 0x20 DUP4 PUSH2 0x1657 SWAP2 SWAP1 PUSH2 0x3435 JUMP JUMPDEST EQ PUSH2 0x1683 JUMPI PUSH1 0x20 DUP3 PUSH2 0x1669 SWAP2 SWAP1 PUSH2 0x3435 JUMP JUMPDEST PUSH1 0x20 PUSH2 0x1675 SWAP2 SWAP1 PUSH2 0x33D2 JUMP JUMPDEST DUP3 PUSH2 0x1680 SWAP2 SWAP1 PUSH2 0x339E JUMP JUMPDEST SWAP2 POP JUMPDEST DUP2 DUP4 PUSH1 0x20 ADD DUP2 DUP2 MSTORE POP POP PUSH1 0x40 MLOAD DUP1 DUP5 MSTORE PUSH1 0x0 DUP2 MSTORE DUP3 DUP2 ADD PUSH1 0x20 ADD DUP2 DUP2 LT ISZERO PUSH2 0x16AA JUMPI PUSH1 0x0 DUP1 REVERT JUMPDEST DUP1 PUSH1 0x40 MSTORE POP POP DUP3 SWAP1 POP SWAP3 SWAP2 POP POP JUMP JUMPDEST PUSH1 0x17 DUP2 PUSH8 0xFFFFFFFFFFFFFFFF AND GT PUSH2 0x16F4 JUMPI PUSH2 0x16EE DUP2 PUSH1 0x5 DUP5 PUSH1 0xFF AND SWAP1 SHL PUSH1 0xFF AND OR DUP5 PUSH1 0x0 ADD MLOAD PUSH2 0x187E SWAP1 SWAP2 SWAP1 PUSH4 0xFFFFFFFF AND JUMP JUMPDEST POP PUSH2 0x185D JUMP JUMPDEST PUSH1 0xFF DUP2 PUSH8 0xFFFFFFFFFFFFFFFF AND GT PUSH2 0x1752 JUMPI PUSH2 0x1727 PUSH1 0x18 PUSH1 0x5 DUP5 PUSH1 0xFF AND SWAP1 SHL OR DUP5 PUSH1 0x0 ADD MLOAD PUSH2 0x187E SWAP1 SWAP2 SWAP1 PUSH4 0xFFFFFFFF AND JUMP JUMPDEST POP PUSH2 0x174C DUP2 PUSH8 0xFFFFFFFFFFFFFFFF AND PUSH1 0x1 DUP6 PUSH1 0x0 ADD MLOAD PUSH2 0x190E SWAP1 SWAP3 SWAP2 SWAP1 PUSH4 0xFFFFFFFF AND JUMP JUMPDEST POP PUSH2 0x185C JUMP JUMPDEST PUSH2 0xFFFF DUP2 PUSH8 0xFFFFFFFFFFFFFFFF AND GT PUSH2 0x17B1 JUMPI PUSH2 0x1786 PUSH1 0x19 PUSH1 0x5 DUP5 PUSH1 0xFF AND SWAP1 SHL OR DUP5 PUSH1 0x0 ADD MLOAD PUSH2 0x187E SWAP1 SWAP2 SWAP1 PUSH4 0xFFFFFFFF AND JUMP JUMPDEST POP PUSH2 0x17AB DUP2 PUSH8 0xFFFFFFFFFFFFFFFF AND PUSH1 0x2 DUP6 PUSH1 0x0 ADD MLOAD PUSH2 0x190E SWAP1 SWAP3 SWAP2 SWAP1 PUSH4 0xFFFFFFFF AND JUMP JUMPDEST POP PUSH2 0x185B JUMP JUMPDEST PUSH4 0xFFFFFFFF DUP2 PUSH8 0xFFFFFFFFFFFFFFFF AND GT PUSH2 0x1812 JUMPI PUSH2 0x17E7 PUSH1 0x1A PUSH1 0x5 DUP5 PUSH1 0xFF AND SWAP1 SHL OR DUP5 PUSH1 0x0 ADD MLOAD PUSH2 0x187E SWAP1 SWAP2 SWAP1 PUSH4 0xFFFFFFFF AND JUMP JUMPDEST POP PUSH2 0x180C DUP2 PUSH8 0xFFFFFFFFFFFFFFFF AND PUSH1 0x4 DUP6 PUSH1 0x0 ADD MLOAD PUSH2 0x190E SWAP1 SWAP3 SWAP2 SWAP1 PUSH4 0xFFFFFFFF AND JUMP JUMPDEST POP PUSH2 0x185A JUMP JUMPDEST PUSH2 0x1833 PUSH1 0x1B PUSH1 0x5 DUP5 PUSH1 0xFF AND SWAP1 SHL OR DUP5 PUSH1 0x0 ADD MLOAD PUSH2 0x187E SWAP1 SWAP2 SWAP1 PUSH4 0xFFFFFFFF AND JUMP JUMPDEST POP PUSH2 0x1858 DUP2 PUSH8 0xFFFFFFFFFFFFFFFF AND PUSH1 0x8 DUP6 PUSH1 0x0 ADD MLOAD PUSH2 0x190E SWAP1 SWAP3 SWAP2 SWAP1 PUSH4 0xFFFFFFFF AND JUMP JUMPDEST POP JUMPDEST JUMPDEST JUMPDEST JUMPDEST POP POP POP JUMP JUMPDEST PUSH2 0x186A PUSH2 0x1B34 JUMP JUMPDEST PUSH2 0x1876 DUP4 DUP4 DUP5 MLOAD PUSH2 0x199B JUMP JUMPDEST SWAP1 POP SWAP3 SWAP2 POP POP JUMP JUMPDEST PUSH2 0x1886 PUSH2 0x1B34 JUMP JUMPDEST PUSH1 0x0 DUP4 PUSH1 0x0 ADD MLOAD MLOAD SWAP1 POP PUSH1 0x0 PUSH1 0x1 DUP3 PUSH2 0x189F SWAP2 SWAP1 PUSH2 0x339E JUMP JUMPDEST SWAP1 POP DUP5 PUSH1 0x20 ADD MLOAD DUP3 LT PUSH2 0x18C3 JUMPI PUSH2 0x18C2 DUP6 PUSH1 0x2 DUP4 PUSH2 0x18BD SWAP2 SWAP1 PUSH2 0x3466 JUMP JUMPDEST PUSH2 0x1A7E JUMP JUMPDEST JUMPDEST DUP5 MLOAD PUSH1 0x20 DUP4 DUP3 ADD ADD DUP6 DUP2 MSTORE8 DUP2 MLOAD DUP4 GT ISZERO PUSH2 0x18DB JUMPI DUP3 DUP3 MSTORE JUMPDEST POP POP DUP5 SWAP3 POP POP POP SWAP3 SWAP2 POP POP JUMP JUMPDEST PUSH2 0x1909 PUSH1 0x1F PUSH1 0x5 DUP4 PUSH1 0xFF AND SWAP1 SHL OR DUP4 PUSH1 0x0 ADD MLOAD PUSH2 0x187E SWAP1 SWAP2 SWAP1 PUSH4 0xFFFFFFFF AND JUMP JUMPDEST POP POP POP JUMP JUMPDEST PUSH2 0x1916 PUSH2 0x1B34 JUMP JUMPDEST PUSH1 0x0 DUP5 PUSH1 0x0 ADD MLOAD MLOAD SWAP1 POP PUSH1 0x0 DUP2 DUP5 PUSH2 0x192E SWAP2 SWAP1 PUSH2 0x339E JUMP JUMPDEST SWAP1 POP DUP6 PUSH1 0x20 ADD MLOAD DUP2 GT ISZERO PUSH2 0x1953 JUMPI PUSH2 0x1952 DUP7 PUSH1 0x2 DUP4 PUSH2 0x194D SWAP2 SWAP1 PUSH2 0x3466 JUMP JUMPDEST PUSH2 0x1A7E JUMP JUMPDEST JUMPDEST PUSH1 0x0 PUSH1 0x1 DUP6 PUSH2 0x100 PUSH2 0x1965 SWAP2 SWAP1 PUSH2 0x35DB JUMP JUMPDEST PUSH2 0x196F SWAP2 SWAP1 PUSH2 0x33D2 JUMP JUMPDEST SWAP1 POP DUP7 MLOAD DUP3 DUP2 ADD DUP8 DUP4 NOT DUP3 MLOAD AND OR DUP2 MSTORE DUP2 MLOAD DUP5 GT ISZERO PUSH2 0x198C JUMPI DUP4 DUP3 MSTORE JUMPDEST POP POP DUP7 SWAP4 POP POP POP POP SWAP4 SWAP3 POP POP POP JUMP JUMPDEST PUSH2 0x19A3 PUSH2 0x1B34 JUMP JUMPDEST DUP3 MLOAD DUP3 GT ISZERO PUSH2 0x19B1 JUMPI PUSH1 0x0 DUP1 REVERT JUMPDEST PUSH1 0x0 DUP5 PUSH1 0x0 ADD MLOAD MLOAD SWAP1 POP PUSH1 0x0 DUP4 DUP3 PUSH2 0x19C9 SWAP2 SWAP1 PUSH2 0x339E JUMP JUMPDEST SWAP1 POP DUP6 PUSH1 0x20 ADD MLOAD DUP2 GT ISZERO PUSH2 0x19EE JUMPI PUSH2 0x19ED DUP7 PUSH1 0x2 DUP4 PUSH2 0x19E8 SWAP2 SWAP1 PUSH2 0x3466 JUMP JUMPDEST PUSH2 0x1A7E JUMP JUMPDEST JUMPDEST PUSH1 0x0 DUP1 DUP8 MLOAD DUP1 MLOAD DUP6 PUSH1 0x20 DUP4 ADD ADD SWAP4 POP DUP1 DUP6 GT ISZERO PUSH2 0x1A09 JUMPI DUP5 DUP3 MSTORE JUMPDEST PUSH1 0x20 DUP10 ADD SWAP3 POP POP POP JUMPDEST PUSH1 0x20 DUP7 LT PUSH2 0x1A50 JUMPI DUP1 MLOAD DUP3 MSTORE PUSH1 0x20 DUP3 PUSH2 0x1A2B SWAP2 SWAP1 PUSH2 0x339E JUMP JUMPDEST SWAP2 POP PUSH1 0x20 DUP2 PUSH2 0x1A3A SWAP2 SWAP1 PUSH2 0x339E JUMP JUMPDEST SWAP1 POP PUSH1 0x20 DUP7 PUSH2 0x1A49 SWAP2 SWAP1 PUSH2 0x33D2 JUMP JUMPDEST SWAP6 POP PUSH2 0x1A12 JUMP JUMPDEST PUSH1 0x0 PUSH1 0x1 DUP8 PUSH1 0x20 SUB PUSH2 0x100 EXP SUB SWAP1 POP DUP1 NOT DUP3 MLOAD AND DUP2 DUP5 MLOAD AND DUP2 DUP2 OR DUP6 MSTORE POP POP POP DUP8 SWAP5 POP POP POP POP POP SWAP4 SWAP3 POP POP POP JUMP JUMPDEST PUSH1 0x0 DUP3 PUSH1 0x0 ADD MLOAD SWAP1 POP PUSH2 0x1A91 DUP4 DUP4 PUSH2 0x1640 JUMP JUMPDEST POP PUSH2 0x1A9C DUP4 DUP3 PUSH2 0x1862 JUMP JUMPDEST POP POP POP POP JUMP JUMPDEST PUSH1 0x40 MLOAD DUP1 PUSH1 0xE0 ADD PUSH1 0x40 MSTORE DUP1 PUSH1 0x0 PUSH1 0x2 DUP2 GT ISZERO PUSH2 0x1AC1 JUMPI PUSH2 0x1AC0 PUSH2 0x31F1 JUMP JUMPDEST JUMPDEST DUP2 MSTORE PUSH1 0x20 ADD PUSH1 0x0 PUSH1 0x2 DUP2 GT ISZERO PUSH2 0x1ADA JUMPI PUSH2 0x1AD9 PUSH2 0x31F1 JUMP JUMPDEST JUMPDEST DUP2 MSTORE PUSH1 0x20 ADD PUSH1 0x0 DUP1 DUP2 GT ISZERO PUSH2 0x1AF2 JUMPI PUSH2 0x1AF1 PUSH2 0x31F1 JUMP JUMPDEST JUMPDEST DUP2 MSTORE PUSH1 0x20 ADD PUSH1 0x60 DUP2 MSTORE PUSH1 0x20 ADD PUSH1 0x60 DUP2 MSTORE PUSH1 0x20 ADD PUSH1 0x60 DUP2 MSTORE PUSH1 0x20 ADD PUSH1 0x60 DUP2 MSTORE POP SWAP1 JUMP JUMPDEST PUSH1 0x40 MLOAD DUP1 PUSH1 0x40 ADD PUSH1 0x40 MSTORE DUP1 PUSH2 0x1B27 PUSH2 0x1B34 JUMP JUMPDEST DUP2 MSTORE PUSH1 0x20 ADD PUSH1 0x0 DUP2 MSTORE POP SWAP1 JUMP JUMPDEST PUSH1 0x40 MLOAD DUP1 PUSH1 0x40 ADD PUSH1 0x40 MSTORE DUP1 PUSH1 0x60 DUP2 MSTORE PUSH1 0x20 ADD PUSH1 0x0 DUP2 MSTORE POP SWAP1 JUMP JUMPDEST PUSH1 0x0 PUSH1 0x40 MLOAD SWAP1 POP SWAP1 JUMP JUMPDEST PUSH1 0x0 DUP1 REVERT JUMPDEST PUSH1 0x0 DUP1 REVERT JUMPDEST PUSH1 0x0 DUP2 SWAP1 POP SWAP2 SWAP1 POP JUMP JUMPDEST PUSH2 0x1B75 DUP2 PUSH2 0x1B62 JUMP JUMPDEST DUP2 EQ PUSH2 0x1B80 JUMPI PUSH1 0x0 DUP1 REVERT JUMPDEST POP JUMP JUMPDEST PUSH1 0x0 DUP2 CALLDATALOAD SWAP1 POP PUSH2 0x1B92 DUP2 PUSH2 0x1B6C JUMP JUMPDEST SWAP3 SWAP2 POP POP JUMP JUMPDEST PUSH1 0x0 DUP1 REVERT JUMPDEST PUSH1 0x0 DUP1 REVERT JUMPDEST PUSH1 0x0 PUSH1 0x1F NOT PUSH1 0x1F DUP4 ADD AND SWAP1 POP SWAP2 SWAP1 POP JUMP JUMPDEST PUSH32 0x4E487B7100000000000000000000000000000000000000000000000000000000 PUSH1 0x0 MSTORE PUSH1 0x41 PUSH1 0x4 MSTORE PUSH1 0x24 PUSH1 0x0 REVERT JUMPDEST PUSH2 0x1BEB DUP3 PUSH2 0x1BA2 JUMP JUMPDEST DUP2 ADD DUP2 DUP2 LT PUSH8 0xFFFFFFFFFFFFFFFF DUP3 GT OR ISZERO PUSH2 0x1C0A JUMPI PUSH2 0x1C09 PUSH2 0x1BB3 JUMP JUMPDEST JUMPDEST DUP1 PUSH1 0x40 MSTORE POP POP POP JUMP JUMPDEST PUSH1 0x0 PUSH2 0x1C1D PUSH2 0x1B4E JUMP JUMPDEST SWAP1 POP PUSH2 0x1C29 DUP3 DUP3 PUSH2 0x1BE2 JUMP JUMPDEST SWAP2 SWAP1 POP JUMP JUMPDEST PUSH1 0x0 PUSH8 0xFFFFFFFFFFFFFFFF DUP3 GT ISZERO PUSH2 0x1C49 JUMPI PUSH2 0x1C48 PUSH2 0x1BB3 JUMP JUMPDEST JUMPDEST PUSH2 0x1C52 DUP3 PUSH2 0x1BA2 JUMP JUMPDEST SWAP1 POP PUSH1 0x20 DUP2 ADD SWAP1 POP SWAP2 SWAP1 POP JUMP JUMPDEST DUP3 DUP2 DUP4 CALLDATACOPY PUSH1 0x0 DUP4 DUP4 ADD MSTORE POP POP POP JUMP JUMPDEST PUSH1 0x0 PUSH2 0x1C81 PUSH2 0x1C7C DUP5 PUSH2 0x1C2E JUMP JUMPDEST PUSH2 0x1C13 JUMP JUMPDEST SWAP1 POP DUP3 DUP2 MSTORE PUSH1 0x20 DUP2 ADD DUP5 DUP5 DUP5 ADD GT ISZERO PUSH2 0x1C9D JUMPI PUSH2 0x1C9C PUSH2 0x1B9D JUMP JUMPDEST JUMPDEST PUSH2 0x1CA8 DUP5 DUP3 DUP6 PUSH2 0x1C5F JUMP JUMPDEST POP SWAP4 SWAP3 POP POP POP JUMP JUMPDEST PUSH1 0x0 DUP3 PUSH1 0x1F DUP4 ADD SLT PUSH2 0x1CC5 JUMPI PUSH2 0x1CC4 PUSH2 0x1B98 JUMP JUMPDEST JUMPDEST DUP2 CALLDATALOAD PUSH2 0x1CD5 DUP5 DUP3 PUSH1 0x20 DUP7 ADD PUSH2 0x1C6E JUMP JUMPDEST SWAP2 POP POP SWAP3 SWAP2 POP POP JUMP JUMPDEST PUSH1 0x0 DUP1 PUSH1 0x0 PUSH1 0x60 DUP5 DUP7 SUB SLT ISZERO PUSH2 0x1CF7 JUMPI PUSH2 0x1CF6 PUSH2 0x1B58 JUMP JUMPDEST JUMPDEST PUSH1 0x0 PUSH2 0x1D05 DUP7 DUP3 DUP8 ADD PUSH2 0x1B83 JUMP JUMPDEST SWAP4 POP POP PUSH1 0x20 DUP5 ADD CALLDATALOAD PUSH8 0xFFFFFFFFFFFFFFFF DUP2 GT ISZERO PUSH2 0x1D26 JUMPI PUSH2 0x1D25 PUSH2 0x1B5D JUMP JUMPDEST JUMPDEST PUSH2 0x1D32 DUP7 DUP3 DUP8 ADD PUSH2 0x1CB0 JUMP JUMPDEST SWAP3 POP POP PUSH1 0x40 DUP5 ADD CALLDATALOAD PUSH8 0xFFFFFFFFFFFFFFFF DUP2 GT ISZERO PUSH2 0x1D53 JUMPI PUSH2 0x1D52 PUSH2 0x1B5D JUMP JUMPDEST JUMPDEST PUSH2 0x1D5F DUP7 DUP3 DUP8 ADD PUSH2 0x1CB0 JUMP JUMPDEST SWAP2 POP POP SWAP3 POP SWAP3 POP SWAP3 JUMP JUMPDEST PUSH1 0x0 DUP2 MLOAD SWAP1 POP SWAP2 SWAP1 POP JUMP JUMPDEST PUSH1 0x0 DUP3 DUP3 MSTORE PUSH1 0x20 DUP3 ADD SWAP1 POP SWAP3 SWAP2 POP POP JUMP JUMPDEST PUSH1 0x0 JUMPDEST DUP4 DUP2 LT ISZERO PUSH2 0x1DA3 JUMPI DUP1 DUP3 ADD MLOAD DUP2 DUP5 ADD MSTORE PUSH1 0x20 DUP2 ADD SWAP1 POP PUSH2 0x1D88 JUMP JUMPDEST PUSH1 0x0 DUP5 DUP5 ADD MSTORE POP POP POP POP JUMP JUMPDEST PUSH1 0x0 PUSH2 0x1DBA DUP3 PUSH2 0x1D69 JUMP JUMPDEST PUSH2 0x1DC4 DUP2 DUP6 PUSH2 0x1D74 JUMP JUMPDEST SWAP4 POP PUSH2 0x1DD4 DUP2 DUP6 PUSH1 0x20 DUP7 ADD PUSH2 0x1D85 JUMP JUMPDEST PUSH2 0x1DDD DUP2 PUSH2 0x1BA2 JUMP JUMPDEST DUP5 ADD SWAP2 POP POP SWAP3 SWAP2 POP POP JUMP JUMPDEST PUSH1 0x0 PUSH1 0x20 DUP3 ADD SWAP1 POP DUP2 DUP2 SUB PUSH1 0x0 DUP4 ADD MSTORE PUSH2 0x1E02 DUP2 DUP5 PUSH2 0x1DAF JUMP JUMPDEST SWAP1 POP SWAP3 SWAP2 POP POP JUMP JUMPDEST PUSH1 0x0 DUP1 REVERT JUMPDEST PUSH1 0x0 DUP1 REVERT JUMPDEST PUSH1 0x0 DUP1 DUP4 PUSH1 0x1F DUP5 ADD SLT PUSH2 0x1E2A JUMPI PUSH2 0x1E29 PUSH2 0x1B98 JUMP JUMPDEST JUMPDEST DUP3 CALLDATALOAD SWAP1 POP PUSH8 0xFFFFFFFFFFFFFFFF DUP2 GT ISZERO PUSH2 0x1E47 JUMPI PUSH2 0x1E46 PUSH2 0x1E0A JUMP JUMPDEST JUMPDEST PUSH1 0x20 DUP4 ADD SWAP2 POP DUP4 PUSH1 0x1 DUP3 MUL DUP4 ADD GT ISZERO PUSH2 0x1E63 JUMPI PUSH2 0x1E62 PUSH2 0x1E0F JUMP JUMPDEST JUMPDEST SWAP3 POP SWAP3 SWAP1 POP JUMP JUMPDEST PUSH1 0x0 DUP1 PUSH1 0x20 DUP4 DUP6 SUB SLT ISZERO PUSH2 0x1E81 JUMPI PUSH2 0x1E80 PUSH2 0x1B58 JUMP JUMPDEST JUMPDEST PUSH1 0x0 DUP4 ADD CALLDATALOAD PUSH8 0xFFFFFFFFFFFFFFFF DUP2 GT ISZERO PUSH2 0x1E9F JUMPI PUSH2 0x1E9E PUSH2 0x1B5D JUMP JUMPDEST JUMPDEST PUSH2 0x1EAB DUP6 DUP3 DUP7 ADD PUSH2 0x1E14 JUMP JUMPDEST SWAP3 POP SWAP3 POP POP SWAP3 POP SWAP3 SWAP1 POP JUMP JUMPDEST PUSH1 0x0 PUSH8 0xFFFFFFFFFFFFFFFF DUP3 GT ISZERO PUSH2 0x1ED2 JUMPI PUSH2 0x1ED1 PUSH2 0x1BB3 JUMP JUMPDEST JUMPDEST PUSH2 0x1EDB DUP3 PUSH2 0x1BA2 JUMP JUMPDEST SWAP1 POP PUSH1 0x20 DUP2 ADD SWAP1 POP SWAP2 SWAP1 POP JUMP JUMPDEST PUSH1 0x0 PUSH2 0x1EFB PUSH2 0x1EF6 DUP5 PUSH2 0x1EB7 JUMP JUMPDEST PUSH2 0x1C13 JUMP JUMPDEST SWAP1 POP DUP3 DUP2 MSTORE PUSH1 0x20 DUP2 ADD DUP5 DUP5 DUP5 ADD GT ISZERO PUSH2 0x1F17 JUMPI PUSH2 0x1F16 PUSH2 0x1B9D JUMP JUMPDEST JUMPDEST PUSH2 0x1F22 DUP5 DUP3 DUP6 PUSH2 0x1C5F JUMP JUMPDEST POP SWAP4 SWAP3 POP POP POP JUMP JUMPDEST PUSH1 0x0 DUP3 PUSH1 0x1F DUP4 ADD SLT PUSH2 0x1F3F JUMPI PUSH2 0x1F3E PUSH2 0x1B98 JUMP JUMPDEST JUMPDEST DUP2 CALLDATALOAD PUSH2 0x1F4F DUP5 DUP3 PUSH1 0x20 DUP7 ADD PUSH2 0x1EE8 JUMP JUMPDEST SWAP2 POP POP SWAP3 SWAP2 POP POP JUMP JUMPDEST PUSH1 0x0 DUP1 PUSH1 0x0 PUSH1 0x60 DUP5 DUP7 SUB SLT ISZERO PUSH2 0x1F71 JUMPI PUSH2 0x1F70 PUSH2 0x1B58 JUMP JUMPDEST JUMPDEST PUSH1 0x0 DUP5 ADD CALLDATALOAD PUSH8 0xFFFFFFFFFFFFFFFF DUP2 GT ISZERO PUSH2 0x1F8F JUMPI PUSH2 0x1F8E PUSH2 0x1B5D JUMP JUMPDEST JUMPDEST PUSH2 0x1F9B DUP7 DUP3 DUP8 ADD PUSH2 0x1F2A JUMP JUMPDEST SWAP4 POP POP PUSH1 0x20 DUP5 ADD CALLDATALOAD PUSH8 0xFFFFFFFFFFFFFFFF DUP2 GT ISZERO PUSH2 0x1FBC JUMPI PUSH2 0x1FBB PUSH2 0x1B5D JUMP JUMPDEST JUMPDEST PUSH2 0x1FC8 DUP7 DUP3 DUP8 ADD PUSH2 0x1F2A JUMP JUMPDEST SWAP3 POP POP PUSH1 0x40 DUP5 ADD CALLDATALOAD PUSH8 0xFFFFFFFFFFFFFFFF DUP2 GT ISZERO PUSH2 0x1FE9 JUMPI PUSH2 0x1FE8 PUSH2 0x1B5D JUMP JUMPDEST JUMPDEST PUSH2 0x1FF5 DUP7 DUP3 DUP8 ADD PUSH2 0x1F2A JUMP JUMPDEST SWAP2 POP POP SWAP3 POP SWAP3 POP SWAP3 JUMP JUMPDEST PUSH1 0x0 DUP1 DUP4 PUSH1 0x1F DUP5 ADD SLT PUSH2 0x2015 JUMPI PUSH2 0x2014 PUSH2 0x1B98 JUMP JUMPDEST JUMPDEST DUP3 CALLDATALOAD SWAP1 POP PUSH8 0xFFFFFFFFFFFFFFFF DUP2 GT ISZERO PUSH2 0x2032 JUMPI PUSH2 0x2031 PUSH2 0x1E0A JUMP JUMPDEST JUMPDEST PUSH1 0x20 DUP4 ADD SWAP2 POP DUP4 PUSH1 0x1 DUP3 MUL DUP4 ADD GT ISZERO PUSH2 0x204E JUMPI PUSH2 0x204D PUSH2 0x1E0F JUMP JUMPDEST JUMPDEST SWAP3 POP SWAP3 SWAP1 POP JUMP JUMPDEST PUSH1 0x0 DUP1 DUP4 PUSH1 0x1F DUP5 ADD SLT PUSH2 0x206B JUMPI PUSH2 0x206A PUSH2 0x1B98 JUMP JUMPDEST JUMPDEST DUP3 CALLDATALOAD SWAP1 POP PUSH8 0xFFFFFFFFFFFFFFFF DUP2 GT ISZERO PUSH2 0x2088 JUMPI PUSH2 0x2087 PUSH2 0x1E0A JUMP JUMPDEST JUMPDEST PUSH1 0x20 DUP4 ADD SWAP2 POP DUP4 PUSH1 0x20 DUP3 MUL DUP4 ADD GT ISZERO PUSH2 0x20A4 JUMPI PUSH2 0x20A3 PUSH2 0x1E0F JUMP JUMPDEST JUMPDEST SWAP3 POP SWAP3 SWAP1 POP JUMP JUMPDEST PUSH1 0x0 DUP1 PUSH1 0x0 DUP1 PUSH1 0x40 DUP6 DUP8 SUB SLT ISZERO PUSH2 0x20C5 JUMPI PUSH2 0x20C4 PUSH2 0x1B58 JUMP JUMPDEST JUMPDEST PUSH1 0x0 DUP6 ADD CALLDATALOAD PUSH8 0xFFFFFFFFFFFFFFFF DUP2 GT ISZERO PUSH2 0x20E3 JUMPI PUSH2 0x20E2 PUSH2 0x1B5D JUMP JUMPDEST JUMPDEST PUSH2 0x20EF DUP8 DUP3 DUP9 ADD PUSH2 0x1FFF JUMP JUMPDEST SWAP5 POP SWAP5 POP POP PUSH1 0x20 DUP6 ADD CALLDATALOAD PUSH8 0xFFFFFFFFFFFFFFFF DUP2 GT ISZERO PUSH2 0x2112 JUMPI PUSH2 0x2111 PUSH2 0x1B5D JUMP JUMPDEST JUMPDEST PUSH2 0x211E DUP8 DUP3 DUP9 ADD PUSH2 0x2055 JUMP JUMPDEST SWAP3 POP SWAP3 POP POP SWAP3 SWAP6 SWAP2 SWAP5 POP SWAP3 POP JUMP JUMPDEST PUSH2 0x2135 DUP2 PUSH2 0x1B62 JUMP JUMPDEST DUP3 MSTORE POP POP JUMP JUMPDEST PUSH1 0x0 PUSH1 0x20 DUP3 ADD SWAP1 POP PUSH2 0x2150 PUSH1 0x0 DUP4 ADD DUP5 PUSH2 0x212C JUMP JUMPDEST SWAP3 SWAP2 POP POP JUMP JUMPDEST PUSH1 0x0 DUP2 ISZERO ISZERO SWAP1 POP SWAP2 SWAP1 POP JUMP JUMPDEST PUSH2 0x216B DUP2 PUSH2 0x2156 JUMP JUMPDEST DUP3 MSTORE POP POP JUMP JUMPDEST PUSH1 0x0 PUSH1 0x40 DUP3 ADD SWAP1 POP PUSH2 0x2186 PUSH1 0x0 DUP4 ADD DUP6 PUSH2 0x2162 JUMP JUMPDEST DUP2 DUP2 SUB PUSH1 0x20 DUP4 ADD MSTORE PUSH2 0x2198 DUP2 DUP5 PUSH2 0x1DAF JUMP JUMPDEST SWAP1 POP SWAP4 SWAP3 POP POP POP JUMP JUMPDEST PUSH1 0x0 DUP2 MLOAD SWAP1 POP SWAP2 SWAP1 POP JUMP JUMPDEST PUSH1 0x0 DUP3 DUP3 MSTORE PUSH1 0x20 DUP3 ADD SWAP1 POP SWAP3 SWAP2 POP POP JUMP JUMPDEST PUSH1 0x0 PUSH2 0x21C8 DUP3 PUSH2 0x21A1 JUMP JUMPDEST PUSH2 0x21D2 DUP2 DUP6 PUSH2 0x21AC JUMP JUMPDEST SWAP4 POP PUSH2 0x21E2 DUP2 DUP6 PUSH1 0x20 DUP7 ADD PUSH2 0x1D85 JUMP JUMPDEST PUSH2 0x21EB DUP2 PUSH2 0x1BA2 JUMP JUMPDEST DUP5 ADD SWAP2 POP POP SWAP3 SWAP2 POP POP JUMP JUMPDEST PUSH1 0x0 PUSH1 0x20 DUP3 ADD SWAP1 POP DUP2 DUP2 SUB PUSH1 0x0 DUP4 ADD MSTORE PUSH2 0x2210 DUP2 DUP5 PUSH2 0x21BD JUMP JUMPDEST SWAP1 POP SWAP3 SWAP2 POP POP JUMP JUMPDEST PUSH1 0x0 PUSH20 0xFFFFFFFFFFFFFFFFFFFFFFFFFFFFFFFFFFFFFFFF DUP3 AND SWAP1 POP SWAP2 SWAP1 POP JUMP JUMPDEST PUSH1 0x0 PUSH2 0x2243 DUP3 PUSH2 0x2218 JUMP JUMPDEST SWAP1 POP SWAP2 SWAP1 POP JUMP JUMPDEST PUSH2 0x2253 DUP2 PUSH2 0x2238 JUMP JUMPDEST DUP3 MSTORE POP POP JUMP JUMPDEST PUSH1 0x0 PUSH1 0x20 DUP3 ADD SWAP1 POP PUSH2 0x226E PUSH1 0x0 DUP4 ADD DUP5 PUSH2 0x224A JUMP JUMPDEST SWAP3 SWAP2 POP POP JUMP JUMPDEST PUSH2 0x227D DUP2 PUSH2 0x2238 JUMP JUMPDEST DUP2 EQ PUSH2 0x2288 JUMPI PUSH1 0x0 DUP1 REVERT JUMPDEST POP JUMP JUMPDEST PUSH1 0x0 DUP2 CALLDATALOAD SWAP1 POP PUSH2 0x229A DUP2 PUSH2 0x2274 JUMP JUMPDEST SWAP3 SWAP2 POP POP JUMP JUMPDEST PUSH1 0x0 PUSH1 0x20 DUP3 DUP5 SUB SLT ISZERO PUSH2 0x22B6 JUMPI PUSH2 0x22B5 PUSH2 0x1B58 JUMP JUMPDEST JUMPDEST PUSH1 0x0 PUSH2 0x22C4 DUP5 DUP3 DUP6 ADD PUSH2 0x228B JUMP JUMPDEST SWAP2 POP POP SWAP3 SWAP2 POP POP JUMP JUMPDEST PUSH32 0x4E487B7100000000000000000000000000000000000000000000000000000000 PUSH1 0x0 MSTORE PUSH1 0x22 PUSH1 0x4 MSTORE PUSH1 0x24 PUSH1 0x0 REVERT JUMPDEST PUSH1 0x0 PUSH1 0x2 DUP3 DIV SWAP1 POP PUSH1 0x1 DUP3 AND DUP1 PUSH2 0x2314 JUMPI PUSH1 0x7F DUP3 AND SWAP2 POP JUMPDEST PUSH1 0x20 DUP3 LT DUP2 SUB PUSH2 0x2327 JUMPI PUSH2 0x2326 PUSH2 0x22CD JUMP JUMPDEST JUMPDEST POP SWAP2 SWAP1 POP JUMP JUMPDEST PUSH32 0x4E487B7100000000000000000000000000000000000000000000000000000000 PUSH1 0x0 MSTORE PUSH1 0x32 PUSH1 0x4 MSTORE PUSH1 0x24 PUSH1 0x0 REVERT JUMPDEST PUSH32 0x286173796E63202829203D3E207B20636F6E7374207B20657468657273207D20 PUSH1 0x0 DUP3 ADD MSTORE PUSH32 0x3D20617761697420696D706F7274282765746865727327293B20636F6E737420 PUSH1 0x20 DUP3 ADD MSTORE PUSH32 0x5B72706355726C2C20636F6E7472616374416464726573732C20626F72726F77 PUSH1 0x40 DUP3 ADD MSTORE PUSH32 0x6572735D203D20617267733B20636F6E737420636F6C6C4D616E6167656D656E PUSH1 0x60 DUP3 ADD MSTORE PUSH32 0x74416269203D205B2766756E6374696F6E206765744865616C7468466163746F PUSH1 0x80 DUP3 ADD MSTORE PUSH32 0x7228616464726573732075736572292065787465726E616C2076696577207265 PUSH1 0xA0 DUP3 ADD MSTORE PUSH32 0x7475726E73202875696E7432353629275D3B20636F6E73742070726F76696465 PUSH1 0xC0 DUP3 ADD MSTORE PUSH32 0x72203D206E6577206574686572732E4A736F6E52706350726F76696465722872 PUSH1 0xE0 DUP3 ADD MSTORE PUSH32 0x706355726C293B20636F6E737420636F6E7472616374203D206E657720657468 PUSH2 0x100 DUP3 ADD MSTORE PUSH32 0x6572732E436F6E747261637428636F6E7472616374416464726573732C20636F PUSH2 0x120 DUP3 ADD MSTORE PUSH32 0x6C6C4D616E6167656D656E744162692C2070726F7669646572293B20636F6E73 PUSH2 0x140 DUP3 ADD MSTORE PUSH32 0x74206865616C7468466163746F725468726573686F6C64203D20657468657273 PUSH2 0x160 DUP3 ADD MSTORE PUSH32 0x2E706172736545746865722827312E3027293B20636F6E737420626F72726F77 PUSH2 0x180 DUP3 ADD MSTORE PUSH32 0x65724C697374203D20626F72726F776572732E73706C697428272C27293B2063 PUSH2 0x1A0 DUP3 ADD MSTORE PUSH32 0x6F6E737420746F4C6971756964617465203D205B5D3B20636F6E736F6C652E6C PUSH2 0x1C0 DUP3 ADD MSTORE PUSH32 0x6F672860436865636B696E67206865616C746820666F7220247B626F72726F77 PUSH2 0x1E0 DUP3 ADD MSTORE PUSH32 0x65724C6973742E6C656E6774687D20626F72726F776572732E2E2E60293B2066 PUSH2 0x200 DUP3 ADD MSTORE PUSH32 0x6F722028636F6E737420626F72726F77657241646472657373206F6620626F72 PUSH2 0x220 DUP3 ADD MSTORE PUSH32 0x726F7765724C69737429207B20747279207B20636F6E7374206865616C746846 PUSH2 0x240 DUP3 ADD MSTORE PUSH32 0x6163746F72203D20617761697420636F6E74726163742E6765744865616C7468 PUSH2 0x260 DUP3 ADD MSTORE PUSH32 0x466163746F7228626F72726F77657241646472657373293B20636F6E736F6C65 PUSH2 0x280 DUP3 ADD MSTORE PUSH32 0x2E6C6F6728602D20247B626F72726F776572416464726573737D3A20247B6574 PUSH2 0x2A0 DUP3 ADD MSTORE PUSH32 0x686572732E666F726D61744574686572286865616C7468466163746F72297D60 PUSH2 0x2C0 DUP3 ADD MSTORE PUSH32 0x293B20696620286865616C7468466163746F72203C206865616C746846616374 PUSH2 0x2E0 DUP3 ADD MSTORE PUSH32 0x6F725468726573686F6C6429207B20746F4C69717569646174652E7075736828 PUSH2 0x300 DUP3 ADD MSTORE PUSH32 0x626F72726F77657241646472657373293B207D207D2063617463682028657272 PUSH2 0x320 DUP3 ADD MSTORE PUSH32 0x6F7229207B20636F6E7374206572726F724D657373616765203D206572726F72 PUSH2 0x340 DUP3 ADD MSTORE PUSH32 0x20696E7374616E63656F66204572726F72203F206572726F722E6D6573736167 PUSH2 0x360 DUP3 ADD MSTORE PUSH32 0x65203A20537472696E67286572726F72293B20636F6E736F6C652E6572726F72 PUSH2 0x380 DUP3 ADD MSTORE PUSH32 0x286020203E204572726F7220636865636B696E67206865616C746820666F7220 PUSH2 0x3A0 DUP3 ADD MSTORE PUSH32 0x247B626F72726F776572416464726573737D3A602C206572726F724D65737361 PUSH2 0x3C0 DUP3 ADD MSTORE PUSH32 0x6765293B207D207D20636F6E736F6C652E6C6F672860466F756E6420247B746F PUSH2 0x3E0 DUP3 ADD MSTORE PUSH32 0x4C69717569646174652E6C656E6774687D20706F736974696F6E7320746F206C PUSH2 0x400 DUP3 ADD MSTORE PUSH32 0x69717569646174652E60293B20636F6E737420656E636F646564203D20657468 PUSH2 0x420 DUP3 ADD MSTORE PUSH32 0x6572732E416269436F6465722E64656661756C74416269436F64657228292E65 PUSH2 0x440 DUP3 ADD MSTORE PUSH32 0x6E636F6465285B27616464726573735B5D275D2C205B746F4C69717569646174 PUSH2 0x460 DUP3 ADD MSTORE PUSH32 0x655D293B2072657475726E204275666665722E66726F6D28656E636F6465642E PUSH2 0x480 DUP3 ADD MSTORE PUSH32 0x736C6963652832292C202768657827293B207D2928293B000000000000000000 PUSH2 0x4A0 DUP3 ADD MSTORE POP JUMP JUMPDEST PUSH1 0x0 PUSH2 0x292F PUSH2 0x4B7 DUP4 PUSH2 0x21AC JUMP JUMPDEST SWAP2 POP PUSH2 0x293A DUP3 PUSH2 0x235C JUMP JUMPDEST PUSH2 0x4C0 DUP3 ADD SWAP1 POP SWAP2 SWAP1 POP JUMP JUMPDEST PUSH1 0x0 DUP2 MLOAD SWAP1 POP SWAP2 SWAP1 POP JUMP JUMPDEST PUSH1 0x0 DUP3 DUP3 MSTORE PUSH1 0x20 DUP3 ADD SWAP1 POP SWAP3 SWAP2 POP POP JUMP JUMPDEST PUSH1 0x0 DUP2 SWAP1 POP PUSH1 0x20 DUP3 ADD SWAP1 POP SWAP2 SWAP1 POP JUMP JUMPDEST PUSH1 0x0 DUP3 DUP3 MSTORE PUSH1 0x20 DUP3 ADD SWAP1 POP SWAP3 SWAP2 POP POP JUMP JUMPDEST PUSH1 0x0 PUSH2 0x298E DUP3 PUSH2 0x21A1 JUMP JUMPDEST PUSH2 0x2998 DUP2 DUP6 PUSH2 0x2972 JUMP JUMPDEST SWAP4 POP PUSH2 0x29A8 DUP2 DUP6 PUSH1 0x20 DUP7 ADD PUSH2 0x1D85 JUMP JUMPDEST PUSH2 0x29B1 DUP2 PUSH2 0x1BA2 JUMP JUMPDEST DUP5 ADD SWAP2 POP POP SWAP3 SWAP2 POP POP JUMP JUMPDEST PUSH1 0x0 PUSH2 0x29C8 DUP4 DUP4 PUSH2 0x2983 JUMP JUMPDEST SWAP1 POP SWAP3 SWAP2 POP POP JUMP JUMPDEST PUSH1 0x0 PUSH1 0x20 DUP3 ADD SWAP1 POP SWAP2 SWAP1 POP JUMP JUMPDEST PUSH1 0x0 PUSH2 0x29E8 DUP3 PUSH2 0x2946 JUMP JUMPDEST PUSH2 0x29F2 DUP2 DUP6 PUSH2 0x2951 JUMP JUMPDEST SWAP4 POP DUP4 PUSH1 0x20 DUP3 MUL DUP6 ADD PUSH2 0x2A04 DUP6 PUSH2 0x2962 JUMP JUMPDEST DUP1 PUSH1 0x0 JUMPDEST DUP6 DUP2 LT ISZERO PUSH2 0x2A40 JUMPI DUP5 DUP5 SUB DUP10 MSTORE DUP2 MLOAD PUSH2 0x2A21 DUP6 DUP3 PUSH2 0x29BC JUMP JUMPDEST SWAP5 POP PUSH2 0x2A2C DUP4 PUSH2 0x29D0 JUMP JUMPDEST SWAP3 POP PUSH1 0x20 DUP11 ADD SWAP10 POP POP PUSH1 0x1 DUP2 ADD SWAP1 POP PUSH2 0x2A08 JUMP JUMPDEST POP DUP3 SWAP8 POP DUP8 SWAP6 POP POP POP POP POP POP SWAP3 SWAP2 POP POP JUMP JUMPDEST PUSH1 0x0 PUSH1 0x40 DUP3 ADD SWAP1 POP DUP2 DUP2 SUB PUSH1 0x0 DUP4 ADD MSTORE PUSH2 0x2A6B DUP2 PUSH2 0x2921 JUMP JUMPDEST SWAP1 POP DUP2 DUP2 SUB PUSH1 0x20 DUP4 ADD MSTORE PUSH2 0x2A7F DUP2 DUP5 PUSH2 0x29DD JUMP JUMPDEST SWAP1 POP SWAP3 SWAP2 POP POP JUMP JUMPDEST PUSH1 0x0 DUP2 MLOAD SWAP1 POP PUSH2 0x2A96 DUP2 PUSH2 0x1B6C JUMP JUMPDEST SWAP3 SWAP2 POP POP JUMP JUMPDEST PUSH1 0x0 PUSH1 0x20 DUP3 DUP5 SUB SLT ISZERO PUSH2 0x2AB2 JUMPI PUSH2 0x2AB1 PUSH2 0x1B58 JUMP JUMPDEST JUMPDEST PUSH1 0x0 PUSH2 0x2AC0 DUP5 DUP3 DUP6 ADD PUSH2 0x2A87 JUMP JUMPDEST SWAP2 POP POP SWAP3 SWAP2 POP POP JUMP JUMPDEST PUSH1 0x0 DUP2 SWAP1 POP DUP2 PUSH1 0x0 MSTORE PUSH1 0x20 PUSH1 0x0 KECCAK256 SWAP1 POP SWAP2 SWAP1 POP JUMP JUMPDEST PUSH1 0x0 PUSH1 0x20 PUSH1 0x1F DUP4 ADD DIV SWAP1 POP SWAP2 SWAP1 POP JUMP JUMPDEST PUSH1 0x0 DUP3 DUP3 SHL SWAP1 POP SWAP3 SWAP2 POP POP JUMP JUMPDEST PUSH1 0x0 PUSH1 0x8 DUP4 MUL PUSH2 0x2B2B PUSH32 0xFFFFFFFFFFFFFFFFFFFFFFFFFFFFFFFFFFFFFFFFFFFFFFFFFFFFFFFFFFFFFFFF DUP3 PUSH2 0x2AEE JUMP JUMPDEST PUSH2 0x2B35 DUP7 DUP4 PUSH2 0x2AEE JUMP JUMPDEST SWAP6 POP DUP1 NOT DUP5 AND SWAP4 POP DUP1 DUP7 AND DUP5 OR SWAP3 POP POP POP SWAP4 SWAP3 POP POP POP JUMP JUMPDEST PUSH1 0x0 DUP2 SWAP1 POP SWAP2 SWAP1 POP JUMP JUMPDEST PUSH1 0x0 DUP2 SWAP1 POP SWAP2 SWAP1 POP JUMP JUMPDEST PUSH1 0x0 PUSH2 0x2B7C PUSH2 0x2B77 PUSH2 0x2B72 DUP5 PUSH2 0x2B4D JUMP JUMPDEST PUSH2 0x2B57 JUMP JUMPDEST PUSH2 0x2B4D JUMP JUMPDEST SWAP1 POP SWAP2 SWAP1 POP JUMP JUMPDEST PUSH1 0x0 DUP2 SWAP1 POP SWAP2 SWAP1 POP JUMP JUMPDEST PUSH2 0x2B96 DUP4 PUSH2 0x2B61 JUMP JUMPDEST PUSH2 0x2BAA PUSH2 0x2BA2 DUP3 PUSH2 0x2B83 JUMP JUMPDEST DUP5 DUP5 SLOAD PUSH2 0x2AFB JUMP JUMPDEST DUP3 SSTORE POP POP POP POP JUMP JUMPDEST PUSH1 0x0 SWAP1 JUMP JUMPDEST PUSH2 0x2BBF PUSH2 0x2BB2 JUMP JUMPDEST PUSH2 0x2BCA DUP2 DUP5 DUP5 PUSH2 0x2B8D JUMP JUMPDEST POP POP POP JUMP JUMPDEST JUMPDEST DUP2 DUP2 LT ISZERO PUSH2 0x2BEE JUMPI PUSH2 0x2BE3 PUSH1 0x0 DUP3 PUSH2 0x2BB7 JUMP JUMPDEST PUSH1 0x1 DUP2 ADD SWAP1 POP PUSH2 0x2BD0 JUMP JUMPDEST POP POP JUMP JUMPDEST PUSH1 0x1F DUP3 GT ISZERO PUSH2 0x2C33 JUMPI PUSH2 0x2C04 DUP2 PUSH2 0x2AC9 JUMP JUMPDEST PUSH2 0x2C0D DUP5 PUSH2 0x2ADE JUMP JUMPDEST DUP2 ADD PUSH1 0x20 DUP6 LT ISZERO PUSH2 0x2C1C JUMPI DUP2 SWAP1 POP JUMPDEST PUSH2 0x2C30 PUSH2 0x2C28 DUP6 PUSH2 0x2ADE JUMP JUMPDEST DUP4 ADD DUP3 PUSH2 0x2BCF JUMP JUMPDEST POP POP JUMPDEST POP POP POP JUMP JUMPDEST PUSH1 0x0 DUP3 DUP3 SHR SWAP1 POP SWAP3 SWAP2 POP POP JUMP JUMPDEST PUSH1 0x0 PUSH2 0x2C56 PUSH1 0x0 NOT DUP5 PUSH1 0x8 MUL PUSH2 0x2C38 JUMP JUMPDEST NOT DUP1 DUP4 AND SWAP2 POP POP SWAP3 SWAP2 POP POP JUMP JUMPDEST PUSH1 0x0 PUSH2 0x2C6F DUP4 DUP4 PUSH2 0x2C45 JUMP JUMPDEST SWAP2 POP DUP3 PUSH1 0x2 MUL DUP3 OR SWAP1 POP SWAP3 SWAP2 POP POP JUMP JUMPDEST PUSH2 0x2C88 DUP3 PUSH2 0x21A1 JUMP JUMPDEST PUSH8 0xFFFFFFFFFFFFFFFF DUP2 GT ISZERO PUSH2 0x2CA1 JUMPI PUSH2 0x2CA0 PUSH2 0x1BB3 JUMP JUMPDEST JUMPDEST PUSH2 0x2CAB DUP3 SLOAD PUSH2 0x22FC JUMP JUMPDEST PUSH2 0x2CB6 DUP3 DUP3 DUP6 PUSH2 0x2BF2 JUMP JUMPDEST PUSH1 0x0 PUSH1 0x20 SWAP1 POP PUSH1 0x1F DUP4 GT PUSH1 0x1 DUP2 EQ PUSH2 0x2CE9 JUMPI PUSH1 0x0 DUP5 ISZERO PUSH2 0x2CD7 JUMPI DUP3 DUP8 ADD MLOAD SWAP1 POP JUMPDEST PUSH2 0x2CE1 DUP6 DUP3 PUSH2 0x2C63 JUMP JUMPDEST DUP7 SSTORE POP PUSH2 0x2D49 JUMP JUMPDEST PUSH1 0x1F NOT DUP5 AND PUSH2 0x2CF7 DUP7 PUSH2 0x2AC9 JUMP JUMPDEST PUSH1 0x0 JUMPDEST DUP3 DUP2 LT ISZERO PUSH2 0x2D1F JUMPI DUP5 DUP10 ADD MLOAD DUP3 SSTORE PUSH1 0x1 DUP3 ADD SWAP2 POP PUSH1 0x20 DUP6 ADD SWAP5 POP PUSH1 0x20 DUP2 ADD SWAP1 POP PUSH2 0x2CFA JUMP JUMPDEST DUP7 DUP4 LT ISZERO PUSH2 0x2D3C JUMPI DUP5 DUP10 ADD MLOAD PUSH2 0x2D38 PUSH1 0x1F DUP10 AND DUP3 PUSH2 0x2C45 JUMP JUMPDEST DUP4 SSTORE POP JUMPDEST PUSH1 0x1 PUSH1 0x2 DUP9 MUL ADD DUP9 SSTORE POP POP POP JUMPDEST POP POP POP POP POP POP JUMP JUMPDEST PUSH1 0x0 PUSH8 0xFFFFFFFFFFFFFFFF DUP3 GT ISZERO PUSH2 0x2D6C JUMPI PUSH2 0x2D6B PUSH2 0x1BB3 JUMP JUMPDEST JUMPDEST PUSH1 0x20 DUP3 MUL SWAP1 POP PUSH1 0x20 DUP2 ADD SWAP1 POP SWAP2 SWAP1 POP JUMP JUMPDEST PUSH1 0x0 PUSH2 0x2D90 PUSH2 0x2D8B DUP5 PUSH2 0x2D51 JUMP JUMPDEST PUSH2 0x1C13 JUMP JUMPDEST SWAP1 POP DUP1 DUP4 DUP3 MSTORE PUSH1 0x20 DUP3 ADD SWAP1 POP PUSH1 0x20 DUP5 MUL DUP4 ADD DUP6 DUP2 GT ISZERO PUSH2 0x2DB3 JUMPI PUSH2 0x2DB2 PUSH2 0x1E0F JUMP JUMPDEST JUMPDEST DUP4 JUMPDEST DUP2 DUP2 LT ISZERO PUSH2 0x2DFA JUMPI DUP1 CALLDATALOAD PUSH8 0xFFFFFFFFFFFFFFFF DUP2 GT ISZERO PUSH2 0x2DD8 JUMPI PUSH2 0x2DD7 PUSH2 0x1B98 JUMP JUMPDEST JUMPDEST DUP1 DUP7 ADD PUSH2 0x2DE5 DUP10 DUP3 PUSH2 0x1F2A JUMP JUMPDEST DUP6 MSTORE PUSH1 0x20 DUP6 ADD SWAP5 POP POP POP PUSH1 0x20 DUP2 ADD SWAP1 POP PUSH2 0x2DB5 JUMP JUMPDEST POP POP POP SWAP4 SWAP3 POP POP POP JUMP JUMPDEST PUSH1 0x0 PUSH2 0x2E11 CALLDATASIZE DUP5 DUP5 PUSH2 0x2D7D JUMP JUMPDEST SWAP1 POP SWAP3 SWAP2 POP POP JUMP JUMPDEST PUSH32 0x46756E6374696F6E732052657175657374204944206973207A65726F00000000 PUSH1 0x0 DUP3 ADD MSTORE POP JUMP JUMPDEST PUSH1 0x0 PUSH2 0x2E4F PUSH1 0x1C DUP4 PUSH2 0x21AC JUMP JUMPDEST SWAP2 POP PUSH2 0x2E5A DUP3 PUSH2 0x2E19 JUMP JUMPDEST PUSH1 0x20 DUP3 ADD SWAP1 POP SWAP2 SWAP1 POP JUMP JUMPDEST PUSH1 0x0 PUSH1 0x20 DUP3 ADD SWAP1 POP DUP2 DUP2 SUB PUSH1 0x0 DUP4 ADD MSTORE PUSH2 0x2E7E DUP2 PUSH2 0x2E42 JUMP JUMPDEST SWAP1 POP SWAP2 SWAP1 POP JUMP JUMPDEST POP JUMP JUMPDEST PUSH1 0x0 PUSH2 0x2E95 PUSH1 0x0 DUP4 PUSH2 0x21AC JUMP JUMPDEST SWAP2 POP PUSH2 0x2EA0 DUP3 PUSH2 0x2E85 JUMP JUMPDEST PUSH1 0x0 DUP3 ADD SWAP1 POP SWAP2 SWAP1 POP JUMP JUMPDEST PUSH1 0x0 PUSH1 0x20 DUP3 ADD SWAP1 POP DUP2 DUP2 SUB PUSH1 0x0 DUP4 ADD MSTORE PUSH2 0x2EC4 DUP2 PUSH2 0x2E88 JUMP JUMPDEST SWAP1 POP SWAP2 SWAP1 POP JUMP JUMPDEST PUSH32 0x4D7573742062652070726F706F736564206F776E657200000000000000000000 PUSH1 0x0 DUP3 ADD MSTORE POP JUMP JUMPDEST PUSH1 0x0 PUSH2 0x2F01 PUSH1 0x16 DUP4 PUSH2 0x21AC JUMP JUMPDEST SWAP2 POP PUSH2 0x2F0C DUP3 PUSH2 0x2ECB JUMP JUMPDEST PUSH1 0x20 DUP3 ADD SWAP1 POP SWAP2 SWAP1 POP JUMP JUMPDEST PUSH1 0x0 PUSH1 0x20 DUP3 ADD SWAP1 POP DUP2 DUP2 SUB PUSH1 0x0 DUP4 ADD MSTORE PUSH2 0x2F30 DUP2 PUSH2 0x2EF4 JUMP JUMPDEST SWAP1 POP SWAP2 SWAP1 POP JUMP JUMPDEST PUSH1 0x0 DUP2 SWAP1 POP DUP2 PUSH1 0x0 MSTORE PUSH1 0x20 PUSH1 0x0 KECCAK256 SWAP1 POP SWAP2 SWAP1 POP JUMP JUMPDEST PUSH1 0x1F DUP3 GT ISZERO PUSH2 0x2F8D JUMPI PUSH2 0x2F5E DUP2 PUSH2 0x2F37 JUMP JUMPDEST PUSH2 0x2F67 DUP5 PUSH2 0x2ADE JUMP JUMPDEST DUP2 ADD PUSH1 0x20 DUP6 LT ISZERO PUSH2 0x2F76 JUMPI DUP2 SWAP1 POP JUMPDEST PUSH2 0x2F8A PUSH2 0x2F82 DUP6 PUSH2 0x2ADE JUMP JUMPDEST DUP4 ADD DUP3 PUSH2 0x2BCF JUMP JUMPDEST POP POP JUMPDEST POP POP POP JUMP JUMPDEST PUSH2 0x2F9B DUP3 PUSH2 0x1D69 JUMP JUMPDEST PUSH8 0xFFFFFFFFFFFFFFFF DUP2 GT ISZERO PUSH2 0x2FB4 JUMPI PUSH2 0x2FB3 PUSH2 0x1BB3 JUMP JUMPDEST JUMPDEST PUSH2 0x2FBE DUP3 SLOAD PUSH2 0x22FC JUMP JUMPDEST PUSH2 0x2FC9 DUP3 DUP3 DUP6 PUSH2 0x2F4C JUMP JUMPDEST PUSH1 0x0 PUSH1 0x20 SWAP1 POP PUSH1 0x1F DUP4 GT PUSH1 0x1 DUP2 EQ PUSH2 0x2FFC JUMPI PUSH1 0x0 DUP5 ISZERO PUSH2 0x2FEA JUMPI DUP3 DUP8 ADD MLOAD SWAP1 POP JUMPDEST PUSH2 0x2FF4 DUP6 DUP3 PUSH2 0x2C63 JUMP JUMPDEST DUP7 SSTORE POP PUSH2 0x305C JUMP JUMPDEST PUSH1 0x1F NOT DUP5 AND PUSH2 0x300A DUP7 PUSH2 0x2F37 JUMP JUMPDEST PUSH1 0x0 JUMPDEST DUP3 DUP2 LT ISZERO PUSH2 0x3032 JUMPI DUP5 DUP10 ADD MLOAD DUP3 SSTORE PUSH1 0x1 DUP3 ADD SWAP2 POP PUSH1 0x20 DUP6 ADD SWAP5 POP PUSH1 0x20 DUP2 ADD SWAP1 POP PUSH2 0x300D JUMP JUMPDEST DUP7 DUP4 LT ISZERO PUSH2 0x304F JUMPI DUP5 DUP10 ADD MLOAD PUSH2 0x304B PUSH1 0x1F DUP10 AND DUP3 PUSH2 0x2C45 JUMP JUMPDEST DUP4 SSTORE POP JUMPDEST PUSH1 0x1 PUSH1 0x2 DUP9 MUL ADD DUP9 SSTORE POP POP POP JUMPDEST POP POP POP POP POP POP JUMP JUMPDEST PUSH1 0x0 PUSH8 0xFFFFFFFFFFFFFFFF DUP3 GT ISZERO PUSH2 0x307F JUMPI PUSH2 0x307E PUSH2 0x1BB3 JUMP JUMPDEST JUMPDEST PUSH1 0x20 DUP3 MUL SWAP1 POP PUSH1 0x20 DUP2 ADD SWAP1 POP SWAP2 SWAP1 POP JUMP JUMPDEST PUSH1 0x0 DUP2 MLOAD SWAP1 POP PUSH2 0x309F DUP2 PUSH2 0x2274 JUMP JUMPDEST SWAP3 SWAP2 POP POP JUMP JUMPDEST PUSH1 0x0 PUSH2 0x30B8 PUSH2 0x30B3 DUP5 PUSH2 0x3064 JUMP JUMPDEST PUSH2 0x1C13 JUMP JUMPDEST SWAP1 POP DUP1 DUP4 DUP3 MSTORE PUSH1 0x20 DUP3 ADD SWAP1 POP PUSH1 0x20 DUP5 MUL DUP4 ADD DUP6 DUP2 GT ISZERO PUSH2 0x30DB JUMPI PUSH2 0x30DA PUSH2 0x1E0F JUMP JUMPDEST JUMPDEST DUP4 JUMPDEST DUP2 DUP2 LT ISZERO PUSH2 0x3104 JUMPI DUP1 PUSH2 0x30F0 DUP9 DUP3 PUSH2 0x3090 JUMP JUMPDEST DUP5 MSTORE PUSH1 0x20 DUP5 ADD SWAP4 POP POP PUSH1 0x20 DUP2 ADD SWAP1 POP PUSH2 0x30DD JUMP JUMPDEST POP POP POP SWAP4 SWAP3 POP POP POP JUMP JUMPDEST PUSH1 0x0 DUP3 PUSH1 0x1F DUP4 ADD SLT PUSH2 0x3123 JUMPI PUSH2 0x3122 PUSH2 0x1B98 JUMP JUMPDEST JUMPDEST DUP2 MLOAD PUSH2 0x3133 DUP5 DUP3 PUSH1 0x20 DUP7 ADD PUSH2 0x30A5 JUMP JUMPDEST SWAP2 POP POP SWAP3 SWAP2 POP POP JUMP JUMPDEST PUSH1 0x0 PUSH1 0x20 DUP3 DUP5 SUB SLT ISZERO PUSH2 0x3152 JUMPI PUSH2 0x3151 PUSH2 0x1B58 JUMP JUMPDEST JUMPDEST PUSH1 0x0 DUP3 ADD MLOAD PUSH8 0xFFFFFFFFFFFFFFFF DUP2 GT ISZERO PUSH2 0x3170 JUMPI PUSH2 0x316F PUSH2 0x1B5D JUMP JUMPDEST JUMPDEST PUSH2 0x317C DUP5 DUP3 DUP6 ADD PUSH2 0x310E JUMP JUMPDEST SWAP2 POP POP SWAP3 SWAP2 POP POP JUMP JUMPDEST PUSH32 0x4F6E6C792063616C6C61626C65206279206F776E657200000000000000000000 PUSH1 0x0 DUP3 ADD MSTORE POP JUMP JUMPDEST PUSH1 0x0 PUSH2 0x31BB PUSH1 0x16 DUP4 PUSH2 0x21AC JUMP JUMPDEST SWAP2 POP PUSH2 0x31C6 DUP3 PUSH2 0x3185 JUMP JUMPDEST PUSH1 0x20 DUP3 ADD SWAP1 POP SWAP2 SWAP1 POP JUMP JUMPDEST PUSH1 0x0 PUSH1 0x20 DUP3 ADD SWAP1 POP DUP2 DUP2 SUB PUSH1 0x0 DUP4 ADD MSTORE PUSH2 0x31EA DUP2 PUSH2 0x31AE JUMP JUMPDEST SWAP1 POP SWAP2 SWAP1 POP JUMP JUMPDEST PUSH32 0x4E487B7100000000000000000000000000000000000000000000000000000000 PUSH1 0x0 MSTORE PUSH1 0x21 PUSH1 0x4 MSTORE PUSH1 0x24 PUSH1 0x0 REVERT JUMPDEST PUSH1 0x0 PUSH8 0xFFFFFFFFFFFFFFFF DUP3 AND SWAP1 POP SWAP2 SWAP1 POP JUMP JUMPDEST PUSH2 0x323D DUP2 PUSH2 0x3220 JUMP JUMPDEST DUP3 MSTORE POP POP JUMP JUMPDEST PUSH1 0x0 PUSH2 0xFFFF DUP3 AND SWAP1 POP SWAP2 SWAP1 POP JUMP JUMPDEST PUSH2 0x325A DUP2 PUSH2 0x3243 JUMP JUMPDEST DUP3 MSTORE POP POP JUMP JUMPDEST PUSH1 0x0 PUSH4 0xFFFFFFFF DUP3 AND SWAP1 POP SWAP2 SWAP1 POP JUMP JUMPDEST PUSH2 0x3279 DUP2 PUSH2 0x3260 JUMP JUMPDEST DUP3 MSTORE POP POP JUMP JUMPDEST PUSH1 0x0 PUSH1 0xA0 DUP3 ADD SWAP1 POP PUSH2 0x3294 PUSH1 0x0 DUP4 ADD DUP9 PUSH2 0x3234 JUMP JUMPDEST DUP2 DUP2 SUB PUSH1 0x20 DUP4 ADD MSTORE PUSH2 0x32A6 DUP2 DUP8 PUSH2 0x1DAF JUMP JUMPDEST SWAP1 POP PUSH2 0x32B5 PUSH1 0x40 DUP4 ADD DUP7 PUSH2 0x3251 JUMP JUMPDEST PUSH2 0x32C2 PUSH1 0x60 DUP4 ADD DUP6 PUSH2 0x3270 JUMP JUMPDEST PUSH2 0x32CF PUSH1 0x80 DUP4 ADD DUP5 PUSH2 0x212C JUMP JUMPDEST SWAP7 SWAP6 POP POP POP POP POP POP JUMP JUMPDEST PUSH32 0x43616E6E6F74207472616E7366657220746F2073656C66000000000000000000 PUSH1 0x0 DUP3 ADD MSTORE POP JUMP JUMPDEST PUSH1 0x0 PUSH2 0x330F PUSH1 0x17 DUP4 PUSH2 0x21AC JUMP JUMPDEST SWAP2 POP PUSH2 0x331A DUP3 PUSH2 0x32D9 JUMP JUMPDEST PUSH1 0x20 DUP3 ADD SWAP1 POP SWAP2 SWAP1 POP JUMP JUMPDEST PUSH1 0x0 PUSH1 0x20 DUP3 ADD SWAP1 POP DUP2 DUP2 SUB PUSH1 0x0 DUP4 ADD MSTORE PUSH2 0x333E DUP2 PUSH2 0x3302 JUMP JUMPDEST SWAP1 POP SWAP2 SWAP1 POP JUMP JUMPDEST PUSH2 0x334E DUP2 PUSH2 0x2B4D JUMP JUMPDEST DUP3 MSTORE POP POP JUMP JUMPDEST PUSH1 0x0 PUSH1 0x20 DUP3 ADD SWAP1 POP PUSH2 0x3369 PUSH1 0x0 DUP4 ADD DUP5 PUSH2 0x3345 JUMP JUMPDEST SWAP3 SWAP2 POP POP JUMP JUMPDEST PUSH32 0x4E487B7100000000000000000000000000000000000000000000000000000000 PUSH1 0x0 MSTORE PUSH1 0x11 PUSH1 0x4 MSTORE PUSH1 0x24 PUSH1 0x0 REVERT JUMPDEST PUSH1 0x0 PUSH2 0x33A9 DUP3 PUSH2 0x2B4D JUMP JUMPDEST SWAP2 POP PUSH2 0x33B4 DUP4 PUSH2 0x2B4D JUMP JUMPDEST SWAP3 POP DUP3 DUP3 ADD SWAP1 POP DUP1 DUP3 GT ISZERO PUSH2 0x33CC JUMPI PUSH2 0x33CB PUSH2 0x336F JUMP JUMPDEST JUMPDEST SWAP3 SWAP2 POP POP JUMP JUMPDEST PUSH1 0x0 PUSH2 0x33DD DUP3 PUSH2 0x2B4D JUMP JUMPDEST SWAP2 POP PUSH2 0x33E8 DUP4 PUSH2 0x2B4D JUMP JUMPDEST SWAP3 POP DUP3 DUP3 SUB SWAP1 POP DUP2 DUP2 GT ISZERO PUSH2 0x3400 JUMPI PUSH2 0x33FF PUSH2 0x336F JUMP JUMPDEST JUMPDEST SWAP3 SWAP2 POP POP JUMP JUMPDEST PUSH32 0x4E487B7100000000000000000000000000000000000000000000000000000000 PUSH1 0x0 MSTORE PUSH1 0x12 PUSH1 0x4 MSTORE PUSH1 0x24 PUSH1 0x0 REVERT JUMPDEST PUSH1 0x0 PUSH2 0x3440 DUP3 PUSH2 0x2B4D JUMP JUMPDEST SWAP2 POP PUSH2 0x344B DUP4 PUSH2 0x2B4D JUMP JUMPDEST SWAP3 POP DUP3 PUSH2 0x345B JUMPI PUSH2 0x345A PUSH2 0x3406 JUMP JUMPDEST JUMPDEST DUP3 DUP3 MOD SWAP1 POP SWAP3 SWAP2 POP POP JUMP JUMPDEST PUSH1 0x0 PUSH2 0x3471 DUP3 PUSH2 0x2B4D JUMP JUMPDEST SWAP2 POP PUSH2 0x347C DUP4 PUSH2 0x2B4D JUMP JUMPDEST SWAP3 POP DUP3 DUP3 MUL PUSH2 0x348A DUP2 PUSH2 0x2B4D JUMP JUMPDEST SWAP2 POP DUP3 DUP3 DIV DUP5 EQ DUP4 ISZERO OR PUSH2 0x34A1 JUMPI PUSH2 0x34A0 PUSH2 0x336F JUMP JUMPDEST JUMPDEST POP SWAP3 SWAP2 POP POP JUMP JUMPDEST PUSH1 0x0 DUP2 PUSH1 0x1 SHR SWAP1 POP SWAP2 SWAP1 POP JUMP JUMPDEST PUSH1 0x0 DUP1 DUP3 SWAP2 POP DUP4 SWAP1 POP JUMPDEST PUSH1 0x1 DUP6 GT ISZERO PUSH2 0x34FF JUMPI DUP1 DUP7 DIV DUP2 GT ISZERO PUSH2 0x34DB JUMPI PUSH2 0x34DA PUSH2 0x336F JUMP JUMPDEST JUMPDEST PUSH1 0x1 DUP6 AND ISZERO PUSH2 0x34EA JUMPI DUP1 DUP3 MUL SWAP2 POP JUMPDEST DUP1 DUP2 MUL SWAP1 POP PUSH2 0x34F8 DUP6 PUSH2 0x34A8 JUMP JUMPDEST SWAP5 POP PUSH2 0x34BF JUMP JUMPDEST SWAP5 POP SWAP5 SWAP3 POP POP POP JUMP JUMPDEST PUSH1 0x0 DUP3 PUSH2 0x3518 JUMPI PUSH1 0x1 SWAP1 POP PUSH2 0x35D4 JUMP JUMPDEST DUP2 PUSH2 0x3526 JUMPI PUSH1 0x0 SWAP1 POP PUSH2 0x35D4 JUMP JUMPDEST DUP2 PUSH1 0x1 DUP2 EQ PUSH2 0x353C JUMPI PUSH1 0x2 DUP2 EQ PUSH2 0x3546 JUMPI PUSH2 0x3575 JUMP JUMPDEST PUSH1 0x1 SWAP2 POP POP PUSH2 0x35D4 JUMP JUMPDEST PUSH1 0xFF DUP5 GT ISZERO PUSH2 0x3558 JUMPI PUSH2 0x3557 PUSH2 0x336F JUMP JUMPDEST JUMPDEST DUP4 PUSH1 0x2 EXP SWAP2 POP DUP5 DUP3 GT ISZERO PUSH2 0x356F JUMPI PUSH2 0x356E PUSH2 0x336F JUMP JUMPDEST JUMPDEST POP PUSH2 0x35D4 JUMP JUMPDEST POP PUSH1 0x20 DUP4 LT PUSH2 0x133 DUP4 LT AND PUSH1 0x4E DUP5 LT PUSH1 0xB DUP5 LT AND OR ISZERO PUSH2 0x35AA JUMPI DUP3 DUP3 EXP SWAP1 POP DUP4 DUP2 GT ISZERO PUSH2 0x35A5 JUMPI PUSH2 0x35A4 PUSH2 0x336F JUMP JUMPDEST JUMPDEST PUSH2 0x35D4 JUMP JUMPDEST PUSH2 0x35B7 DUP5 DUP5 DUP5 PUSH1 0x1 PUSH2 0x34B5 JUMP JUMPDEST SWAP3 POP SWAP1 POP DUP2 DUP5 DIV DUP2 GT ISZERO PUSH2 0x35CE JUMPI PUSH2 0x35CD PUSH2 0x336F JUMP JUMPDEST JUMPDEST DUP2 DUP2 MUL SWAP1 POP JUMPDEST SWAP4 SWAP3 POP POP POP JUMP JUMPDEST PUSH1 0x0 PUSH2 0x35E6 DUP3 PUSH2 0x2B4D JUMP JUMPDEST SWAP2 POP PUSH2 0x35F1 DUP4 PUSH2 0x2B4D JUMP JUMPDEST SWAP3 POP PUSH2 0x361E PUSH32 0xFFFFFFFFFFFFFFFFFFFFFFFFFFFFFFFFFFFFFFFFFFFFFFFFFFFFFFFFFFFFFFFF DUP5 DUP5 PUSH2 0x3508 JUMP JUMPDEST SWAP1 POP SWAP3 SWAP2 POP POP JUMP INVALID LOG2 PUSH5 0x6970667358 0x22 SLT KECCAK256 0xDC 0xC6 0x4D 0xF7 EXTCODESIZE RETURNDATACOPY 0xB5 0x27 SWAP11 MULMOD GT 0xB3 MLOAD 0xED DUP13 0xB8 CALLVALUE 0xCE 0xBB 0x4D CALLDATASIZE SAR DUP4 0xC0 TIMESTAMP CALLDATACOPY 0xF9 MSTORE PUSH7 0x9F209064736F6C PUSH4 0x43000818 STOP CALLER "},"methodIdentifiers":{"acceptOwnership()":"79ba5097","checkUpkeep(bytes)":"6e04ff0d","handleOracleFulfillment(bytes32,bytes,bytes)":"0ca76175","owner()":"8da5cb5b","performUpkeep(bytes)":"4585e33b","s_borrowers()":"dd3bd960","s_contractAddress()":"9dada6e2","s_lastError()":"4b0795a8","s_lastRequestId()":"b1e21749","s_lastResponse()":"3944ea3a","s_rpcUrl()":"77dc3513","setConfig(string,string,string)":"55bb3c49","transferOwnership(address)":"f2fde38b","triggerCheck(string,string[])":"6420bb09"}}}}}