{"abi":[{"type":"constructor","inputs":[{"name":"_borrowToken","type":"address","internalType":"address"},{"name":"_router","type":"address","internalType":"address"},{"name":"_privacyPool","type":"address","internalType":"address"},{"name":"_linkToken","type":"address","internalType":"address"}],"stateMutability":"nonpayable"},{"type":"function","name":"BORROW_USDC","inputs":[],"outputs":[{"name":"","type":"address","internalType":"address"}],"stateMutability":"view"},{"type":"function","name":"availableBorrowTokenBalance","inputs":[{"name":"","type":"address","internalType":"address"}],"outputs":[{"name":"collateralToken","type":"address","internalType":"address"},{"name":"borrowToken","type":"address","internalType":"address"},{"name":"initiator","type":"address","internalType":"address"},{"name":"sourceChainId","type":"uint256","internalType":"uint256"},{"name":"pendingAmount","type":"uint256","internalType":"uint256"},{"name":"borrowedAmount","type":"uint256","internalType":"uint256"},{"name":"status","type":"uint8","internalType":"enum BorrowStatus"},{"name":"proof","type":"bytes","internalType":"bytes"},{"name":"originalDepositor","type":"address","internalType":"address"},{"name":"recipientForZK","type":"address","internalType":"address"},{"name":"ownChainSelector","type":"uint64","internalType":"uint64"},{"name":"updatedAt","type":"uint64","internalType":"uint64"},{"name":"merkleRoot","type":"bytes32","internalType":"bytes32"}],"stateMutability":"view"},{"type":"function","name":"borrowApply","inputs":[{"name":"amount","type":"uint256","internalType":"uint256"}],"outputs":[],"stateMutability":"nonpayable"},{"type":"function","name":"borrowApplyPrivate","inputs":[{"name":"amount","type":"uint256","internalType":"uint256"},{"name":"commitmentHash","type":"bytes32","internalType":"bytes32"},{"name":"recipientAddress","type":"address","internalType":"address"}],"outputs":[],"stateMutability":"nonpayable"},{"type":"function","name":"ccipReceive","inputs":[{"name":"message","type":"tuple","internalType":"struct Client.Any2EVMMessage","components":[{"name":"messageId","type":"bytes32","internalType":"bytes32"},{"name":"sourceChainSelector","type":"uint64","internalType":"uint64"},{"name":"sender","type":"bytes","internalType":"bytes"},{"name":"data","type":"bytes","internalType":"bytes"},{"name":"destTokenAmounts","type":"tuple[]","internalType":"struct Client.EVMTokenAmount[]","components":[{"name":"token","type":"address","internalType":"address"},{"name":"amount","type":"uint256","internalType":"uint256"}]}]}],"outputs":[],"stateMutability":"nonpayable"},{"type":"function","name":"getRouter","inputs":[],"outputs":[{"name":"","type":"address","internalType":"address"}],"stateMutability":"view"},{"type":"function","name":"owner","inputs":[],"outputs":[{"name":"","type":"address","internalType":"address"}],"stateMutability":"view"},{"type":"function","name":"renounceOwnership","inputs":[],"outputs":[],"stateMutability":"nonpayable"},{"type":"function","name":"repayApply","inputs":[{"name":"amount","type":"uint256","internalType":"uint256"}],"outputs":[],"stateMutability":"nonpayable"},{"type":"function","name":"repayApplyPrivate","inputs":[{"name":"commitmentHash","type":"bytes32","internalType":"bytes32"},{"name":"amount","type":"uint256","internalType":"uint256"}],"outputs":[],"stateMutability":"nonpayable"},{"type":"function","name":"setSourceChainParams","inputs":[{"name":"_collateralToken","type":"address","internalType":"address"},{"name":"_sourceChainId","type":"uint256","internalType":"uint256"},{"name":"_sourceChainSelector","type":"uint64","internalType":"uint64"},{"name":"_sourceChainCollManager","type":"address","internalType":"address"},{"name":"_ownChainSelector","type":"uint64","internalType":"uint64"}],"outputs":[],"stateMutability":"nonpayable"},{"type":"function","name":"supportBorrowCollTokenInfo","inputs":[{"name":"","type":"address","internalType":"address"}],"outputs":[{"name":"collateralToken","type":"address","internalType":"address"},{"name":"sourceChainId","type":"uint256","internalType":"uint256"},{"name":"sourceChainSelector","type":"uint64","internalType":"uint64"},{"name":"sourceChainCollManager","type":"address","internalType":"address"},{"name":"ownChainSelector","type":"uint64","internalType":"uint64"},{"name":"isSupported","type":"bool","internalType":"bool"}],"stateMutability":"view"},{"type":"function","name":"supportsInterface","inputs":[{"name":"interfaceId","type":"bytes4","internalType":"bytes4"}],"outputs":[{"name":"","type":"bool","internalType":"bool"}],"stateMutability":"view"},{"type":"function","name":"transferLinkToken","inputs":[{"name":"to","type":"address","internalType":"address"},{"name":"amount","type":"uint256","internalType":"uint256"}],"outputs":[],"stateMutability":"nonpayable"},{"type":"function","name":"transferOwnership","inputs":[{"name":"newOwner","type":"address","internalType":"address"}],"outputs":[],"stateMutability":"nonpayable"},{"type":"event","name":"BorrowApply","inputs":[{"name":"user","type":"address","indexed":true,"internalType":"address"},{"name":"collateralToken","type":"address","indexed":true,"internalType":"address"},{"name":"borrowToken","type":"address","indexed":false,"internalType":"address"},{"name":"pendingAmount","type":"uint256","indexed":false,"internalType":"uint256"}],"anonymous":false},{"type":"event","name":"BorrowApplyWithCommitment","inputs":[{"name":"commitmentHash","type":"bytes32","indexed":true,"internalType":"bytes32"},{"name":"recipientAddress","type":"address","indexed":true,"internalType":"address"},{"name":"borrowToken","type":"address","indexed":false,"internalType":"address"},{"name":"pendingAmount","type":"uint256","indexed":false,"internalType":"uint256"}],"anonymous":false},{"type":"event","name":"BorrowApprovedAndTransfer","inputs":[{"name":"user","type":"address","indexed":true,"internalType":"address"},{"name":"collateralToken","type":"address","indexed":true,"internalType":"address"},{"name":"borrowToken","type":"address","indexed":false,"internalType":"address"},{"name":"amount","type":"uint256","indexed":false,"internalType":"uint256"}],"anonymous":false},{"type":"event","name":"BorrowApprovedAndTransferWithCommitment","inputs":[{"name":"commitmentHash","type":"bytes32","indexed":true,"internalType":"bytes32"},{"name":"recipientAddress","type":"address","indexed":true,"internalType":"address"},{"name":"borrowToken","type":"address","indexed":true,"internalType":"address"},{"name":"amount","type":"uint256","indexed":false,"internalType":"uint256"}],"anonymous":false},{"type":"event","name":"BorrowInitial","inputs":[{"name":"initiator","type":"address","indexed":true,"internalType":"address"},{"name":"collateralToken","type":"address","indexed":true,"internalType":"address"},{"name":"borrowToken","type":"address","indexed":false,"internalType":"address"}],"anonymous":false},{"type":"event","name":"BorrowInitialWithCommitment","inputs":[{"name":"commitmentHash","type":"bytes32","indexed":false,"internalType":"bytes32"},{"name":"collateralToken","type":"address","indexed":true,"internalType":"address"},{"name":"borrowToken","type":"address","indexed":false,"internalType":"address"}],"anonymous":false},{"type":"event","name":"OwnershipTransferred","inputs":[{"name":"previousOwner","type":"address","indexed":true,"internalType":"address"},{"name":"newOwner","type":"address","indexed":true,"internalType":"address"}],"anonymous":false},{"type":"event","name":"RepayApply","inputs":[{"name":"repayer","type":"address","indexed":true,"internalType":"address"},{"name":"borrowToken","type":"address","indexed":true,"internalType":"address"},{"name":"amount","type":"uint256","indexed":false,"internalType":"uint256"}],"anonymous":false},{"type":"event","name":"RepayApplyPrivate","inputs":[{"name":"commitmentHash","type":"bytes32","indexed":true,"internalType":"bytes32"},{"name":"repayer","type":"address","indexed":true,"internalType":"address"},{"name":"borrowToken","type":"address","indexed":true,"internalType":"address"},{"name":"amount","type":"uint256","indexed":false,"internalType":"uint256"}],"anonymous":false},{"type":"event","name":"RepayApprovedPrivate","inputs":[{"name":"commitmentHash","type":"bytes32","indexed":true,"internalType":"bytes32"},{"name":"repayer","type":"address","indexed":true,"internalType":"address"},{"name":"borrowToken","type":"address","indexed":true,"internalType":"address"},{"name":"amount","type":"uint256","indexed":false,"internalType":"uint256"}],"anonymous":false},{"type":"event","name":"RepayApprovedPublic","inputs":[{"name":"repayer","type":"address","indexed":true,"internalType":"address"},{"name":"borrowToken","type":"address","indexed":true,"internalType":"address"},{"name":"amount","type":"uint256","indexed":false,"internalType":"uint256"}],"anonymous":false},{"type":"event","name":"UserBorrowed","inputs":[{"name":"user","type":"address","indexed":true,"internalType":"address"},{"name":"borrowToken","type":"address","indexed":true,"internalType":"address"},{"name":"amount","type":"uint256","indexed":false,"internalType":"uint256"},{"name":"timestamp","type":"uint256","indexed":false,"internalType":"uint256"}],"anonymous":false},{"type":"error","name":"InvalidCrossChainMessageMode","inputs":[]},{"type":"error","name":"InvalidRouter","inputs":[{"name":"router","type":"address","internalType":"address"}]},{"type":"error","name":"NOBorrowInfo","inputs":[{"name":"user","type":"address","internalType":"address"},{"name":"borrowToken","type":"address","internalType":"address"}]},{"type":"error","name":"OwnableInvalidOwner","inputs":[{"name":"owner","type":"address","internalType":"address"}]},{"type":"error","name":"OwnableUnauthorizedAccount","inputs":[{"name":"account","type":"address","internalType":"address"}]},{"type":"error","name":"RepayMoreThanBorrowed","inputs":[{"name":"user","type":"address","internalType":"address"},{"name":"borrowToken","type":"address","internalType":"address"},{"name":"repayAmount","type":"uint256","internalType":"uint256"},{"name":"borrowedAmount","type":"uint256","internalType":"uint256"}]},{"type":"error","name":"SafeERC20FailedOperation","inputs":[{"name":"token","type":"address","internalType":"address"}]}],"bytecode":{"object":"0x610100346101d357601f613fc238819003918201601f19168301916001600160401b038311848410176101d7578084926080946040528339810103126101d357610048816101eb565b90610055602082016101eb565b9061006e6060610067604084016101eb565b92016101eb565b916001600160a01b038116156101c05760805233156101ad575f8054336001600160a01b0319821681178355604051959290916001600160a01b0316907f8be0079c531659141344cd1fd0a4f28419497f9722a3daafe3b4186f6b6457e09080a360a05260c05260e052613dc290816102008239608051818181610d5b01528181610e760152613875015260a0518181816101be015281816103b501528181610427015281816105c301528181610783015281816108ee01528181610ada01528181610c010152818161119f0152818161174901528181611c8b01528181611fd80152818161201c015281816120990152818161210b01528181612140015281816124400152818161288f01528181612ae901528181612d5701528181612ed80152612fd8015260c05181505060e05181818161052a01526138350152f35b631e4fbdf760e01b5f525f60045260245ffd5b6335fdcccd60e21b5f525f60045260245ffd5b5f80fd5b634e487b7160e01b5f52604160045260245ffd5b51906001600160a01b03821682036101d35756fe6080806040526004361015610012575f80fd5b5f3560e01c90816301ffc9a7146132a257508063207fa60b146130d4578063309daab614612efc57806335db402214612eb9578063715018a614612e4a57806385572ffb14610e3b5780638da5cb5b14610e16578063aff29be614610d7f578063b0f479a114610d3c578063b600104614610b8d578063b7ec1795146107c2578063ce6dfda41461058d578063e3ef40c5146104ad578063e52bea57146101795763f2fde38b146100c1575f80fd5b34610175576020600319360112610175576001600160a01b036100e2613340565b6100ea613a6b565b168015610149576001600160a01b035f54827fffffffffffffffffffffffff00000000000000000000000000000000000000008216175f55167f8be0079c531659141344cd1fd0a4f28419497f9722a3daafe3b4186f6b6457e05f80a3005b7f1e4fbdf7000000000000000000000000000000000000000000000000000000005f525f60045260245ffd5b5f80fd5b3461017557604060031936011261017557600435602435811561044f57815f52600360205260405f2091600583015480156103f65782811061038757506103586103277f00000000000000000000000000000000000000000000000000000000000000006103536001600160a01b038216966101f78730338b613abe565b8660048201556006810160057fffffffffffffffffffffffffffffffffffffffffffffffffffffffffffffff00825416179055600a810167ffffffffffffffff804216167fffffffffffffffffffffffffffffffffffffffffffffffff000000000000000082541617905560098101546001600160a01b0382541691895f526001602052600160405f2001549167ffffffffffffffff6001600160a01b0360028401541691600b604051946102ad6020876133fc565b5f8652015494604051966102c0886133a7565b6001600160a01b038316885260208801528d60408801528c60608801526005608088015260a08701524660c087015260a01c1660e0850152886101008501526101208401525f610140840152610160830152610180820152604051938491602083016134fe565b037fffffffffffffffffffffffffffffffffffffffffffffffffffffffffffffffe081018452836133fc565b613759565b506040519182527f783e8980f5354a3130448b017d7078997268a6cfa5440a7864476d9208341dcf60203393a4005b6040517f0c5d7e480000000000000000000000000000000000000000000000000000000081523360048201527f00000000000000000000000000000000000000000000000000000000000000006001600160a01b03166024820152604481018490526064810191909152608490fd5b7fc9441021000000000000000000000000000000000000000000000000000000005f52336004526001600160a01b037f00000000000000000000000000000000000000000000000000000000000000001660245260445ffd5b60646040517f08c379a000000000000000000000000000000000000000000000000000000000815260206004820152601e60248201527f436f6d6d69746d656e7420686173682063616e6e6f74206265207a65726f00006044820152fd5b346101755760406003193601126101755761051d60206104cb613340565b6104d3613a6b565b6040517fa9059cbb0000000000000000000000000000000000000000000000000000000081526001600160a01b039091166004820152602480359082015291829081906044820190565b03815f6001600160a01b037f0000000000000000000000000000000000000000000000000000000000000000165af180156105825761055857005b6105799060203d60201161057b575b61057181836133fc565b810190613618565b005b503d610567565b6040513d5f823e3d90fd5b3461017557602060031936011261017557600435335f52600260205260405f2090600582015481811061075557506107266103277f00000000000000000000000000000000000000000000000000000000000000006103536001600160a01b038216956105fc8630338a613abe565b8560048201556006810160057fffffffffffffffffffffffffffffffffffffffffffffffffffffffffffffff00825416179055600a810167ffffffffffffffff804216167fffffffffffffffffffffffffffffffffffffffffffffffff00000000000000008254161790556001600160a01b0381541690875f526001602052600160405f20015490885f5260016020526001600160a01b03600267ffffffffffffffff8160405f200154169201541690604051926106bb6020856133fc565b5f8452604051946106cb866133a7565b33865260208601528a60408601528960608601526005608086015260a08501524660c085015260e08401525f6101008401526101208301525f6101408301526101608201525f610180820152604051938491602083016134fe565b506040519081527f379328db6ed43a1b0cabb2cd85f72e5ae683c99897954f8d3c8410fc30323a2a60203392a3005b6040517f0c5d7e480000000000000000000000000000000000000000000000000000000081523360048201527f00000000000000000000000000000000000000000000000000000000000000006001600160a01b0316602482015260448101929092526064820152608490fd5b3461017557606060031936011261017557600435602435604435916001600160a01b038316809303610175578215610b2f57815f52600360205260405f2090600682019160ff8354166007811015610b0257600103610aa95760048101928354610a2557827f9d44ed18e7899a12551dbc51dbce53e649b4d851fb05c42179ddcc500a82fc7c945560027fffffffffffffffffffffffffffffffffffffffffffffffffffffffffffffff0082541617905560098101857fffffffffffffffffffffffff0000000000000000000000000000000000000000825416179055600a810167ffffffffffffffff804216167fffffffffffffffffffffffffffffffffffffffffffffffff0000000000000000825416179055610a006109ce6109fa876001600160a01b038554167f0000000000000000000000000000000000000000000000000000000000000000956001600160a01b038716805f526001602052600160405f200154815f52600160205267ffffffffffffffff600360405f20015416906001600160a01b0360028501541692600b604051956109636020886133fc565b5f875201549560405197610976896133a7565b8852602088015260408701528a60608701526002608087015260a08601524660c086015260e08501528a6101008501526101208401525f610140840152610160830152610180820152604051928391602083016134fe565b037fffffffffffffffffffffffffffffffffffffffffffffffffffffffffffffffe081018352826133fc565b82613759565b50604080516001600160a01b039092168252602082019290925290819081015b0390a3005b60846040517f08c379a000000000000000000000000000000000000000000000000000000000815260206004820152602160248201527f4578697374696e672070656e64696e6720626f72726f77206f7065726174696f60448201527f6e000000000000000000000000000000000000000000000000000000000000006064820152fd5b847fc9441021000000000000000000000000000000000000000000000000000000005f526004526001600160a01b037f00000000000000000000000000000000000000000000000000000000000000001660245260445ffd5b7f4e487b71000000000000000000000000000000000000000000000000000000005f52602160045260245ffd5b60646040517f08c379a000000000000000000000000000000000000000000000000000000000815260206004820152602060248201527f526563697069656e7420616464726573732063616e6e6f74206265207a65726f6044820152fd5b346101755760a060031936011261017557610ba6613340565b60443567ffffffffffffffff81168103610175576064356001600160a01b0381168103610175576084359267ffffffffffffffff841684036101755767ffffffffffffffff92600392610bf7613a6b565b6001600160a01b037f0000000000000000000000000000000000000000000000000000000000000000165f5260016020526001600160a01b0360405f2093167fffffffffffffffffffffffff00000000000000000000000000000000000000008454161783556024356001840155846002840192167fffffffffffffffffffffffffffffffffffffffffffffffff00000000000000008354161782557fffffffff0000000000000000000000000000000000000000ffffffffffffffff7bffffffffffffffffffffffffffffffffffffffff000000000000000083549260401b1691161790550191167fffffffffffffffffffffffffffffffffffffffffffffffff0000000000000000825416178155680100000000000000007fffffffffffffffffffffffffffffffffffffffffffffff00ffffffffffffffff8254161790555f80f35b34610175575f6003193601126101755760206040516001600160a01b037f0000000000000000000000000000000000000000000000000000000000000000168152f35b34610175576020600319360112610175576001600160a01b03610da0613340565b165f52600160205260c060405f2060ff6001600160a01b03825416916001600160a01b036001820154916003600282015491015492604051958652602086015267ffffffffffffffff8116604086015260401c16606084015267ffffffffffffffff8116608084015260401c16151560a0820152f35b34610175575f6003193601126101755760206001600160a01b035f5416604051908152f35b346101755760206003193601126101755760043567ffffffffffffffff81116101755760a06003198236030112610175576001600160a01b037f0000000000000000000000000000000000000000000000000000000000000000163303612e1e57604051610ea8816133c4565b81600401358152602482013567ffffffffffffffff81168103610175576020820152604482013567ffffffffffffffff811161017557610eee90600436918501016135d2565b6040820152606482013567ffffffffffffffff811161017557610f1790600436918501016135d2565b916060820192835260848101359067ffffffffffffffff82116101755701903660238301121561017557600482013567ffffffffffffffff81116116345760208160051b0192610f6a60405194856133fc565b818452602060048186019360061b830101019036821161017557602401915b818310612dd957505050608001525180518101602081019160208183031261017557602081015167ffffffffffffffff81116101755701906101a090829003126101755760405190610fda826133a7565b610fe660208201613aaa565b8252610ff460408201613aaa565b602083015261100560608201613aaa565b92604083019384526080820151906060840191825260a0830151926007841015610175576080850193845260c081015160a086015260e081015160c086015261010081015167ffffffffffffffff811681036101755760e086015261012081015193610100860194855261107c6101408301613aaa565b61012087015261016082015191610140870192835261018081015167ffffffffffffffff8111610175576020908201019084601f830112156101755781516110c3816134c4565b956110d160405197886133fc565b81875260208285010111610175576020815f92826101a09601838a015e870101526101608801948552015161018087015280516007811015610b0257600103611bda575050505061112182613b59565b50156116bf575190815f52600360205260ff600660405f200154166007811015610b02576116615760208101516001600160a01b03169083516001600160a01b0316916101208201516001600160a01b031660a0830151918560209560405161118a88826133fc565b5f81526101208701516001600160a01b0316907f00000000000000000000000000000000000000000000000000000000000000006001600160a01b03165f52600189528860405f206003015467ffffffffffffffff16936101808a015197604051998a986111f78a6133a7565b8952838901928352604089019182526060890190815260808901915f835260a08a01935f855260c08b01956001875260e08c019788526101008c019889526101208c019a5f8c526101408d019a8b526101608d019c8d4267ffffffffffffffff169052610180019d8e525f526003905260405f209c516001600160a01b03166001600160a01b03168d547fffffffffffffffffffffffff000000000000000000000000000000000000000016178d55516001600160a01b031660018d01906001600160a01b031681547fffffffffffffffffffffffff000000000000000000000000000000000000000016179055516001600160a01b031660028c01906001600160a01b031681547fffffffffffffffffffffffff0000000000000000000000000000000000000000161790555160038b01555160048a0155516005890155516007811015610b025761134d906006890161348d565b518051600788019167ffffffffffffffff82116116345761136e8354613356565b601f81116115f1575b508a90601f831160011461150b57966020967f5efd8ca10bc2c110612cb90710b1f41247d8ca495646fce5dccc0cf655ba1fc59d9b966001600160a01b0360409e9c97600b9787839e9867ffffffffffffffff98859f5f92611500575b50507fffffffffffffffffffffffffffffffffffffffffffffffffffffffffffffffff8260011b9260031b1c19161790555b51168a6008890191167fffffffffffffffffffffffff0000000000000000000000000000000000000000825416179055898060098901935116167fffffffffffffffffffffffff0000000000000000000000000000000000000000835416178255517fffffffff0000000000000000ffffffffffffffffffffffffffffffffffffffff7bffffffffffffffff000000000000000000000000000000000000000083549260a01b169116179055511667ffffffffffffffff600a850191167fffffffffffffffffffffffffffffffffffffffffffffffff000000000000000082541617905551910155015116955116908351928352820152a2005b015190505f806113d4565b907fffffffffffffffffffffffffffffffffffffffffffffffffffffffffffffffe0831691845f528c5f20925f5b8181106115da5750966001600160a01b037f5efd8ca10bc2c110612cb90710b1f41247d8ca495646fce5dccc0cf655ba1fc59f9d989760409f9d9897600188849f9998859f9860209f9867ffffffffffffffff9b600b9e106115a3575b505050811b019055611406565b01517fffffffffffffffffffffffffffffffffffffffffffffffffffffffffffffffff60f88460031b161c191690555f8080611596565b92938e600181928786015181550195019301611539565b835f528b5f20601f840160051c8101918d851061162a575b601f0160051c01905b81811061161f5750611377565b5f8155600101611612565b9091508190611609565b7f4e487b71000000000000000000000000000000000000000000000000000000005f52604160045260245ffd5b60646040517f08c379a000000000000000000000000000000000000000000000000000000000815260206004820152601a60248201527f5072697661746520626f72726f7720696e666f206578697374730000000000006044820152fd5b50906001600160a01b03825116805f52600260205260ff600660405f200154166007811015610b0257156116f290613c68565b60208301516001600160a01b031682516001600160a01b0316936101208101516001600160a01b0316918360a08301519660209460405198611734878b6133fc565b5f8a526101208601516001600160a01b0316997f00000000000000000000000000000000000000000000000000000000000000006001600160a01b03165f526001885260405f206003015467ffffffffffffffff169160405196611797886133a7565b87528887019485526040870193845260608701908152608087015f815260a08801905f825260c08901926001845260e08a019485526101008a019e8f526101208a01965f88526101408b019687526101608b01984267ffffffffffffffff168a528d6101808d019b5f8d525f526002905260405f209b516001600160a01b03166001600160a01b03168c547fffffffffffffffffffffffff000000000000000000000000000000000000000016178c55516001600160a01b031660018c01906001600160a01b031681547fffffffffffffffffffffffff000000000000000000000000000000000000000016179055516001600160a01b031660028b01906001600160a01b031681547fffffffffffffffffffffffff0000000000000000000000000000000000000000161790555160038a0155516004890155516005880155516007811015610b02576118ee906006880161348d565b518051600787019167ffffffffffffffff82116116345761190f8354613356565b601f8111611b97575b508990601f8311600114611aa75794600b946001600160a01b037f5f30c8dbe655f584a2902b72f90555d79f53b661d823393b9938ee876a0f3a819d9e9f60209a968667ffffffffffffffff97849f9c97859f9c5f92611a9c575b50507fffffffffffffffffffffffffffffffffffffffffffffffffffffffffffffffff8260011b9260031b1c19161790555b51168a6008890191167fffffffffffffffffffffffff0000000000000000000000000000000000000000825416179055898060098901935116167fffffffffffffffffffffffff0000000000000000000000000000000000000000835416178255517fffffffff0000000000000000ffffffffffffffffffffffffffffffffffffffff7bffffffffffffffff000000000000000000000000000000000000000083549260a01b169116179055511667ffffffffffffffff600a850191167fffffffffffffffffffffffffffffffffffffffffffffffff000000000000000082541617905551910155015116945116604051908152a3005b015190505f80611973565b907fffffffffffffffffffffffffffffffffffffffffffffffffffffffffffffffe0831691845f528b5f20925f5b818110611b8057507f5f30c8dbe655f584a2902b72f90555d79f53b661d823393b9938ee876a0f3a819d9e9f60209a966001876001600160a01b039f9c976001600160a01b039f9c976001600160a01b03969767ffffffffffffffff9b600b9e9910611b49575b505050811b0190556119a5565b01517fffffffffffffffffffffffffffffffffffffffffffffffffffffffffffffffff60f88460031b161c191690555f8080611b3c565b92938d600181928786015181550195019301611ad5565b835f528a5f20601f840160051c8101918c8510611bd0575b601f0160051c01905b818110611bc55750611918565b5f8155600101611bb8565b9091508190611baf565b809694939596516007811015610b02576002036123075750505051906001600160a01b03845116925193611c0f831515613c03565b83156122a957825f52600360205260ff600660405f200154166007811015610b0257611c3b9015613c68565b6001600160a01b03806020830151169251166001600160a01b03610120830151169260a083015193876020956001600160a01b0360405193611c7d89866133fc565b5f85528161012089015116827f0000000000000000000000000000000000000000000000000000000000000000165f5260018a5267ffffffffffffffff600360405f200154166101808a01519160405198611cd78a6133a7565b89528b8901998a52604089019384526060890195865260808901965f885260a08a0152600460c08a015260e089019788526101008901528c61012089015261014088015267ffffffffffffffff4216610160880152610180870152895f52600389528160405f20978180895116167fffffffffffffffffffffffff00000000000000000000000000000000000000008a54161789555116826001890191167fffffffffffffffffffffffff000000000000000000000000000000000000000082541617905551166001600160a01b036002870191167fffffffffffffffffffffffff000000000000000000000000000000000000000082541617905551600385015551600484015560a0820151600584015560c08201516007811015610b0257611e04906006850161348d565b5180519067ffffffffffffffff821161163457611e246007850154613356565b601f8111612267575b508590601f831160011461216f5793600b6101806109ce9585612109967f769b24efa3eee629854a29070ffae754d7e706c37b7bc2fc328752824f7edcb79b9a9661212f9a5f92612164575b50507fffffffffffffffffffffffffffffffffffffffffffffffffffffffffffffffff8260011b9260031b1c19161760078501555b6001600160a01b03610100820151166001600160a01b036008860191167fffffffffffffffffffffffff0000000000000000000000000000000000000000825416179055600984016001600160a01b038061012084015116167fffffffffffffffffffffffff00000000000000000000000000000000000000008254161781556101408201517fffffffff0000000000000000ffffffffffffffffffffffffffffffffffffffff7bffffffffffffffff000000000000000000000000000000000000000083549260a01b16911617905567ffffffffffffffff6101608201511667ffffffffffffffff600a860191167fffffffffffffffffffffffffffffffffffffffffffffffff00000000000000008254161790550151910155611ffd89896001600160a01b037f000000000000000000000000000000000000000000000000000000000000000016613d3a565b6001600160a01b036020820151169060a0810151906001600160a01b037f0000000000000000000000000000000000000000000000000000000000000000165f526001875267ffffffffffffffff600260405f200154166001600160a01b036101208301511690610180604051936120758b866133fc565b5f855201519360405195612088876133a7565b8d87528a8701526001600160a01b037f00000000000000000000000000000000000000000000000000000000000000001660408701528d60608701526004608087015260a08601524660c086015260e0850152896101008501526101208401525f6101408401526101608301526101808201526040519283918683016134fe565b7f0000000000000000000000000000000000000000000000000000000000000000613759565b506040519485526001600160a01b037f00000000000000000000000000000000000000000000000000000000000000001694a4005b015190508f80611e79565b90600785015f52865f20915f5b7fffffffffffffffffffffffffffffffffffffffffffffffffffffffffffffffe08516811061225057506101806109ce956001867f769b24efa3eee629854a29070ffae754d7e706c37b7bc2fc328752824f7edcb79b9a9661212f9a96600b96837fffffffffffffffffffffffffffffffffffffffffffffffffffffffffffffffe06121099c1610612219575b505050811b016007850155611eae565b01517fffffffffffffffffffffffffffffffffffffffffffffffffffffffffffffffff60f88460031b161c191690558f8080612209565b91928860018192868501518155019401920161217c565b600785015f52865f20601f840160051c81018885106122a2575b601f830160051c82018110612297575050611e2d565b5f8155600101612281565b5080612281565b60646040517f08c379a000000000000000000000000000000000000000000000000000000000815260206004820152601960248201527f526563697069656e742061646472657373206973207a65726f000000000000006044820152fd5b8091945095929195516007811015610b02576003036129d1575061232a82613b59565b501561279f5761233c81511515613c03565b6001600160a01b038251161561271b5780515f52600360205260405f2093600685019260ff8454166007811015610b02576002036126bd576001600160a01b038654166001600160a01b0360208301511603612639576001600160a01b036009870154166001600160a01b03825116036125db57600486019687549251830361257d57600a87610353965f6105799b60056103279c016123dd898254613bf6565b90555560047fffffffffffffffffffffffffffffffffffffffffffffffffffffffffffffff008254161790550167ffffffffffffffff804216167fffffffffffffffffffffffffffffffffffffffffffffffff00000000000000008254161790557f0000000000000000000000000000000000000000000000000000000000000000956001600160a01b03871661247f856001600160a01b0386511683613d3a565b8086516001600160a01b03865116907f769b24efa3eee629854a29070ffae754d7e706c37b7bc2fc328752824f7edcb760206040518a8152a46001600160a01b03845116956001600160a01b0360208601511695825f526001602052600160405f20015490835f52600160205267ffffffffffffffff600260405f200154169251936101806001600160a01b036101208a01511696519751980151986040519a6125288c6133a7565b8b5260208b015260408a015260608901526004608089015260a08801524660c088015260e0870152610100860152610120850152610140840152610160830152610180820152604051938491602083016134fe565b60646040517f08c379a000000000000000000000000000000000000000000000000000000000815260206004820152601f60248201527f416d6f756e74206d69736d6174636820696e20636f6e6669726d6174696f6e006044820152fd5b60646040517f08c379a000000000000000000000000000000000000000000000000000000000815260206004820152601a60248201527f526563697069656e742061646472657373206d69736d617463680000000000006044820152fd5b60846040517f08c379a000000000000000000000000000000000000000000000000000000000815260206004820152602260248201527f5072697661746520626f72726f7720636f6c6c61746572616c206d69736d617460448201527f63680000000000000000000000000000000000000000000000000000000000006064820152fd5b60646040517f08c379a000000000000000000000000000000000000000000000000000000000815260206004820152601a60248201527f5072697661746520626f72726f77206e6f742070656e64696e670000000000006044820152fd5b60846040517f08c379a000000000000000000000000000000000000000000000000000000000815260206004820152602160248201527f526563697069656e742061646472657373206973207a65726f20696e2043434260448201527f49000000000000000000000000000000000000000000000000000000000000006064820152fd5b50925050506001600160a01b03815116805f52600260205260405f2091600683019060ff8254166007811015610b0257600203612973576001600160a01b0360208186541692015116036129155760407f52399bfc9ec319813475a49b7ca082ae5511fd1075541f7b177e775044adc47e9160048501905f82549260058801612829858254613bf6565b90555560047fffffffffffffffffffffffffffffffffffffffffffffffffffffffffffffff00825416179055600a850167ffffffffffffffff804216167fffffffffffffffffffffffffffffffffffffffffffffffff00000000000000008254161790557f0000000000000000000000000000000000000000000000000000000000000000847fbd625a144306a8cdb642bb646fe31581330818176858025a0a0a481f424f63d5836001600160a01b03808516996128e883868d613d3a565b5487516001600160a01b0396909616865260208601929092521692604090a38151908152426020820152a3005b60646040517f08c379a000000000000000000000000000000000000000000000000000000000815260206004820152601360248201527f436f6c6c61746572616c206d69736d61746368000000000000000000000000006044820152fd5b60646040517f08c379a000000000000000000000000000000000000000000000000000000000815260206004820152601260248201527f426f72726f77206e6f742070656e64696e6700000000000000000000000000006044820152fd5b919250929350516007811015610b02576006146129ea57005b815115612c735750805115612bef5780515f52600360205260405f2090600682019060ff8254166007811015610b0257600503612b91576004830190815494518503612b0d576001600160a01b03925f60099360058701612a4c898254613b1f565b90555560017fffffffffffffffffffffffffffffffffffffffffffffffffffffffffffffff00825416179055600a840167ffffffffffffffff804216167fffffffffffffffffffffffffffffffffffffffffffffffff00000000000000008254161790555192015416906040519283527f8073a1380ce992722b65f7962ae1bf68d0304b71f651abd10b5575f2c2aa62f760206001600160a01b037f00000000000000000000000000000000000000000000000000000000000000001694a4005b60846040517f08c379a000000000000000000000000000000000000000000000000000000000815260206004820152602560248201527f526570617920616d6f756e74206d69736d6174636820696e20636f6e6669726d60448201527f6174696f6e0000000000000000000000000000000000000000000000000000006064820152fd5b60646040517f08c379a000000000000000000000000000000000000000000000000000000000815260206004820152601960248201527f50726976617465207265706179206e6f742070656e64696e67000000000000006044820152fd5b60846040517f08c379a000000000000000000000000000000000000000000000000000000000815260206004820152602960248201527f436f6d6d69746d656e742068617368206973207a65726f20666f72207072697660448201527f61746520726570617900000000000000000000000000000000000000000000006064820152fd5b90506001600160a01b0391505116805f52600260205260405f2090600682019160ff8354166007811015610b0257600503612d7b57806004600a9201935f85549560058401612cc3888254613b1f565b90555560017fffffffffffffffffffffffffffffffffffffffffffffffffffffffffffffff008254161790550167ffffffffffffffff804216167fffffffffffffffffffffffffffffffffffffffffffffffff00000000000000008254161790556040519182527fab89c47cb5b5dd523682dfea3616e8eb65183bb4a8b8035e2778bf6ece576b3a60206001600160a01b037f00000000000000000000000000000000000000000000000000000000000000001693a3005b60646040517f08c379a000000000000000000000000000000000000000000000000000000000815260206004820152601160248201527f5265706179206e6f742070656e64696e670000000000000000000000000000006044820152fd5b6040833603126101755760405190612df0826133e0565b8335906001600160a01b03821682036101755782602092604094528286013583820152815201920191610f89565b7fd7f73334000000000000000000000000000000000000000000000000000000005f523360045260245ffd5b34610175575f60031936011261017557612e62613a6b565b5f6001600160a01b0381547fffffffffffffffffffffffff000000000000000000000000000000000000000081168355167f8be0079c531659141344cd1fd0a4f28419497f9722a3daafe3b4186f6b6457e08280a3005b34610175575f6003193601126101755760206040516001600160a01b037f0000000000000000000000000000000000000000000000000000000000000000168152f35b3461017557602060031936011261017557600435335f52600260205260405f206006810160ff8154166007811015610b02576001036103f65782600483015560027fffffffffffffffffffffffffffffffffffffffffffffffffffffffffffffff00825416179055600a810167ffffffffffffffff804216167fffffffffffffffffffffffffffffffffffffffffffffffff00000000000000008254161790557f3a114b5919b148730db32d8dae42cb16aff27d3e26665909716c98151cdbe6da610a206001600160a01b0380845416936130ac6109ce6130a67f000000000000000000000000000000000000000000000000000000000000000097858916805f526001602052600160405f200154815f52600160205267ffffffffffffffff600260405f2001541688600289015416916040519361303c6020866133fc565b5f85526040519561304c876133a7565b338752602087015260408601528d60608601526002608086015260a08501524660c085015260e08401525f6101008401526101208301525f6101408301526101608201525f610180820152604051928391602083016134fe565b86613759565b50541693604051918291339583602090939291936001600160a01b0360408201951681520152565b34610175576020600319360112610175576001600160a01b036130f5613340565b165f52600260205260405f206001600160a01b038154166001600160a01b03600183015416916001600160a01b03600282015416600382015491600481015492600582015460ff600684015416600784019160405180935f9080549061315a82613356565b80855291600181169081156132655750600114613228575b50500361317f90846133fc565b60088501546001600160a01b031696600986015494600a87015467ffffffffffffffff1696600b0154976040519b8c9b8c5260208c015260408b015260608a0152608089015260a088015260c087016131d79161343d565b60e086016101a090526101a086016131ee9161344a565b936101008601526001600160a01b03811661012086015260a01c67ffffffffffffffff166101408501526101608401526101808301520390f35b5f908152602081209092505b81831061324957505081016020018b80613172565b6020919350806001915483858a01015201910190918592613234565b9050602093507fffffffffffffffffffffffffffffffffffffffffffffffffffffffffffffff0091501682840152151560051b8201018b80613172565b3461017557602060031936011261017557600435907fffffffff00000000000000000000000000000000000000000000000000000000821680920361017557817f85572ffb0000000000000000000000000000000000000000000000000000000060209314908115613316575b5015158152f35b7f01ffc9a7000000000000000000000000000000000000000000000000000000009150148361330f565b600435906001600160a01b038216820361017557565b90600182811c9216801561339d575b602083101461337057565b7f4e487b71000000000000000000000000000000000000000000000000000000005f52602260045260245ffd5b91607f1691613365565b6101a0810190811067ffffffffffffffff82111761163457604052565b60a0810190811067ffffffffffffffff82111761163457604052565b6040810190811067ffffffffffffffff82111761163457604052565b90601f7fffffffffffffffffffffffffffffffffffffffffffffffffffffffffffffffe0910116810190811067ffffffffffffffff82111761163457604052565b906007821015610b025752565b907fffffffffffffffffffffffffffffffffffffffffffffffffffffffffffffffe0601f602080948051918291828752018686015e5f8582860101520116010190565b906007811015610b025760ff7fffffffffffffffffffffffffffffffffffffffffffffffffffffffffffffff008354169116179055565b67ffffffffffffffff811161163457601f017fffffffffffffffffffffffffffffffffffffffffffffffffffffffffffffffe01660200190565b602081526001600160a01b0382511660208201526001600160a01b0360208301511660408201526001600160a01b03604083015116606082015260608201516080820152613554608083015160a083019061343d565b60a082015160c082015260c082015160e082015267ffffffffffffffff60e0830151166101008201526101008201516101208201526001600160a01b03610120830151166101408201526101408201516101608201526101a06101806135c961016085015183838601526101c085019061344a565b93015191015290565b81601f82011215610175578035906135e9826134c4565b926135f760405194856133fc565b8284526020838301011161017557815f926020809301838601378301015290565b90816020910312610175575180151581036101755790565b9067ffffffffffffffff9093929316815260406020820152613695613661845160a0604085015260e084019061344a565b60208501517fffffffffffffffffffffffffffffffffffffffffffffffffffffffffffffffc084830301606085015261344a565b906040840151917fffffffffffffffffffffffffffffffffffffffffffffffffffffffffffffffc0828203016080830152602080845192838152019301905f5b81811061372e575050506080846001600160a01b03606061372b969701511660a084015201519060c07fffffffffffffffffffffffffffffffffffffffffffffffffffffffffffffffc08285030191015261344a565b90565b825180516001600160a01b0316865260209081015181870152604090950194909201916001016136d5565b6001600160a01b03165f526001602052600260405f20018054916001600160a01b038360401c168015613a0d576040519060208201526020815261379e6040826133fc565b6020936040516137ae86826133fc565b5f8152604051906137be826133e0565b620186a0825286820160018152604051927f181dcf1000000000000000000000000000000000000000000000000000000000898501525160248401525115156044830152604482526138116064836133fc565b604051948594613820866133c4565b85528785015260408401526001600160a01b037f0000000000000000000000000000000000000000000000000000000000000000169081606085015260808401528567ffffffffffffffff6001600160a01b037f000000000000000000000000000000000000000000000000000000000000000016936138ce60405197889384937f20487ded0000000000000000000000000000000000000000000000000000000085521660048401613630565b0381855afa80156105825786945f916139dc575b506040517f095ea7b30000000000000000000000000000000000000000000000000000000081526001600160a01b038416600482015260248101919091529390849060449082905f905af180156105825761398194869467ffffffffffffffff926139c1575b5054165f6040518096819582947f96f4e9f900000000000000000000000000000000000000000000000000000000845260048401613630565b03925af1918215610582575f9261399757505090565b90809250813d83116139ba575b6139ae81836133fc565b81010312610175575190565b503d6139a4565b6139d790863d881161057b5761057181836133fc565b613948565b85819692503d8311613a06575b6139f381836133fc565b810103126101755792518593905f6138e2565b503d6139e9565b60646040517f08c379a000000000000000000000000000000000000000000000000000000000815260206004820152601b60248201527f536f7572636520636861696e206e6f7420636f6e6669677572656400000000006044820152fd5b6001600160a01b035f54163303613a7e57565b7f118cdaa7000000000000000000000000000000000000000000000000000000005f523360045260245ffd5b51906001600160a01b038216820361017557565b9091926001600160a01b03613b1d9481604051957f23b872dd000000000000000000000000000000000000000000000000000000006020880152166024860152166044840152606483015260648252613b186084836133fc565b613ccd565b565b91908203918211613b2c57565b7f4e487b71000000000000000000000000000000000000000000000000000000005f52601160045260245ffd5b906001600160a01b03825116158080613be8575b8115613bcb575b50613ba35761010082015115613b9a5760806001925b0151916007831015610b02579190565b60805f92613b8a565b7f6a01a780000000000000000000000000000000000000000000000000000000005f5260045ffd5b90501580613bda575b5f613b74565b506101008201511515613bd4565b610100840151159150613b6d565b91908201809211613b2c57565b15613c0a57565b60646040517f08c379a000000000000000000000000000000000000000000000000000000000815260206004820152601760248201527f436f6d6d69746d656e742068617368206973207a65726f0000000000000000006044820152fd5b15613c6f57565b60646040517f08c379a000000000000000000000000000000000000000000000000000000000815260206004820152601260248201527f426f72726f7720696e666f2065786973747300000000000000000000000000006044820152fd5b905f602091828151910182855af115610582575f513d613d3157506001600160a01b0381163b155b613cfc5750565b6001600160a01b03907f5274afe7000000000000000000000000000000000000000000000000000000005f521660045260245ffd5b60011415613cf5565b6040517fa9059cbb0000000000000000000000000000000000000000000000000000000060208201526001600160a01b0390921660248301526044820192909252613b1d91613b18826064810161032756fea26469706673582212207681eee5517955344d317c07efa780eb015a7bc4bec53eca6c2c1774cebf439064736f6c634300081e0033","linkReferences":{}},"methodIdentifiers":{"BORROW_USDC()":"35db4022","availableBorrowTokenBalance(address)":"207fa60b","borrowApply(uint256)":"309daab6","borrowApplyPrivate(uint256,bytes32,address)":"b7ec1795","ccipReceive((bytes32,uint64,bytes,bytes,(address,uint256)[]))":"85572ffb","getRouter()":"b0f479a1","owner()":"8da5cb5b","renounceOwnership()":"715018a6","repayApply(uint256)":"ce6dfda4","repayApplyPrivate(bytes32,uint256)":"e52bea57","setSourceChainParams(address,uint256,uint64,address,uint64)":"b6001046","supportBorrowCollTokenInfo(address)":"aff29be6","supportsInterface(bytes4)":"01ffc9a7","transferLinkToken(address,uint256)":"e3ef40c5","transferOwnership(address)":"f2fde38b"},"id":63}