{
    "abi": [
        {
            "type": "constructor",
            "inputs": [
                {
                    "name": "_levels",
                    "type": "uint32",
                    "internalType": "uint32"
                },
                {
                    "name": "_collManagement",
                    "type": "address",
                    "internalType": "address"
                },
                {
                    "name": "_depositVerifier",
                    "type": "address",
                    "internalType": "address"
                },
                {
                    "name": "_borrowVerifier",
                    "type": "address",
                    "internalType": "address"
                }
            ],
            "stateMutability": "nonpayable"
        },
        {
            "type": "function",
            "name": "borrowVerifier",
            "inputs": [],
            "outputs": [
                {
                    "name": "",
                    "type": "address",
                    "internalType": "contract IVerifier"
                }
            ],
            "stateMutability": "view"
        },
        {
            "type": "function",
            "name": "collManagement",
            "inputs": [],
            "outputs": [
                {
                    "name": "",
                    "type": "address",
                    "internalType": "contract ICollManagement"
                }
            ],
            "stateMutability": "view"
        },
        {
            "type": "function",
            "name": "deposit",
            "inputs": [
                {
                    "name": "_token",
                    "type": "address",
                    "internalType": "address"
                },
                {
                    "name": "_amount",
                    "type": "uint256",
                    "internalType": "uint256"
                },
                {
                    "name": "_commitment",
                    "type": "uint256",
                    "internalType": "uint256"
                }
            ],
            "outputs": [],
            "stateMutability": "nonpayable"
        },
        {
            "type": "function",
            "name": "depositVerifier",
            "inputs": [],
            "outputs": [
                {
                    "name": "",
                    "type": "address",
                    "internalType": "contract IVerifier"
                }
            ],
            "stateMutability": "view"
        },
        {
            "type": "function",
            "name": "nullifierHashes",
            "inputs": [
                {
                    "name": "",
                    "type": "uint256",
                    "internalType": "uint256"
                }
            ],
            "outputs": [
                {
                    "name": "",
                    "type": "bool",
                    "internalType": "bool"
                }
            ],
            "stateMutability": "view"
        },
        {
            "type": "event",
            "name": "Deposit",
            "inputs": [
                {
                    "name": "commitment",
                    "type": "uint256",
                    "indexed": true,
                    "internalType": "uint256"
                },
                {
                    "name": "leafIndex",
                    "type": "uint32",
                    "indexed": false,
                    "internalType": "uint32"
                },
                {
                    "name": "timestamp",
                    "type": "uint256",
                    "indexed": false,
                    "internalType": "uint256"
                }
            ],
            "anonymous": false
        },
        {
            "type": "event",
            "name": "Withdrawal",
            "inputs": [
                {
                    "name": "to",
                    "type": "address",
                    "indexed": false,
                    "internalType": "address"
                },
                {
                    "name": "nullifierHash",
                    "type": "uint256",
                    "indexed": false,
                    "internalType": "uint256"
                }
            ],
            "anonymous": false
        }
    ],
    "bytecode": {
        "object": "0x60e06040523461023c576109e76080813803918261001c81610240565b93849283398101031261023c5780519063ffffffff821680920361023c5761004660208201610265565b61005e606061005760408501610265565b9301610265565b9280156101f7578063ffffffff195f5416175f5561008f61008661008183610279565b610240565b91808352610279565b602082019190601f190136833751906001600160401b03821161018b5768010000000000000000821161018b57600154826001558083106101b3575b5060015f5260205f205f5b83811061019f57505050506002546801000000000000000081101561018b5760018101806002558110156101775760025f9081527f405787fa12a823e0f2b7631cc41b3ba8828b3321ca811111fa75cd3aa3bb5ace909101556001600160a01b0390811660805290811660a0521660c05260405161075690816102918239608051818181609f0152610447015260a05181610180015260c051816101110152f35b634e487b7160e01b5f52603260045260245ffd5b634e487b7160e01b5f52604160045260245ffd5b6001906020845194019381840155016100d6565b60015f527fb10e2d527612073b26eecdfd717e6a320cf44b4afac2b0732d9fcbe2b7fa0cf69081019083015b8181106101ec57506100cb565b5f81556001016101df565b60405162461bcd60e51b815260206004820152601d60248201527f4c6576656c73206d7573742062652067726561746572207468616e20300000006044820152606490fd5b5f80fd5b6040519190601f01601f191682016001600160401b0381118382101761018b57604052565b51906001600160a01b038216820361023c57565b6001600160401b03811161018b5760051b6020019056fe6080806040526004361015610012575f80fd5b5f905f3560e01c9081630efe6a8b146101f1575080631f79a1e9146101a457806326120c881461013557806363c9bd99146100c65763945861db14610055575f80fd5b346100c357807ffffffffffffffffffffffffffffffffffffffffffffffffffffffffffffffffc3601126100c357602060405173ffffffffffffffffffffffffffffffffffffffff7f0000000000000000000000000000000000000000000000000000000000000000168152f35b80fd5b50346100c357807ffffffffffffffffffffffffffffffffffffffffffffffffffffffffffffffffc3601126100c357602060405173ffffffffffffffffffffffffffffffffffffffff7f0000000000000000000000000000000000000000000000000000000000000000168152f35b50346100c357807ffffffffffffffffffffffffffffffffffffffffffffffffffffffffffffffffc3601126100c357602060405173ffffffffffffffffffffffffffffffffffffffff7f0000000000000000000000000000000000000000000000000000000000000000168152f35b50346100c35760207ffffffffffffffffffffffffffffffffffffffffffffffffffffffffffffffffc3601126100c35760ff60406020926004358152600484522054166040519015158152f35b82346105205760607ffffffffffffffffffffffffffffffffffffffffffffffffffffffffffffffffc3601126105205760043573ffffffffffffffffffffffffffffffffffffffff8116809103610520576024359160443593831561065357506003549263ffffffff5f541660ff811161056e576001901b8410156105f5575f9392855b63ffffffff5f541663ffffffff8716101561032657600163ffffffff91818716155f14610310576102df816102a98a610708565b9091907fffffffffffffffffffffffffffffffffffffffffffffffffffffffffffffffff83549160031b92831b921b1916179055565b5f5b60405190602082019283526040820152604081526103006060826106af565b51902095811c9601169493610275565b61031988610708565b90549060031b1c906102e1565b8690600254680100000000000000008110156105c8576001810160025560025481101561059b5760025f527f405787fa12a823e0f2b7631cc41b3ba8828b3321ca811111fa75cd3aa3bb5ace01556003547fffffffffffffffffffffffffffffffffffffffffffffffffffffffffffffffff811461056e576001810180600355811161056e5760407f2813ca2762c14ad53880ef467c7448a9015904c20e064e6216ffb3f63390ec5d9163ffffffff825191168152426020820152a26040517f23b872dd0000000000000000000000000000000000000000000000000000000081523360048201523060248201528260448201526020816064815f865af1801561051557610551575b5073ffffffffffffffffffffffffffffffffffffffff7f000000000000000000000000000000000000000000000000000000000000000016916040517f095ea7b30000000000000000000000000000000000000000000000000000000081528360048201528160248201526020816044815f875af1801561051557610524575b50823b156105205760645f928360405195869485937f22425480000000000000000000000000000000000000000000000000000000008552600485015260248401523360448401525af1801561051557610507575080f35b61051391505f906106af565b005b6040513d5f823e3d90fd5b5f80fd5b6105459060203d60201161054a575b61053d81836106af565b8101906106f0565b6104af565b503d610533565b6105699060203d60201161054a5761053d81836106af565b61042f565b7f4e487b71000000000000000000000000000000000000000000000000000000005f52601160045260245ffd5b7f4e487b71000000000000000000000000000000000000000000000000000000005f52603260045260245ffd5b7f4e487b71000000000000000000000000000000000000000000000000000000005f52604160045260245ffd5b60646040517f08c379a000000000000000000000000000000000000000000000000000000000815260206004820152600c60248201527f547265652069732066756c6c00000000000000000000000000000000000000006044820152fd5b807f08c379a0000000000000000000000000000000000000000000000000000000006064925260206004820152601f60248201527f4465706f73697420616d6f756e74206d75737420626520706f736974697665006044820152fd5b90601f7fffffffffffffffffffffffffffffffffffffffffffffffffffffffffffffffe0910116810190811067ffffffffffffffff8211176105c857604052565b90816020910312610520575180151581036105205790565b60015481101561059b5760015f5260205f2001905f9056fea264697066735822122044a995c56b8a758b238fdf4638fe2e3b7b0c145cfb4ecee467d5e59af70aceea64736f6c634300081e0033",
        "linkReferences": {}
    },
    "methodIdentifiers": {
        "borrowVerifier()": "63c9bd99",
        "collManagement()": "945861db",
        "deposit(address,uint256,uint256)": "0efe6a8b",
        "depositVerifier()": "26120c88",
        "nullifierHashes(uint256)": "1f79a1e9"
    },
    "id": 97
}